{
  "contractName": "Bank",
  "abi": [
    {
      "inputs": [],
      "stateMutability": "nonpayable",
      "type": "constructor"
    },
    {
      "anonymous": false,
      "inputs": [
        {
          "indexed": true,
          "internalType": "address",
          "name": "owner",
          "type": "address"
        },
        {
          "indexed": true,
          "internalType": "address",
          "name": "spender",
          "type": "address"
        },
        {
          "indexed": false,
          "internalType": "uint256",
          "name": "value",
          "type": "uint256"
        }
      ],
      "name": "Approval",
      "type": "event"
    },
    {
      "anonymous": false,
      "inputs": [
        {
          "indexed": true,
          "internalType": "address",
          "name": "from",
          "type": "address"
        },
        {
          "indexed": true,
          "internalType": "address",
          "name": "to",
          "type": "address"
        },
        {
          "indexed": false,
          "internalType": "uint256",
          "name": "value",
          "type": "uint256"
        }
      ],
      "name": "Transfer",
      "type": "event"
    },
    {
      "inputs": [
        {
          "internalType": "address",
          "name": "owner",
          "type": "address"
        },
        {
          "internalType": "address",
          "name": "spender",
          "type": "address"
        }
      ],
      "name": "allowance",
      "outputs": [
        {
          "internalType": "uint256",
          "name": "",
          "type": "uint256"
        }
      ],
      "stateMutability": "view",
      "type": "function"
    },
    {
      "inputs": [
        {
          "internalType": "address",
          "name": "spender",
          "type": "address"
        },
        {
          "internalType": "uint256",
          "name": "amount",
          "type": "uint256"
        }
      ],
      "name": "approve",
      "outputs": [
        {
          "internalType": "bool",
          "name": "",
          "type": "bool"
        }
      ],
      "stateMutability": "nonpayable",
      "type": "function"
    },
    {
      "inputs": [
        {
          "internalType": "address",
          "name": "account",
          "type": "address"
        }
      ],
      "name": "balanceOf",
      "outputs": [
        {
          "internalType": "uint256",
          "name": "",
          "type": "uint256"
        }
      ],
      "stateMutability": "view",
      "type": "function"
    },
    {
      "inputs": [],
      "name": "decimals",
      "outputs": [
        {
          "internalType": "uint8",
          "name": "",
          "type": "uint8"
        }
      ],
      "stateMutability": "view",
      "type": "function"
    },
    {
      "inputs": [
        {
          "internalType": "address",
          "name": "spender",
          "type": "address"
        },
        {
          "internalType": "uint256",
          "name": "subtractedValue",
          "type": "uint256"
        }
      ],
      "name": "decreaseAllowance",
      "outputs": [
        {
          "internalType": "bool",
          "name": "",
          "type": "bool"
        }
      ],
      "stateMutability": "nonpayable",
      "type": "function"
    },
    {
      "inputs": [
        {
          "internalType": "address",
          "name": "spender",
          "type": "address"
        },
        {
          "internalType": "uint256",
          "name": "addedValue",
          "type": "uint256"
        }
      ],
      "name": "increaseAllowance",
      "outputs": [
        {
          "internalType": "bool",
          "name": "",
          "type": "bool"
        }
      ],
      "stateMutability": "nonpayable",
      "type": "function"
    },
    {
      "inputs": [],
      "name": "name",
      "outputs": [
        {
          "internalType": "string",
          "name": "",
          "type": "string"
        }
      ],
      "stateMutability": "view",
      "type": "function"
    },
    {
      "inputs": [
        {
          "internalType": "address",
          "name": "",
          "type": "address"
        }
      ],
      "name": "staking",
      "outputs": [
        {
          "internalType": "uint256",
          "name": "startTime",
          "type": "uint256"
        },
        {
          "internalType": "uint256",
          "name": "endTime",
          "type": "uint256"
        },
        {
          "internalType": "uint256",
          "name": "amountStaked",
          "type": "uint256"
        }
      ],
      "stateMutability": "view",
      "type": "function"
    },
    {
      "inputs": [],
      "name": "symbol",
      "outputs": [
        {
          "internalType": "string",
          "name": "",
          "type": "string"
        }
      ],
      "stateMutability": "view",
      "type": "function"
    },
    {
      "inputs": [],
      "name": "totalSupply",
      "outputs": [
        {
          "internalType": "uint256",
          "name": "",
          "type": "uint256"
        }
      ],
      "stateMutability": "view",
      "type": "function"
    },
    {
      "inputs": [
        {
          "internalType": "address",
          "name": "recipient",
          "type": "address"
        },
        {
          "internalType": "uint256",
          "name": "amount",
          "type": "uint256"
        }
      ],
      "name": "transfer",
      "outputs": [
        {
          "internalType": "bool",
          "name": "",
          "type": "bool"
        }
      ],
      "stateMutability": "nonpayable",
      "type": "function"
    },
    {
      "inputs": [
        {
          "internalType": "address",
          "name": "sender",
          "type": "address"
        },
        {
          "internalType": "address",
          "name": "recipient",
          "type": "address"
        },
        {
          "internalType": "uint256",
          "name": "amount",
          "type": "uint256"
        }
      ],
      "name": "transferFrom",
      "outputs": [
        {
          "internalType": "bool",
          "name": "",
          "type": "bool"
        }
      ],
      "stateMutability": "nonpayable",
      "type": "function"
    },
    {
      "inputs": [],
      "name": "getTotalCap",
      "outputs": [
        {
          "internalType": "uint256",
          "name": "",
          "type": "uint256"
        }
      ],
      "stateMutability": "view",
      "type": "function"
    },
    {
      "inputs": [
        {
          "internalType": "uint256",
          "name": "_amount",
          "type": "uint256"
        },
        {
          "internalType": "uint256",
          "name": "_nOfDays",
          "type": "uint256"
        }
      ],
      "name": "startStaking",
      "outputs": [],
      "stateMutability": "nonpayable",
      "type": "function"
    },
    {
      "inputs": [],
      "name": "endStaking",
      "outputs": [],
      "stateMutability": "nonpayable",
      "type": "function"
    },
    {
      "inputs": [
        {
          "internalType": "uint256",
          "name": "_days",
          "type": "uint256"
        }
      ],
      "name": "testEndStaking",
      "outputs": [],
      "stateMutability": "nonpayable",
      "type": "function"
    },
    {
      "inputs": [],
      "name": "mintLotsOfTokens",
      "outputs": [],
      "stateMutability": "nonpayable",
      "type": "function"
    }
  ],
  "bytecode": "0x60806040526040518060400160405280600f81526020017f4976616e526577617264546f6b656e00000000000000000000000000000000008152506007908051906020019062000051929190620004d7565b506040518060400160405280600381526020017f4952540000000000000000000000000000000000000000000000000000000000815250600890805190602001906200009f929190620004d7565b506a52b7d2dcc80cd2e4000000600955348015620000bc57600080fd5b5060078054600181600116156101000203166002900480601f016020809104026020016040519081016040528092919081815260200182805460018160011615610100020316600290048015620001575780601f106200012b5761010080835404028352916020019162000157565b820191906000526020600020905b8154815290600101906020018083116200013957829003601f168201915b505050505060088054600181600116156101000203166002900480601f016020809104026020016040519081016040528092919081815260200182805460018160011615610100020316600290048015620001f65780601f10620001ca57610100808354040283529160200191620001f6565b820191906000526020600020905b815481529060010190602001808311620001d857829003601f168201915b5050505050816003908051906020019062000213929190620004d7565b5080600490805190602001906200022c929190620004d7565b506012600560006101000a81548160ff021916908360ff16021790555050506200026533670de0b6b3a76400006200026b60201b60201c565b62000586565b600073ffffffffffffffffffffffffffffffffffffffff168273ffffffffffffffffffffffffffffffffffffffff1614156200030f576040517f08c379a000000000000000000000000000000000000000000000000000000000815260040180806020018281038252601f8152602001807f45524332303a206d696e7420746f20746865207a65726f20616464726573730081525060200191505060405180910390fd5b62000323600083836200044960201b60201c565b6200033f816002546200044e60201b620012bb1790919060201c565b6002819055506200039d816000808573ffffffffffffffffffffffffffffffffffffffff1673ffffffffffffffffffffffffffffffffffffffff168152602001908152602001600020546200044e60201b620012bb1790919060201c565b6000808473ffffffffffffffffffffffffffffffffffffffff1673ffffffffffffffffffffffffffffffffffffffff168152602001908152602001600020819055508173ffffffffffffffffffffffffffffffffffffffff16600073ffffffffffffffffffffffffffffffffffffffff167fddf252ad1be2c89b69c2b068fc378daa952ba7f163c4a11628f55a4df523b3ef836040518082815260200191505060405180910390a35050565b505050565b600080828401905083811015620004cd576040517f08c379a000000000000000000000000000000000000000000000000000000000815260040180806020018281038252601b8152602001807f536166654d6174683a206164646974696f6e206f766572666c6f77000000000081525060200191505060405180910390fd5b8091505092915050565b828054600181600116156101000203166002900490600052602060002090601f016020900481019282601f106200051a57805160ff19168380011785556200054b565b828001600101855582156200054b579182015b828111156200054a5782518255916020019190600101906200052d565b5b5090506200055a91906200055e565b5090565b6200058391905b808211156200057f57600081600090555060010162000565565b5090565b90565b611e2280620005966000396000f3fe608060405234801561001057600080fd5b506004361061010b5760003560e01c806339509351116100a2578063a457c2d711610071578063a457c2d71461047c578063a60b693d146104e2578063a9059cbb14610500578063d764b78f14610566578063dd62ed3e146105cc5761010b565b806339509351146103035780634b77dd9e1461036957806370a08231146103a157806395d89b41146103f95761010b565b806318160ddd116100de57806318160ddd1461023157806323b872dd1461024f5780632507190a146102d5578063313ce567146102df5761010b565b806306fdde031461011057806309526b5914610193578063095ea7b31461019d578063109e9d5914610203575b600080fd5b610118610644565b6040518080602001828103825283818151815260200191508051906020019080838360005b8381101561015857808201518184015260208101905061013d565b50505050905090810190601f1680156101855780820380516001836020036101000a031916815260200191505b509250505060405180910390f35b61019b6106e6565b005b6101e9600480360360408110156101b357600080fd5b81019080803573ffffffffffffffffffffffffffffffffffffffff169060200190929190803590602001909291905050506106fc565b604051808215151515815260200191505060405180910390f35b61022f6004803603602081101561021957600080fd5b810190808035906020019092919050505061071a565b005b6102396108ac565b6040518082815260200191505060405180910390f35b6102bb6004803603606081101561026557600080fd5b81019080803573ffffffffffffffffffffffffffffffffffffffff169060200190929190803573ffffffffffffffffffffffffffffffffffffffff169060200190929190803590602001909291905050506108b6565b604051808215151515815260200191505060405180910390f35b6102dd61098f565b005b6102e7610b1f565b604051808260ff1660ff16815260200191505060405180910390f35b61034f6004803603604081101561031957600080fd5b81019080803573ffffffffffffffffffffffffffffffffffffffff16906020019092919080359060200190929190505050610b36565b604051808215151515815260200191505060405180910390f35b61039f6004803603604081101561037f57600080fd5b810190808035906020019092919080359060200190929190505050610be9565b005b6103e3600480360360208110156103b757600080fd5b81019080803573ffffffffffffffffffffffffffffffffffffffff169060200190929190505050610c0e565b6040518082815260200191505060405180910390f35b610401610c56565b6040518080602001828103825283818151815260200191508051906020019080838360005b83811015610441578082015181840152602081019050610426565b50505050905090810190601f16801561046e5780820380516001836020036101000a031916815260200191505b509250505060405180910390f35b6104c86004803603604081101561049257600080fd5b81019080803573ffffffffffffffffffffffffffffffffffffffff16906020019092919080359060200190929190505050610cf8565b604051808215151515815260200191505060405180910390f35b6104ea610dc5565b6040518082815260200191505060405180910390f35b61054c6004803603604081101561051657600080fd5b81019080803573ffffffffffffffffffffffffffffffffffffffff16906020019092919080359060200190929190505050610dcf565b604051808215151515815260200191505060405180910390f35b6105a86004803603602081101561057c57600080fd5b81019080803573ffffffffffffffffffffffffffffffffffffffff169060200190929190505050610ded565b60405180848152602001838152602001828152602001935050505060405180910390f35b61062e600480360360408110156105e257600080fd5b81019080803573ffffffffffffffffffffffffffffffffffffffff169060200190929190803573ffffffffffffffffffffffffffffffffffffffff169060200190929190505050610e17565b6040518082815260200191505060405180910390f35b606060038054600181600116156101000203166002900480601f0160208091040260200160405190810160405280929190818152602001828054600181600116156101000203166002900480156106dc5780601f106106b1576101008083540402835291602001916106dc565b820191906000526020600020905b8154815290600101906020018083116106bf57829003601f168201915b5050505050905090565b6106fa6a52b7d2dcc80cd2e4000001610e9e565b565b6000610710610709610f32565b8484610f3a565b6001905092915050565b600061072582611131565b905061073130826112a4565b600061078882600660003373ffffffffffffffffffffffffffffffffffffffff1673ffffffffffffffffffffffffffffffffffffffff168152602001908152602001600020600201546112bb90919063ffffffff16565b9050600660003373ffffffffffffffffffffffffffffffffffffffff1673ffffffffffffffffffffffffffffffffffffffff1681526020019081526020016000206000808201600090556001820160009055600282016000905550503073ffffffffffffffffffffffffffffffffffffffff1663a9059cbb33836040518363ffffffff1660e01b8152600401808373ffffffffffffffffffffffffffffffffffffffff1673ffffffffffffffffffffffffffffffffffffffff16815260200182815260200192505050602060405180830381600087803b15801561086b57600080fd5b505af115801561087f573d6000803e3d6000fd5b505050506040513d602081101561089557600080fd5b810190808051906020019092919050505050505050565b6000600254905090565b60006108c3848484611343565b610984846108cf610f32565b61097f85604051806060016040528060288152602001611d5760289139600160008b73ffffffffffffffffffffffffffffffffffffffff1673ffffffffffffffffffffffffffffffffffffffff1681526020019081526020016000206000610935610f32565b73ffffffffffffffffffffffffffffffffffffffff1673ffffffffffffffffffffffffffffffffffffffff168152602001908152602001600020546116049092919063ffffffff16565b610f3a565b600190509392505050565b60006109996116c4565b90506109a530826112a4565b60006109fc82600660003373ffffffffffffffffffffffffffffffffffffffff1673ffffffffffffffffffffffffffffffffffffffff168152602001908152602001600020600201546112bb90919063ffffffff16565b9050600660003373ffffffffffffffffffffffffffffffffffffffff1673ffffffffffffffffffffffffffffffffffffffff1681526020019081526020016000206000808201600090556001820160009055600282016000905550503073ffffffffffffffffffffffffffffffffffffffff1663a9059cbb33836040518363ffffffff1660e01b8152600401808373ffffffffffffffffffffffffffffffffffffffff1673ffffffffffffffffffffffffffffffffffffffff16815260200182815260200192505050602060405180830381600087803b158015610adf57600080fd5b505af1158015610af3573d6000803e3d6000fd5b505050506040513d6020811015610b0957600080fd5b8101908080519060200190929190505050505050565b6000600560009054906101000a900460ff16905090565b6000610bdf610b43610f32565b84610bda8560016000610b54610f32565b73ffffffffffffffffffffffffffffffffffffffff1673ffffffffffffffffffffffffffffffffffffffff16815260200190815260200160002060008973ffffffffffffffffffffffffffffffffffffffff1673ffffffffffffffffffffffffffffffffffffffff168152602001908152602001600020546112bb90919063ffffffff16565b610f3a565b6001905092915050565b610bf33383610b36565b50610bff3330846108b6565b50610c0a828261182e565b5050565b60008060008373ffffffffffffffffffffffffffffffffffffffff1673ffffffffffffffffffffffffffffffffffffffff168152602001908152602001600020549050919050565b606060048054600181600116156101000203166002900480601f016020809104026020016040519081016040528092919081815260200182805460018160011615610100020316600290048015610cee5780601f10610cc357610100808354040283529160200191610cee565b820191906000526020600020905b815481529060010190602001808311610cd157829003601f168201915b5050505050905090565b6000610dbb610d05610f32565b84610db685604051806060016040528060258152602001611dc86025913960016000610d2f610f32565b73ffffffffffffffffffffffffffffffffffffffff1673ffffffffffffffffffffffffffffffffffffffff16815260200190815260200160002060008a73ffffffffffffffffffffffffffffffffffffffff1673ffffffffffffffffffffffffffffffffffffffff168152602001908152602001600020546116049092919063ffffffff16565b610f3a565b6001905092915050565b6000600954905090565b6000610de3610ddc610f32565b8484611343565b6001905092915050565b60066020528060005260406000206000915090508060000154908060010154908060020154905083565b6000600160008473ffffffffffffffffffffffffffffffffffffffff1673ffffffffffffffffffffffffffffffffffffffff16815260200190815260200160002060008373ffffffffffffffffffffffffffffffffffffffff1673ffffffffffffffffffffffffffffffffffffffff16815260200190815260200160002054905092915050565b600954610ebb82610ead6108ac565b6112bb90919063ffffffff16565b1115610f2f576040517f08c379a000000000000000000000000000000000000000000000000000000000815260040180806020018281038252601a8152602001807f436170206f7665726c6f772c206d696e7420726576657273656400000000000081525060200191505060405180910390fd5b50565b600033905090565b600073ffffffffffffffffffffffffffffffffffffffff168373ffffffffffffffffffffffffffffffffffffffff161415610fc0576040517f08c379a0000000000000000000000000000000000000000000000000000000008152600401808060200182810382526024815260200180611da46024913960400191505060405180910390fd5b600073ffffffffffffffffffffffffffffffffffffffff168273ffffffffffffffffffffffffffffffffffffffff161415611046576040517f08c379a0000000000000000000000000000000000000000000000000000000008152600401808060200182810382526022815260200180611cee6022913960400191505060405180910390fd5b80600160008573ffffffffffffffffffffffffffffffffffffffff1673ffffffffffffffffffffffffffffffffffffffff16815260200190815260200160002060008473ffffffffffffffffffffffffffffffffffffffff1673ffffffffffffffffffffffffffffffffffffffff168152602001908152602001600020819055508173ffffffffffffffffffffffffffffffffffffffff168373ffffffffffffffffffffffffffffffffffffffff167f8c5be1e5ebec7d5bd14f71427d1e84f3dd0314c0f7b2291e5b200ac8c7c3b925836040518082815260200191505060405180910390a3505050565b600042620151808302600660003373ffffffffffffffffffffffffffffffffffffffff1673ffffffffffffffffffffffffffffffffffffffff1681526020019081526020016000206001015401101561118957600080fd5b600061123762015180611229600660003373ffffffffffffffffffffffffffffffffffffffff1673ffffffffffffffffffffffffffffffffffffffff16815260200190815260200160002060000154600660003373ffffffffffffffffffffffffffffffffffffffff1673ffffffffffffffffffffffffffffffffffffffff1681526020019081526020016000206001015461191e90919063ffffffff16565b61196890919063ffffffff16565b905060008161016d6064600a600660003373ffffffffffffffffffffffffffffffffffffffff1673ffffffffffffffffffffffffffffffffffffffff16815260200190815260200160002060020154028161128e57fe5b048161129657fe5b040290508092505050919050565b6112ad81610e9e565b6112b782826119b2565b5050565b600080828401905083811015611339576040517f08c379a000000000000000000000000000000000000000000000000000000000815260040180806020018281038252601b8152602001807f536166654d6174683a206164646974696f6e206f766572666c6f77000000000081525060200191505060405180910390fd5b8091505092915050565b600073ffffffffffffffffffffffffffffffffffffffff168373ffffffffffffffffffffffffffffffffffffffff1614156113c9576040517f08c379a0000000000000000000000000000000000000000000000000000000008152600401808060200182810382526025815260200180611d7f6025913960400191505060405180910390fd5b600073ffffffffffffffffffffffffffffffffffffffff168273ffffffffffffffffffffffffffffffffffffffff16141561144f576040517f08c379a0000000000000000000000000000000000000000000000000000000008152600401808060200182810382526023815260200180611ccb6023913960400191505060405180910390fd5b61145a838383611b79565b6114c581604051806060016040528060268152602001611d10602691396000808773ffffffffffffffffffffffffffffffffffffffff1673ffffffffffffffffffffffffffffffffffffffff168152602001908152602001600020546116049092919063ffffffff16565b6000808573ffffffffffffffffffffffffffffffffffffffff1673ffffffffffffffffffffffffffffffffffffffff16815260200190815260200160002081905550611558816000808573ffffffffffffffffffffffffffffffffffffffff1673ffffffffffffffffffffffffffffffffffffffff168152602001908152602001600020546112bb90919063ffffffff16565b6000808473ffffffffffffffffffffffffffffffffffffffff1673ffffffffffffffffffffffffffffffffffffffff168152602001908152602001600020819055508173ffffffffffffffffffffffffffffffffffffffff168373ffffffffffffffffffffffffffffffffffffffff167fddf252ad1be2c89b69c2b068fc378daa952ba7f163c4a11628f55a4df523b3ef836040518082815260200191505060405180910390a3505050565b60008383111582906116b1576040517f08c379a00000000000000000000000000000000000000000000000000000000081526004018080602001828103825283818151815260200191508051906020019080838360005b8381101561167657808201518184015260208101905061165b565b50505050905090810190601f1680156116a35780820380516001836020036101000a031916815260200191505b509250505060405180910390fd5b5060008385039050809150509392505050565b600042600660003373ffffffffffffffffffffffffffffffffffffffff1673ffffffffffffffffffffffffffffffffffffffff16815260200190815260200160002060010154101561171557600080fd5b60006117c3620151806117b5600660003373ffffffffffffffffffffffffffffffffffffffff1673ffffffffffffffffffffffffffffffffffffffff16815260200190815260200160002060000154600660003373ffffffffffffffffffffffffffffffffffffffff1673ffffffffffffffffffffffffffffffffffffffff1681526020019081526020016000206001015461191e90919063ffffffff16565b61196890919063ffffffff16565b905060008161016d6064600a600660003373ffffffffffffffffffffffffffffffffffffffff1673ffffffffffffffffffffffffffffffffffffffff16815260200190815260200160002060020154028161181a57fe5b048161182257fe5b04029050809250505090565b42600660003373ffffffffffffffffffffffffffffffffffffffff1673ffffffffffffffffffffffffffffffffffffffff1681526020019081526020016000206000018190555061188b6201518082611b7e90919063ffffffff16565b4201600660003373ffffffffffffffffffffffffffffffffffffffff1673ffffffffffffffffffffffffffffffffffffffff1681526020019081526020016000206001018190555081600660003373ffffffffffffffffffffffffffffffffffffffff1673ffffffffffffffffffffffffffffffffffffffff168152602001908152602001600020600201819055505050565b600061196083836040518060400160405280601e81526020017f536166654d6174683a207375627472616374696f6e206f766572666c6f770000815250611604565b905092915050565b60006119aa83836040518060400160405280601a81526020017f536166654d6174683a206469766973696f6e206279207a65726f000000000000815250611c04565b905092915050565b600073ffffffffffffffffffffffffffffffffffffffff168273ffffffffffffffffffffffffffffffffffffffff161415611a55576040517f08c379a000000000000000000000000000000000000000000000000000000000815260040180806020018281038252601f8152602001807f45524332303a206d696e7420746f20746865207a65726f20616464726573730081525060200191505060405180910390fd5b611a6160008383611b79565b611a76816002546112bb90919063ffffffff16565b600281905550611acd816000808573ffffffffffffffffffffffffffffffffffffffff1673ffffffffffffffffffffffffffffffffffffffff168152602001908152602001600020546112bb90919063ffffffff16565b6000808473ffffffffffffffffffffffffffffffffffffffff1673ffffffffffffffffffffffffffffffffffffffff168152602001908152602001600020819055508173ffffffffffffffffffffffffffffffffffffffff16600073ffffffffffffffffffffffffffffffffffffffff167fddf252ad1be2c89b69c2b068fc378daa952ba7f163c4a11628f55a4df523b3ef836040518082815260200191505060405180910390a35050565b505050565b600080831415611b915760009050611bfe565b6000828402905082848281611ba257fe5b0414611bf9576040517f08c379a0000000000000000000000000000000000000000000000000000000008152600401808060200182810382526021815260200180611d366021913960400191505060405180910390fd5b809150505b92915050565b60008083118290611cb0576040517f08c379a00000000000000000000000000000000000000000000000000000000081526004018080602001828103825283818151815260200191508051906020019080838360005b83811015611c75578082015181840152602081019050611c5a565b50505050905090810190601f168015611ca25780820380516001836020036101000a031916815260200191505b509250505060405180910390fd5b506000838581611cbc57fe5b04905080915050939250505056fe45524332303a207472616e7366657220746f20746865207a65726f206164647265737345524332303a20617070726f766520746f20746865207a65726f206164647265737345524332303a207472616e7366657220616d6f756e7420657863656564732062616c616e6365536166654d6174683a206d756c7469706c69636174696f6e206f766572666c6f7745524332303a207472616e7366657220616d6f756e74206578636565647320616c6c6f77616e636545524332303a207472616e736665722066726f6d20746865207a65726f206164647265737345524332303a20617070726f76652066726f6d20746865207a65726f206164647265737345524332303a2064656372656173656420616c6c6f77616e63652062656c6f77207a65726fa2646970667358221220f78579e4e9a0a4cb5d85627450560ce18a84ea53e99f1632269817e1b30d327664736f6c63430006020033",
  "source": "import \"@openzeppelin/contracts/token/ERC20/ERC20.sol\";\nimport \"./Stake.sol\";\n\npragma solidity 0.6.2;\n\ncontract Bank is ERC20, Stake {\n\n  string tokenName = \"IvanRewardToken\";\n  string tokenSymbol = \"IRT\";\n  uint256 private totalCap = 100000000 * (10 ** 18); //Max amount of tokens. ( 100 millions).\n                                                     //Wheneven tokens are burnt to level up,\n                                                     //the total supply decreases.\n\n  constructor () ERC20(tokenName,tokenSymbol)\n  public {\n    _mint(msg.sender, 10 ** 18);\n  }\n\n  /**\n  * @dev Returns the total IRT cap.\n  */\n  function getTotalCap () public view returns (uint256) {\n    return totalCap;\n  }\n\n  function startStaking (uint256 _amount, uint256 _nOfDays) public {\n    increaseAllowance(msg.sender,_amount);\n    transferFrom(msg.sender,address(this),_amount);\n    _startStaking (_amount,_nOfDays);\n  }\n\n  function endStaking () public {\n    uint256 toMint = _endStaking();\n    mintIRT(address(this),toMint);\n    uint256 toTransfer = staking[msg.sender].amountStaked.add(toMint);\n    delete (staking[msg.sender]);\n    this.transfer(msg.sender,toTransfer);\n  }\n\n  // Mock functions for testing purpose //\n\n  function testEndStaking (uint _days) public {\n    uint256 toMint = _endStakingTest(_days);\n    mintIRT(address(this),toMint);\n    uint256 toTransfer = staking[msg.sender].amountStaked.add(toMint);\n    delete (staking[msg.sender]);\n    this.transfer(msg.sender,toTransfer);\n  }\n\n  function mintLotsOfTokens () public {\n    verifyCapOverflow (100000000 * (10 ** 18) + 1);\n  }\n\n  // End of mock functions //\n\n  function mintIRT (address _to, uint256 _amount) internal {\n    verifyCapOverflow(_amount);\n    _mint(_to,_amount);\n  }\n\n  /**\n  * @dev Verify that mint() does not exceed the total token cap.\n  */\n  function verifyCapOverflow (uint256 _amount) private {\n    require (totalSupply().add(_amount) <= totalCap, \"Cap overlow, mint reversed\");\n  }\n\n  function burnIRT (uint256 _amount) internal {\n    increaseAllowance(msg.sender,_amount);\n    _burn (msg.sender,_amount);\n    totalCap = totalCap.sub(_amount);\n  }\n\n}\n",
  "sourcePath": "/Users/dan/Documents/Coding/Solidity/New_Projects/Contracts/IotDevsGame/contracts/Game_Controls/Bank.sol",
  "compiler": {
    "name": "solc",
    "version": "0.6.2+commit.bacdbe57.Emscripten.clang"
  },
  "schemaVersion": "3.2.2",
  "updatedAt": "2020-09-24T13:34:40.411Z",
  "devdoc": {
    "methods": {
      "allowance(address,address)": {
        "details": "See {IERC20-allowance}."
      },
      "approve(address,uint256)": {
        "details": "See {IERC20-approve}.     * Requirements:     * - `spender` cannot be the zero address."
      },
      "balanceOf(address)": {
        "details": "See {IERC20-balanceOf}."
      },
      "decimals()": {
        "details": "Returns the number of decimals used to get its user representation. For example, if `decimals` equals `2`, a balance of `505` tokens should be displayed to a user as `5,05` (`505 / 10 ** 2`).     * Tokens usually opt for a value of 18, imitating the relationship between Ether and Wei. This is the value {ERC20} uses, unless {_setupDecimals} is called.     * NOTE: This information is only used for _display_ purposes: it in no way affects any of the arithmetic of the contract, including {IERC20-balanceOf} and {IERC20-transfer}."
      },
      "decreaseAllowance(address,uint256)": {
        "details": "Atomically decreases the allowance granted to `spender` by the caller.     * This is an alternative to {approve} that can be used as a mitigation for problems described in {IERC20-approve}.     * Emits an {Approval} event indicating the updated allowance.     * Requirements:     * - `spender` cannot be the zero address. - `spender` must have allowance for the caller of at least `subtractedValue`."
      },
      "getTotalCap()": {
        "details": "Returns the total IRT cap."
      },
      "increaseAllowance(address,uint256)": {
        "details": "Atomically increases the allowance granted to `spender` by the caller.     * This is an alternative to {approve} that can be used as a mitigation for problems described in {IERC20-approve}.     * Emits an {Approval} event indicating the updated allowance.     * Requirements:     * - `spender` cannot be the zero address."
      },
      "name()": {
        "details": "Returns the name of the token."
      },
      "symbol()": {
        "details": "Returns the symbol of the token, usually a shorter version of the name."
      },
      "totalSupply()": {
        "details": "See {IERC20-totalSupply}."
      },
      "transfer(address,uint256)": {
        "details": "See {IERC20-transfer}.     * Requirements:     * - `recipient` cannot be the zero address. - the caller must have a balance of at least `amount`."
      },
      "transferFrom(address,address,uint256)": {
        "details": "See {IERC20-transferFrom}.     * Emits an {Approval} event indicating the updated allowance. This is not required by the EIP. See the note at the beginning of {ERC20};     * Requirements: - `sender` and `recipient` cannot be the zero address. - `sender` must have a balance of at least `amount`. - the caller must have allowance for ``sender``'s tokens of at least `amount`."
      }
    }
  },
  "userdoc": {
    "methods": {}
  }
}