{
  "contractName": "Entrance",
  "abi": [
    {
      "inputs": [
        {
          "internalType": "address",
          "name": "_playerContractAddress",
          "type": "address"
        }
      ],
      "name": "ent_0",
      "outputs": [
        {
          "internalType": "bool",
          "name": "",
          "type": "bool"
        }
      ],
      "stateMutability": "nonpayable",
      "type": "function"
    }
  ],
  "bytecode": "0x608060405260008060006101000a81548173ffffffffffffffffffffffffffffffffffffffff021916908373ffffffffffffffffffffffffffffffffffffffff16021790555034801561005157600080fd5b506102a7806100616000396000f3fe608060405234801561001057600080fd5b506004361061002b5760003560e01c80634c25ccd014610030575b600080fd5b6100726004803603602081101561004657600080fd5b81019080803573ffffffffffffffffffffffffffffffffffffffff16906020019092919050505061008c565b604051808215151515815260200191505060405180910390f35b600080600061009a84610205565b6100a2610248565b91506000809054906101000a900473ffffffffffffffffffffffffffffffffffffffff1673ffffffffffffffffffffffffffffffffffffffff166361dfdae6836040518263ffffffff1660e01b8152600401808273ffffffffffffffffffffffffffffffffffffffff1673ffffffffffffffffffffffffffffffffffffffff168152602001915050602060405180830381600087803b15801561014457600080fd5b505af1158015610158573d6000803e3d6000fd5b505050506040513d602081101561016e57600080fd5b810190808051906020019092919050505090508080156101a5575060008273ffffffffffffffffffffffffffffffffffffffff1631115b6101fa576040517f08c379a00000000000000000000000000000000000000000000000000000000081526004018080602001828103825260218152602001806102516021913960400191505060405180910390fd5b600192505050919050565b806000806101000a81548173ffffffffffffffffffffffffffffffffffffffff021916908373ffffffffffffffffffffffffffffffffffffffff16021790555050565b60004290509056fe5461726765742062616c616e63652073686f756c64206265203e207468616e2030a2646970667358221220ba7063359ab8febd27ca95bf89e858473a045c8dc2d3dbc30f3f21abdb43119564736f6c63430006020033",
  "source": "pragma solidity 0.6.2;\n\ninterface playerContract {\n    function setData(address) external returns (bool);\n}\n\n/**\n* @dev Player has to create a contract that includes a function setData(),\n*      this function will receive a randomly generated address.\n*      The player has to send any amount of ether to that address.\n* @notice setData () should return true.\n*/\n\ncontract Entrance {\n\n  playerContract usr = playerContract (0x0);\n\n  function ent_0 (address _playerContractAddress) public returns (bool){\n\n    address targetAddress;\n    bool check;\n\n    setInterface(_playerContractAddress);\n\n    targetAddress = randomAddress();\n\n    check = usr.setData(targetAddress);\n\n    require (check && address(targetAddress).balance > 0,\"Target balance should be > than 0\");\n\n    return true;\n  }\n\n  function setInterface (address _playerContractAddress) internal {\n      usr = playerContract(_playerContractAddress);\n  }\n\n  function randomAddress () private view returns (address){\n      return address(uint160(uint256(now)));\n    }\n\n}\n",
  "sourcePath": "/Users/dan/Documents/Coding/Solidity/New_Projects/Contracts/IotDevsGame/contracts/Game/Easy/Level_0.sol",
  "compiler": {
    "name": "solc",
    "version": "0.6.2+commit.bacdbe57.Emscripten.clang"
  },
  "schemaVersion": "3.0.23",
  "updatedAt": "2020-07-28T10:32:20.777Z",
  "devdoc": {
    "details": "Player has to create a contract that includes a function setData(),     this function will receive a randomly generated address.     The player has to send any amount of ether to that address.",
    "methods": {}
  },
  "userdoc": {
    "methods": {},
    "notice": "setData () should return true."
  }
}