{
  "contractName": "Entrance",
  "abi": [
    {
      "inputs": [
        {
          "internalType": "address",
          "name": "",
          "type": "address"
        }
      ],
      "name": "player",
      "outputs": [
        {
          "internalType": "address",
          "name": "targetAddress",
          "type": "address"
        }
      ],
      "stateMutability": "view",
      "type": "function"
    }
  ],
  "bytecode": "0x60806040526000600160006101000a81548173ffffffffffffffffffffffffffffffffffffffff021916908373ffffffffffffffffffffffffffffffffffffffff16021790555034801561005257600080fd5b50610122806100626000396000f3fe6080604052348015600f57600080fd5b506004361060285760003560e01c80634c54e1b514602d575b600080fd5b606c60048036036020811015604157600080fd5b81019080803573ffffffffffffffffffffffffffffffffffffffff16906020019092919050505060ae565b604051808273ffffffffffffffffffffffffffffffffffffffff1673ffffffffffffffffffffffffffffffffffffffff16815260200191505060405180910390f35b60006020528060005260406000206000915090508060000160009054906101000a900473ffffffffffffffffffffffffffffffffffffffff1690508156fea2646970667358221220dbe70001ee819e6a8f0fbabfc8bfdbff8f1e0e3017e630fe96299b0c1483201e64736f6c63430006020033",
  "source": "pragma solidity 0.6.2;\n\ninterface playerContract {\n    function setData(address) external returns (bool);\n}\n\n/**\n* @dev Player has to create a contract that includes a function setData(),\n*      this function will receive a randomly generated address.\n*      The player has to send any amount of ether to that address.\n*/\n\ncontract Entrance {\n\n  struct playerStruct {\n    address  targetAddress;\n  }\n  mapping (address => playerStruct) public player;\n  playerContract usr = playerContract (0x0);\n\n\n  function ent_0 (address _playerContractAddress) internal returns (bool){\n    setInterface(_playerContractAddress);\n    player[msg.sender].targetAddress = randomAddress();\n    usr.setData(player[msg.sender].targetAddress);\n    require (address(player[msg.sender].targetAddress).balance > 0,\"Target balance should be > than 0\");\n    return true;\n  }\n\n  function setInterface (address _playerContractAddress) private {\n      usr = playerContract(_playerContractAddress);\n  }\n\n  function randomAddress () private view returns (address){\n      return address(uint160(uint256(now)));\n    }\n}\n",
  "sourcePath": "/Users/dan/Documents/Coding/Solidity/New_Projects/Contracts/IotDevsGame/contracts/Game/Levels/Level_1.sol",
  "compiler": {
    "name": "solc",
    "version": "0.6.2+commit.bacdbe57.Emscripten.clang"
  },
  "schemaVersion": "3.2.2",
  "updatedAt": "2020-09-22T18:20:02.703Z",
  "devdoc": {
    "details": "Player has to create a contract that includes a function setData(),     this function will receive a randomly generated address.     The player has to send any amount of ether to that address.",
    "methods": {}
  },
  "userdoc": {
    "methods": {}
  }
}