{
  "contractName": "FallBack",
  "abi": [
    {
      "stateMutability": "nonpayable",
      "type": "fallback"
    },
    {
      "inputs": [
        {
          "internalType": "address",
          "name": "",
          "type": "address"
        }
      ],
      "name": "wins",
      "outputs": [
        {
          "internalType": "bool",
          "name": "",
          "type": "bool"
        }
      ],
      "stateMutability": "view",
      "type": "function"
    }
  ],
  "bytecode": "0x608060405234801561001057600080fd5b50610145806100206000396000f3fe608060405234801561001057600080fd5b506004361061002f5760003560e01c80638047a97a1461003a57610030565b5b610038610096565b005b61007c6004803603602081101561005057600080fd5b81019080803573ffffffffffffffffffffffffffffffffffffffff1690602001909291905050506100ef565b604051808215151515815260200191505060405180910390f35b60016000803373ffffffffffffffffffffffffffffffffffffffff1673ffffffffffffffffffffffffffffffffffffffff16815260200190815260200160002060006101000a81548160ff021916908315150217905550565b60006020528060005260406000206000915054906101000a900460ff168156fea264697066735822122059671ca26fc3173ce1d503fb3d0365886dfccd8f2ee20c4a8071513a45c6459064736f6c63430006020033",
  "source": "pragma solidity 0.6.2;\n\ncontract FallBack {\n\n  mapping (address => bool) public wins;\n\n  fallback () external {\n    win();\n  }\n\n  function win () private {\n    wins[msg.sender] = true;\n  }\n\n}\n",
  "sourcePath": "/Users/dan/Documents/Coding/Solidity/New_Projects/Contracts/IotDevsGame/contracts/Game/Levels/Level_7.sol",
  "compiler": {
    "name": "solc",
    "version": "0.6.2+commit.bacdbe57.Emscripten.clang"
  },
  "schemaVersion": "3.2.2",
  "updatedAt": "2020-09-23T13:29:57.137Z",
  "devdoc": {
    "methods": {}
  },
  "userdoc": {
    "methods": {}
  }
}