{
  "contractName": "FindTheOwner",
  "abi": [
    {
      "inputs": [],
      "name": "completed",
      "outputs": [
        {
          "internalType": "bool",
          "name": "",
          "type": "bool"
        }
      ],
      "stateMutability": "view",
      "type": "function"
    }
  ],
  "bytecode": "0x6080604052348015600f57600080fd5b5060958061001e6000396000f3fe6080604052348015600f57600080fd5b506004361060285760003560e01c80639d9a7fe914602d575b600080fd5b6033604d565b604051808215151515815260200191505060405180910390f35b6000809054906101000a900460ff168156fea2646970667358221220f618d9d3a41f2c5970f1008280711d01fadf40e8b41347642a7bd71bfc73692064736f6c63430006020033",
  "source": "pragma solidity 0.6.2;\n\n// owner of USDT: 0xdAC17F958D2ee523a2206206994597C13D831ec7\n\n/**\n* @dev Because the blockchain is public, you can see who's the owner of the contract\n* address above.\n* One way to do this is to call the function getOwner().\n* The function below accepts a parameter _address which has to be the owner of the contract.\n* The level is completed if the hashing of the address is equal to: 0x61251af2a34c4b856276127a6d85e236c257545c8bd5011ac4f0c05c15327a7d\n*/\n\n\ncontract FindTheOwner {\n\n  bool public completed;\n  bytes32 constant result = 0x61251af2a34c4b856276127a6d85e236c257545c8bd5011ac4f0c05c15327a7d;\n\n  function findIt (address _owner) internal pure returns (bool) {\n    bytes32 res = hash(_owner);\n    require (res == result,\"not matching\");\n    return true;\n  }\n\n  function hash (address _owner) private pure returns (bytes32) {\n    return keccak256(abi.encodePacked(_owner));\n  }\n}\n",
  "sourcePath": "/Users/dan/Documents/Coding/Solidity/New_Projects/Contracts/IotDevsGame/contracts/Game/Levels/Level_4.sol",
  "compiler": {
    "name": "solc",
    "version": "0.6.2+commit.bacdbe57.Emscripten.clang"
  },
  "schemaVersion": "3.2.2",
  "updatedAt": "2020-09-23T19:07:26.343Z",
  "devdoc": {
    "details": "Because the blockchain is public, you can see who's the owner of the contract address above. One way to do this is to call the function getOwner(). The function below accepts a parameter _address which has to be the owner of the contract. The level is completed if the hashing of the address is equal to: 0x61251af2a34c4b856276127a6d85e236c257545c8bd5011ac4f0c05c15327a7d",
    "methods": {}
  },
  "userdoc": {
    "methods": {}
  }
}