{
  "contractName": "GetTheOwneship",
  "abi": [
    {
      "inputs": [],
      "name": "owner",
      "outputs": [
        {
          "internalType": "address",
          "name": "",
          "type": "address"
        }
      ],
      "stateMutability": "view",
      "type": "function"
    },
    {
      "inputs": [],
      "name": "deposit",
      "outputs": [],
      "stateMutability": "payable",
      "type": "function"
    },
    {
      "inputs": [],
      "name": "withdraw",
      "outputs": [],
      "stateMutability": "nonpayable",
      "type": "function"
    },
    {
      "inputs": [],
      "name": "claimOwnership",
      "outputs": [],
      "stateMutability": "nonpayable",
      "type": "function"
    }
  ],
  "bytecode": "0x608060405260008060006101000a81548173ffffffffffffffffffffffffffffffffffffffff021916908373ffffffffffffffffffffffffffffffffffffffff16021790555034801561005157600080fd5b506102ec806100616000396000f3fe60806040526004361061003f5760003560e01c80633ccfd60b146100445780634e71e0c81461005b5780638da5cb5b14610072578063d0e30db0146100c9575b600080fd5b34801561005057600080fd5b506100596100d3565b005b34801561006757600080fd5b50610070610175565b005b34801561007e57600080fd5b5061008761020a565b604051808273ffffffffffffffffffffffffffffffffffffffff1673ffffffffffffffffffffffffffffffffffffffff16815260200191505060405180910390f35b6100d161022f565b005b6000809054906101000a900473ffffffffffffffffffffffffffffffffffffffff1673ffffffffffffffffffffffffffffffffffffffff163373ffffffffffffffffffffffffffffffffffffffff161461012c57600080fd5b3373ffffffffffffffffffffffffffffffffffffffff166108fc479081150290604051600060405180830381858888f19350505050158015610172573d6000803e3d6000fd5b50565b67016345785d8a0000600160003373ffffffffffffffffffffffffffffffffffffffff1673ffffffffffffffffffffffffffffffffffffffff16815260200190815260200160002054116101c857600080fd5b336000806101000a81548173ffffffffffffffffffffffffffffffffffffffff021916908373ffffffffffffffffffffffffffffffffffffffff160217905550565b6000809054906101000a900473ffffffffffffffffffffffffffffffffffffffff1681565b34600160003373ffffffffffffffffffffffffffffffffffffffff1673ffffffffffffffffffffffffffffffffffffffff1681526020019081526020016000205401600160003373ffffffffffffffffffffffffffffffffffffffff1673ffffffffffffffffffffffffffffffffffffffff1681526020019081526020016000208190555056fea264697066735822122063ecad17b7831b8afa2ba74be77d877af08d78068dc7d6372069c201af1e51b364736f6c63430006020033",
  "source": "pragma solidity 0.6.2;\n\nimport \"@openzeppelin/contracts/math/SafeMath.sol\";\n\ncontract GetTheOwneship {\n\n  address public owner = address(0);\n  mapping (address => uint256) player;\n\n  modifier onlyOwner () {\n    require (msg.sender == owner);\n    _;\n  }\n\n  function deposit () public payable {\n    player[msg.sender] = player[msg.sender] + msg.value;\n  }\n\n  function withdraw () public onlyOwner {\n    msg.sender.transfer(address(this).balance);\n  }\n\n  function claimOwnership () public {\n    require ( player[msg.sender] > 0.1 ether);\n    owner = msg.sender;\n  }\n\n}\n",
  "sourcePath": "/Users/dan/Documents/Coding/Solidity/New_Projects/Contracts/IotDevsGame/contracts/Game/Levels/Level_5.sol",
  "compiler": {
    "name": "solc",
    "version": "0.6.2+commit.bacdbe57.Emscripten.clang"
  },
  "schemaVersion": "3.2.2",
  "updatedAt": "2020-09-22T14:12:23.184Z",
  "devdoc": {
    "methods": {}
  },
  "userdoc": {
    "methods": {}
  }
}