{
  "contractName": "Main",
  "abi": [
    {
      "inputs": [],
      "stateMutability": "nonpayable",
      "type": "constructor"
    },
    {
      "anonymous": false,
      "inputs": [
        {
          "indexed": true,
          "internalType": "address",
          "name": "owner",
          "type": "address"
        },
        {
          "indexed": true,
          "internalType": "address",
          "name": "spender",
          "type": "address"
        },
        {
          "indexed": false,
          "internalType": "uint256",
          "name": "value",
          "type": "uint256"
        }
      ],
      "name": "Approval",
      "type": "event"
    },
    {
      "anonymous": false,
      "inputs": [
        {
          "indexed": true,
          "internalType": "address",
          "name": "from",
          "type": "address"
        },
        {
          "indexed": true,
          "internalType": "address",
          "name": "to",
          "type": "address"
        },
        {
          "indexed": false,
          "internalType": "uint256",
          "name": "value",
          "type": "uint256"
        }
      ],
      "name": "Transfer",
      "type": "event"
    },
    {
      "anonymous": false,
      "inputs": [
        {
          "indexed": false,
          "internalType": "uint256",
          "name": "",
          "type": "uint256"
        }
      ],
      "name": "random",
      "type": "event"
    },
    {
      "inputs": [],
      "name": "addPlayer",
      "outputs": [],
      "stateMutability": "payable",
      "type": "function",
      "payable": true
    },
    {
      "inputs": [
        {
          "internalType": "address",
          "name": "owner",
          "type": "address"
        },
        {
          "internalType": "address",
          "name": "spender",
          "type": "address"
        }
      ],
      "name": "allowance",
      "outputs": [
        {
          "internalType": "uint256",
          "name": "",
          "type": "uint256"
        }
      ],
      "stateMutability": "view",
      "type": "function",
      "constant": true
    },
    {
      "inputs": [
        {
          "internalType": "address",
          "name": "spender",
          "type": "address"
        },
        {
          "internalType": "uint256",
          "name": "amount",
          "type": "uint256"
        }
      ],
      "name": "approve",
      "outputs": [
        {
          "internalType": "bool",
          "name": "",
          "type": "bool"
        }
      ],
      "stateMutability": "nonpayable",
      "type": "function"
    },
    {
      "inputs": [
        {
          "internalType": "address",
          "name": "account",
          "type": "address"
        }
      ],
      "name": "balanceOf",
      "outputs": [
        {
          "internalType": "uint256",
          "name": "",
          "type": "uint256"
        }
      ],
      "stateMutability": "view",
      "type": "function",
      "constant": true
    },
    {
      "inputs": [],
      "name": "decimals",
      "outputs": [
        {
          "internalType": "uint8",
          "name": "",
          "type": "uint8"
        }
      ],
      "stateMutability": "view",
      "type": "function",
      "constant": true
    },
    {
      "inputs": [
        {
          "internalType": "address",
          "name": "spender",
          "type": "address"
        },
        {
          "internalType": "uint256",
          "name": "subtractedValue",
          "type": "uint256"
        }
      ],
      "name": "decreaseAllowance",
      "outputs": [
        {
          "internalType": "bool",
          "name": "",
          "type": "bool"
        }
      ],
      "stateMutability": "nonpayable",
      "type": "function"
    },
    {
      "inputs": [],
      "name": "endStaking",
      "outputs": [],
      "stateMutability": "nonpayable",
      "type": "function"
    },
    {
      "inputs": [],
      "name": "getTotalCap",
      "outputs": [
        {
          "internalType": "uint256",
          "name": "",
          "type": "uint256"
        }
      ],
      "stateMutability": "view",
      "type": "function",
      "constant": true
    },
    {
      "inputs": [
        {
          "internalType": "address",
          "name": "spender",
          "type": "address"
        },
        {
          "internalType": "uint256",
          "name": "addedValue",
          "type": "uint256"
        }
      ],
      "name": "increaseAllowance",
      "outputs": [
        {
          "internalType": "bool",
          "name": "",
          "type": "bool"
        }
      ],
      "stateMutability": "nonpayable",
      "type": "function"
    },
    {
      "inputs": [],
      "name": "name",
      "outputs": [
        {
          "internalType": "string",
          "name": "",
          "type": "string"
        }
      ],
      "stateMutability": "view",
      "type": "function",
      "constant": true
    },
    {
      "inputs": [
        {
          "internalType": "address",
          "name": "",
          "type": "address"
        }
      ],
      "name": "player",
      "outputs": [
        {
          "internalType": "address",
          "name": "targetAddress",
          "type": "address"
        }
      ],
      "stateMutability": "view",
      "type": "function",
      "constant": true
    },
    {
      "inputs": [
        {
          "internalType": "address",
          "name": "",
          "type": "address"
        }
      ],
      "name": "players",
      "outputs": [
        {
          "internalType": "bool",
          "name": "isPlayer",
          "type": "bool"
        },
        {
          "internalType": "uint256",
          "name": "playerLevel",
          "type": "uint256"
        }
      ],
      "stateMutability": "view",
      "type": "function",
      "constant": true
    },
    {
      "inputs": [],
      "name": "r",
      "outputs": [],
      "stateMutability": "nonpayable",
      "type": "function"
    },
    {
      "inputs": [],
      "name": "removePlayer",
      "outputs": [],
      "stateMutability": "nonpayable",
      "type": "function"
    },
    {
      "inputs": [
        {
          "internalType": "address",
          "name": "",
          "type": "address"
        }
      ],
      "name": "staking",
      "outputs": [
        {
          "internalType": "uint256",
          "name": "startTime",
          "type": "uint256"
        },
        {
          "internalType": "uint256",
          "name": "endTime",
          "type": "uint256"
        },
        {
          "internalType": "uint256",
          "name": "amountStaked",
          "type": "uint256"
        }
      ],
      "stateMutability": "view",
      "type": "function",
      "constant": true
    },
    {
      "inputs": [
        {
          "internalType": "uint256",
          "name": "_amount",
          "type": "uint256"
        },
        {
          "internalType": "uint256",
          "name": "_nOfDays",
          "type": "uint256"
        }
      ],
      "name": "startStaking",
      "outputs": [],
      "stateMutability": "nonpayable",
      "type": "function"
    },
    {
      "inputs": [],
      "name": "symbol",
      "outputs": [
        {
          "internalType": "string",
          "name": "",
          "type": "string"
        }
      ],
      "stateMutability": "view",
      "type": "function",
      "constant": true
    },
    {
      "inputs": [
        {
          "internalType": "address",
          "name": "",
          "type": "address"
        }
      ],
      "name": "timer",
      "outputs": [
        {
          "internalType": "uint256",
          "name": "",
          "type": "uint256"
        }
      ],
      "stateMutability": "view",
      "type": "function",
      "constant": true
    },
    {
      "inputs": [],
      "name": "totalSupply",
      "outputs": [
        {
          "internalType": "uint256",
          "name": "",
          "type": "uint256"
        }
      ],
      "stateMutability": "view",
      "type": "function",
      "constant": true
    },
    {
      "inputs": [
        {
          "internalType": "address",
          "name": "recipient",
          "type": "address"
        },
        {
          "internalType": "uint256",
          "name": "amount",
          "type": "uint256"
        }
      ],
      "name": "transfer",
      "outputs": [
        {
          "internalType": "bool",
          "name": "",
          "type": "bool"
        }
      ],
      "stateMutability": "nonpayable",
      "type": "function"
    },
    {
      "inputs": [
        {
          "internalType": "address",
          "name": "sender",
          "type": "address"
        },
        {
          "internalType": "address",
          "name": "recipient",
          "type": "address"
        },
        {
          "internalType": "uint256",
          "name": "amount",
          "type": "uint256"
        }
      ],
      "name": "transferFrom",
      "outputs": [
        {
          "internalType": "bool",
          "name": "",
          "type": "bool"
        }
      ],
      "stateMutability": "nonpayable",
      "type": "function"
    },
    {
      "inputs": [],
      "name": "unlockA",
      "outputs": [],
      "stateMutability": "nonpayable",
      "type": "function"
    },
    {
      "inputs": [
        {
          "internalType": "uint8",
          "name": "_n",
          "type": "uint8"
        }
      ],
      "name": "unlockB",
      "outputs": [],
      "stateMutability": "nonpayable",
      "type": "function"
    },
    {
      "inputs": [
        {
          "internalType": "uint256",
          "name": "_n",
          "type": "uint256"
        }
      ],
      "name": "unlockC",
      "outputs": [],
      "stateMutability": "nonpayable",
      "type": "function"
    },
    {
      "inputs": [
        {
          "internalType": "address",
          "name": "_playerContractAddress",
          "type": "address"
        }
      ],
      "name": "playLevel0",
      "outputs": [],
      "stateMutability": "nonpayable",
      "type": "function"
    },
    {
      "inputs": [],
      "name": "playLevel1",
      "outputs": [],
      "stateMutability": "nonpayable",
      "type": "function"
    },
    {
      "inputs": [
        {
          "internalType": "uint256",
          "name": "_n",
          "type": "uint256"
        }
      ],
      "name": "playLevel2",
      "outputs": [],
      "stateMutability": "nonpayable",
      "type": "function"
    },
    {
      "inputs": [
        {
          "internalType": "address",
          "name": "_owner",
          "type": "address"
        }
      ],
      "name": "playLevel3",
      "outputs": [],
      "stateMutability": "nonpayable",
      "type": "function"
    },
    {
      "inputs": [
        {
          "internalType": "address",
          "name": "_playerContractAddress",
          "type": "address"
        }
      ],
      "name": "playLevel4",
      "outputs": [],
      "stateMutability": "nonpayable",
      "type": "function"
    },
    {
      "inputs": [
        {
          "internalType": "uint256",
          "name": "_amount",
          "type": "uint256"
        }
      ],
      "name": "levelUp",
      "outputs": [],
      "stateMutability": "nonpayable",
      "type": "function"
    }
  ],
  "bytecode": "0x60806040526040518060400160405280600f81526020017f4976616e526577617264546f6b656e0000000000000000000000000000000000815250600890805190602001906200005192919062000520565b506040518060400160405280600381526020017f4952540000000000000000000000000000000000000000000000000000000000815250600990805190602001906200009f92919062000520565b506a52b7d2dcc80cd2e4000000600a556000600c60006101000a81548173ffffffffffffffffffffffffffffffffffffffff021916908373ffffffffffffffffffffffffffffffffffffffff16021790555060026013553480156200010357600080fd5b5060088054600181600116156101000203166002900480601f0160208091040260200160405190810160405280929190818152602001828054600181600116156101000203166002900480156200019e5780601f1062000172576101008083540402835291602001916200019e565b820191906000526020600020905b8154815290600101906020018083116200018057829003601f168201915b505050505060098054600181600116156101000203166002900480601f0160208091040260200160405190810160405280929190818152602001828054600181600116156101000203166002900480156200023d5780601f1062000211576101008083540402835291602001916200023d565b820191906000526020600020905b8154815290600101906020018083116200021f57829003601f168201915b505050505081600490805190602001906200025a92919062000520565b5080600590805190602001906200027392919062000520565b506012600660006101000a81548160ff021916908360ff1602179055505050620002ac33670de0b6b3a7640000620002b260201b60201c565b620005cf565b600073ffffffffffffffffffffffffffffffffffffffff168273ffffffffffffffffffffffffffffffffffffffff16141562000356576040517f08c379a000000000000000000000000000000000000000000000000000000000815260040180806020018281038252601f8152602001807f45524332303a206d696e7420746f20746865207a65726f20616464726573730081525060200191505060405180910390fd5b6200036a600083836200049260201b60201c565b62000386816003546200049760201b6200204d1790919060201c565b600381905550620003e581600160008573ffffffffffffffffffffffffffffffffffffffff1673ffffffffffffffffffffffffffffffffffffffff168152602001908152602001600020546200049760201b6200204d1790919060201c565b600160008473ffffffffffffffffffffffffffffffffffffffff1673ffffffffffffffffffffffffffffffffffffffff168152602001908152602001600020819055508173ffffffffffffffffffffffffffffffffffffffff16600073ffffffffffffffffffffffffffffffffffffffff167fddf252ad1be2c89b69c2b068fc378daa952ba7f163c4a11628f55a4df523b3ef836040518082815260200191505060405180910390a35050565b505050565b60008082840190508381101562000516576040517f08c379a000000000000000000000000000000000000000000000000000000000815260040180806020018281038252601b8152602001807f536166654d6174683a206164646974696f6e206f766572666c6f77000000000081525060200191505060405180910390fd5b8091505092915050565b828054600181600116156101000203166002900490600052602060002090601f016020900481019282601f106200056357805160ff191683800117855562000594565b8280016001018555821562000594579182015b828111156200059357825182559160200191906001019062000576565b5b509050620005a39190620005a7565b5090565b620005cc91905b80821115620005c8576000816000905550600101620005ae565b5090565b90565b61390980620005df6000396000f3fe6080604052600436106101cd5760003560e01c806370a08231116100f7578063b147491e11610095578063d764b78f11610064578063d764b78f14610972578063dd62ed3e146109e5578063e2eb41ff14610a6a578063ec45787c14610ada576101cd565b8063b147491e1461087b578063c707def614610892578063c98b384b146108d0578063d5822d2b14610921576101cd565b806395d89b41116100d157806395d89b41146106da578063a457c2d71461076a578063a60b693d146107dd578063a9059cbb14610808576101cd565b806370a082311461060d5780637d15a336146106725780638d52e1df146106c3576101cd565b806327b5db8a1161016f5780634c54e1b51161013e5780634c54e1b5146105135780635245d733146105a4578063534d4ec3146105df5780636c8ae38c146105f6576101cd565b806327b5db8a14610420578063313ce5671461042a578063395093511461045b5780634b77dd9e146104ce576101cd565b806318160ddd116101ab57806318160ddd146103105780632044ea5a1461033b57806323b872dd146103765780632507190a14610409576101cd565b806306fdde03146101d2578063095ea7b3146102625780630ce90ec2146102d5575b600080fd5b3480156101de57600080fd5b506101e7610b3f565b6040518080602001828103825283818151815260200191508051906020019080838360005b8381101561022757808201518184015260208101905061020c565b50505050905090810190601f1680156102545780820380516001836020036101000a031916815260200191505b509250505060405180910390f35b34801561026e57600080fd5b506102bb6004803603604081101561028557600080fd5b81019080803573ffffffffffffffffffffffffffffffffffffffff16906020019092919080359060200190929190505050610be1565b604051808215151515815260200191505060405180910390f35b3480156102e157600080fd5b5061030e600480360360208110156102f857600080fd5b8101908080359060200190929190505050610bff565b005b34801561031c57600080fd5b50610325610d6b565b6040518082815260200191505060405180910390f35b34801561034757600080fd5b506103746004803603602081101561035e57600080fd5b8101908080359060200190929190505050610d75565b005b34801561038257600080fd5b506103ef6004803603606081101561039957600080fd5b81019080803573ffffffffffffffffffffffffffffffffffffffff169060200190929190803573ffffffffffffffffffffffffffffffffffffffff16906020019092919080359060200190929190505050610e89565b604051808215151515815260200191505060405180910390f35b34801561041557600080fd5b5061041e610f62565b005b6104286110c3565b005b34801561043657600080fd5b5061043f61117f565b604051808260ff1660ff16815260200191505060405180910390f35b34801561046757600080fd5b506104b46004803603604081101561047e57600080fd5b81019080803573ffffffffffffffffffffffffffffffffffffffff16906020019092919080359060200190929190505050611196565b604051808215151515815260200191505060405180910390f35b3480156104da57600080fd5b50610511600480360360408110156104f157600080fd5b810190808035906020019092919080359060200190929190505050611249565b005b34801561051f57600080fd5b506105626004803603602081101561053657600080fd5b81019080803573ffffffffffffffffffffffffffffffffffffffff16906020019092919050505061126d565b604051808273ffffffffffffffffffffffffffffffffffffffff1673ffffffffffffffffffffffffffffffffffffffff16815260200191505060405180910390f35b3480156105b057600080fd5b506105dd600480360360208110156105c757600080fd5b81019080803590602001909291905050506112ab565b005b3480156105eb57600080fd5b506105f4611398565b005b34801561060257600080fd5b5061060b611446565b005b34801561061957600080fd5b5061065c6004803603602081101561063057600080fd5b81019080803573ffffffffffffffffffffffffffffffffffffffff1690602001909291905050506114d3565b6040518082815260200191505060405180910390f35b34801561067e57600080fd5b506106c16004803603602081101561069557600080fd5b81019080803573ffffffffffffffffffffffffffffffffffffffff16906020019092919050505061151c565b005b3480156106cf57600080fd5b506106d8611609565b005b3480156106e657600080fd5b506106ef611724565b6040518080602001828103825283818151815260200191508051906020019080838360005b8381101561072f578082015181840152602081019050610714565b50505050905090810190601f16801561075c5780820380516001836020036101000a031916815260200191505b509250505060405180910390f35b34801561077657600080fd5b506107c36004803603604081101561078d57600080fd5b81019080803573ffffffffffffffffffffffffffffffffffffffff169060200190929190803590602001909291905050506117c6565b604051808215151515815260200191505060405180910390f35b3480156107e957600080fd5b506107f2611893565b6040518082815260200191505060405180910390f35b34801561081457600080fd5b506108616004803603604081101561082b57600080fd5b81019080803573ffffffffffffffffffffffffffffffffffffffff1690602001909291908035906020019092919050505061189d565b604051808215151515815260200191505060405180910390f35b34801561088757600080fd5b506108906118bb565b005b34801561089e57600080fd5b506108ce600480360360208110156108b557600080fd5b81019080803560ff1690602001909291905050506119e4565b005b3480156108dc57600080fd5b5061091f600480360360208110156108f357600080fd5b81019080803573ffffffffffffffffffffffffffffffffffffffff169060200190929190505050611b08565b005b34801561092d57600080fd5b506109706004803603602081101561094457600080fd5b81019080803573ffffffffffffffffffffffffffffffffffffffff169060200190929190505050611bf5565b005b34801561097e57600080fd5b506109c16004803603602081101561099557600080fd5b81019080803573ffffffffffffffffffffffffffffffffffffffff169060200190929190505050611cd4565b60405180848152602001838152602001828152602001935050505060405180910390f35b3480156109f157600080fd5b50610a5460048036036040811015610a0857600080fd5b81019080803573ffffffffffffffffffffffffffffffffffffffff169060200190929190803573ffffffffffffffffffffffffffffffffffffffff169060200190929190505050611cfe565b6040518082815260200191505060405180910390f35b348015610a7657600080fd5b50610ab960048036036020811015610a8d57600080fd5b81019080803573ffffffffffffffffffffffffffffffffffffffff169060200190929190505050611d85565b60405180831515151581526020018281526020019250505060405180910390f35b348015610ae657600080fd5b50610b2960048036036020811015610afd57600080fd5b81019080803573ffffffffffffffffffffffffffffffffffffffff169060200190929190505050611db6565b6040518082815260200191505060405180910390f35b606060048054600181600116156101000203166002900480601f016020809104026020016040519081016040528092919081815260200182805460018160011615610100020316600290048015610bd75780601f10610bac57610100808354040283529160200191610bd7565b820191906000526020600020905b815481529060010190602001808311610bba57829003601f168201915b5050505050905090565b6000610bf5610bee611dce565b8484611dd6565b6001905092915050565b600115156000803373ffffffffffffffffffffffffffffffffffffffff1673ffffffffffffffffffffffffffffffffffffffff16815260200190815260200160002060000160009054906101000a900460ff16151514610cc7576040517f08c379a000000000000000000000000000000000000000000000000000000000815260040180806020018281038252600e8152602001807f4e6f207375636820706c6179657200000000000000000000000000000000000081525060200191505060405180910390fd5b670de0b6b3a7640000811015610cdc57600080fd5b6000610ce782611fcd565b9050610cf281612012565b610cfb57600080fd5b6000670de0b6b3a76400008281610d0e57fe5b049050610d65816000803373ffffffffffffffffffffffffffffffffffffffff1673ffffffffffffffffffffffffffffffffffffffff1681526020019081526020016000206001015461204d90919063ffffffff16565b50505050565b6000600354905090565b6000600e60003373ffffffffffffffffffffffffffffffffffffffff1673ffffffffffffffffffffffffffffffffffffffff16815260200190815260200160002060009054906101000a900460ff1660ff161415610dd257600080fd5b601160003373ffffffffffffffffffffffffffffffffffffffff1673ffffffffffffffffffffffffffffffffffffffff168152602001908152602001600020548114610e2557610e20611446565b610e86565b610e2d6120d5565b6001600f60003373ffffffffffffffffffffffffffffffffffffffff1673ffffffffffffffffffffffffffffffffffffffff16815260200190815260200160002060006101000a81548160ff0219169083151502179055505b50565b6000610e9684848461211f565b610f5784610ea2611dce565b610f52856040518060600160405280602881526020016137d960289139600260008b73ffffffffffffffffffffffffffffffffffffffff1673ffffffffffffffffffffffffffffffffffffffff1681526020019081526020016000206000610f08611dce565b73ffffffffffffffffffffffffffffffffffffffff1673ffffffffffffffffffffffffffffffffffffffff168152602001908152602001600020546123e49092919063ffffffff16565b611dd6565b600190509392505050565b6000610f6c6124a4565b9050610f78308261260e565b610fcd81600760003373ffffffffffffffffffffffffffffffffffffffff1673ffffffffffffffffffffffffffffffffffffffff1681526020019081526020016000206002015461204d90919063ffffffff16565b600760003373ffffffffffffffffffffffffffffffffffffffff1673ffffffffffffffffffffffffffffffffffffffff168152602001908152602001600020600201819055506000600760003373ffffffffffffffffffffffffffffffffffffffff1673ffffffffffffffffffffffffffffffffffffffff168152602001908152602001600020600201549050600760003373ffffffffffffffffffffffffffffffffffffffff1673ffffffffffffffffffffffffffffffffffffffff1681526020019081526020016000206000808201600090556001820160009055600282016000905550506110be338261189d565b505050565b670de0b6b3a76400003414611123576040517f08c379a00000000000000000000000000000000000000000000000000000000081526004018080602001828103825260238152602001806138436023913960400191505060405180910390fd5b60016000803373ffffffffffffffffffffffffffffffffffffffff1673ffffffffffffffffffffffffffffffffffffffff16815260200190815260200160002060000160006101000a81548160ff021916908315150217905550565b6000600660009054906101000a900460ff16905090565b600061123f6111a3611dce565b8461123a85600260006111b4611dce565b73ffffffffffffffffffffffffffffffffffffffff1673ffffffffffffffffffffffffffffffffffffffff16815260200190815260200160002060008973ffffffffffffffffffffffffffffffffffffffff1673ffffffffffffffffffffffffffffffffffffffff1681526020019081526020016000205461204d90919063ffffffff16565b611dd6565b6001905092915050565b6112533083611196565b5061125e308361189d565b5061126982826127d7565b5050565b600b6020528060005260406000206000915090508060000160009054906101000a900473ffffffffffffffffffffffffffffffffffffffff16905081565b600115156000803373ffffffffffffffffffffffffffffffffffffffff1673ffffffffffffffffffffffffffffffffffffffff16815260200190815260200160002060000160009054906101000a900460ff16151514611373576040517f08c379a000000000000000000000000000000000000000000000000000000000815260040180806020018281038252600e8152602001807f4e6f207375636820706c6179657200000000000000000000000000000000000081525060200191505060405180910390fd5b600061137e826128c7565b90508061138a57600080fd5b6113946002612958565b5050565b67016345785d8a0000601060003373ffffffffffffffffffffffffffffffffffffffff1673ffffffffffffffffffffffffffffffffffffffff16815260200190815260200160002054116113eb57600080fd5b6032600d60003373ffffffffffffffffffffffffffffffffffffffff1673ffffffffffffffffffffffffffffffffffffffff16815260200190815260200160002060006101000a81548160ff021916908360ff160217905550565b600060ff428161145257fe5b06905080601160003373ffffffffffffffffffffffffffffffffffffffff1673ffffffffffffffffffffffffffffffffffffffff168152602001908152602001600020819055507fb863bd3729546d4186efd003c567348f9deb7087f4632b9046c39adb8008c19f816040518082815260200191505060405180910390a150565b6000600160008373ffffffffffffffffffffffffffffffffffffffff1673ffffffffffffffffffffffffffffffffffffffff168152602001908152602001600020549050919050565b600115156000803373ffffffffffffffffffffffffffffffffffffffff1673ffffffffffffffffffffffffffffffffffffffff16815260200190815260200160002060000160009054906101000a900460ff161515146115e4576040517f08c379a000000000000000000000000000000000000000000000000000000000815260040180806020018281038252600e8152602001807f4e6f207375636820706c6179657200000000000000000000000000000000000081525060200191505060405180910390fd5b60006115ef82612aa9565b9050806115fb57600080fd5b6116056004612958565b5050565b600115156000803373ffffffffffffffffffffffffffffffffffffffff1673ffffffffffffffffffffffffffffffffffffffff16815260200190815260200160002060000160009054906101000a900460ff161515146116d1576040517f08c379a000000000000000000000000000000000000000000000000000000000815260040180806020018281038252600e8152602001807f4e6f207375636820706c6179657200000000000000000000000000000000000081525060200191505060405180910390fd5b6000803373ffffffffffffffffffffffffffffffffffffffff1673ffffffffffffffffffffffffffffffffffffffff16815260200190815260200160002060000160006101000a81549060ff0219169055565b606060058054600181600116156101000203166002900480601f0160208091040260200160405190810160405280929190818152602001828054600181600116156101000203166002900480156117bc5780601f10611791576101008083540402835291602001916117bc565b820191906000526020600020905b81548152906001019060200180831161179f57829003601f168201915b5050505050905090565b60006118896117d3611dce565b84611884856040518060600160405280602581526020016138af60259139600260006117fd611dce565b73ffffffffffffffffffffffffffffffffffffffff1673ffffffffffffffffffffffffffffffffffffffff16815260200190815260200160002060008a73ffffffffffffffffffffffffffffffffffffffff1673ffffffffffffffffffffffffffffffffffffffff168152602001908152602001600020546123e49092919063ffffffff16565b611dd6565b6001905092915050565b6000600a54905090565b60006118b16118aa611dce565b848461211f565b6001905092915050565b600115156000803373ffffffffffffffffffffffffffffffffffffffff1673ffffffffffffffffffffffffffffffffffffffff16815260200190815260200160002060000160009054906101000a900460ff16151514611983576040517f08c379a000000000000000000000000000000000000000000000000000000000815260040180806020018281038252600e8152602001807f4e6f207375636820706c6179657200000000000000000000000000000000000081525060200191505060405180910390fd5b42601260003373ffffffffffffffffffffffffffffffffffffffff1673ffffffffffffffffffffffffffffffffffffffff16815260200190815260200160002054106119d8576119d36001612958565b6119e2565b6119e133612d6d565b5b565b600d60003373ffffffffffffffffffffffffffffffffffffffff1673ffffffffffffffffffffffffffffffffffffffff16815260200190815260200160002060009054906101000a900460ff1660ff168160ff1610611a4257600080fd5b60008160ff16600d60003373ffffffffffffffffffffffffffffffffffffffff1673ffffffffffffffffffffffffffffffffffffffff16815260200190815260200160002060009054906101000a900460ff1660ff1681611a9f57fe5b0660ff1614611aad57600080fd5b80600e60003373ffffffffffffffffffffffffffffffffffffffff1673ffffffffffffffffffffffffffffffffffffffff16815260200190815260200160002060006101000a81548160ff021916908360ff16021790555050565b600115156000803373ffffffffffffffffffffffffffffffffffffffff1673ffffffffffffffffffffffffffffffffffffffff16815260200190815260200160002060000160009054906101000a900460ff16151514611bd0576040517f08c379a000000000000000000000000000000000000000000000000000000000815260040180806020018281038252600e8152602001807f4e6f207375636820706c6179657200000000000000000000000000000000000081525060200191505060405180910390fd5b6000611bdb82612ee3565b905080611be757600080fd5b611bf16003612958565b5050565b600115156000803373ffffffffffffffffffffffffffffffffffffffff1673ffffffffffffffffffffffffffffffffffffffff16815260200190815260200160002060000160009054906101000a900460ff16151514611cbd576040517f08c379a000000000000000000000000000000000000000000000000000000000815260040180806020018281038252600e8152602001807f4e6f207375636820706c6179657200000000000000000000000000000000000081525060200191505060405180910390fd5b611cc681612f93565b50611cd16000612958565b50565b60076020528060005260406000206000915090508060000154908060010154908060020154905083565b6000600260008473ffffffffffffffffffffffffffffffffffffffff1673ffffffffffffffffffffffffffffffffffffffff16815260200190815260200160002060008373ffffffffffffffffffffffffffffffffffffffff1673ffffffffffffffffffffffffffffffffffffffff16815260200190815260200160002054905092915050565b60006020528060005260406000206000915090508060000160009054906101000a900460ff16908060010154905082565b60126020528060005260406000206000915090505481565b600033905090565b600073ffffffffffffffffffffffffffffffffffffffff168373ffffffffffffffffffffffffffffffffffffffff161415611e5c576040517f08c379a000000000000000000000000000000000000000000000000000000000815260040180806020018281038252602481526020018061388b6024913960400191505060405180910390fd5b600073ffffffffffffffffffffffffffffffffffffffff168273ffffffffffffffffffffffffffffffffffffffff161415611ee2576040517f08c379a00000000000000000000000000000000000000000000000000000000081526004018080602001828103825260228152602001806137706022913960400191505060405180910390fd5b80600260008573ffffffffffffffffffffffffffffffffffffffff1673ffffffffffffffffffffffffffffffffffffffff16815260200190815260200160002060008473ffffffffffffffffffffffffffffffffffffffff1673ffffffffffffffffffffffffffffffffffffffff168152602001908152602001600020819055508173ffffffffffffffffffffffffffffffffffffffff168373ffffffffffffffffffffffffffffffffffffffff167f8c5be1e5ebec7d5bd14f71427d1e84f3dd0314c0f7b2291e5b200ac8c7c3b925836040518082815260200191505060405180910390a3505050565b600080670de0b6b3a7640000905060008190505b60011561200a578181018410611ffb578181019050612005565b809250505061200d565b611fe1565b50505b919050565b600061201e3083611196565b506120293383613240565b61203e82600a5461340690919063ffffffff16565b600a8190555060019050919050565b6000808284019050838110156120cb576040517f08c379a000000000000000000000000000000000000000000000000000000000815260040180806020018281038252601b8152602001807f536166654d6174683a206164646974696f6e206f766572666c6f77000000000081525060200191505060405180910390fd5b8091505092915050565b61012c4201601260003373ffffffffffffffffffffffffffffffffffffffff1673ffffffffffffffffffffffffffffffffffffffff16815260200190815260200160002081905550565b600073ffffffffffffffffffffffffffffffffffffffff168373ffffffffffffffffffffffffffffffffffffffff1614156121a5576040517f08c379a00000000000000000000000000000000000000000000000000000000081526004018080602001828103825260258152602001806138666025913960400191505060405180910390fd5b600073ffffffffffffffffffffffffffffffffffffffff168273ffffffffffffffffffffffffffffffffffffffff16141561222b576040517f08c379a000000000000000000000000000000000000000000000000000000000815260040180806020018281038252602381526020018061372b6023913960400191505060405180910390fd5b612236838383613450565b6122a28160405180606001604052806026815260200161379260269139600160008773ffffffffffffffffffffffffffffffffffffffff1673ffffffffffffffffffffffffffffffffffffffff168152602001908152602001600020546123e49092919063ffffffff16565b600160008573ffffffffffffffffffffffffffffffffffffffff1673ffffffffffffffffffffffffffffffffffffffff1681526020019081526020016000208190555061233781600160008573ffffffffffffffffffffffffffffffffffffffff1673ffffffffffffffffffffffffffffffffffffffff1681526020019081526020016000205461204d90919063ffffffff16565b600160008473ffffffffffffffffffffffffffffffffffffffff1673ffffffffffffffffffffffffffffffffffffffff168152602001908152602001600020819055508173ffffffffffffffffffffffffffffffffffffffff168373ffffffffffffffffffffffffffffffffffffffff167fddf252ad1be2c89b69c2b068fc378daa952ba7f163c4a11628f55a4df523b3ef836040518082815260200191505060405180910390a3505050565b6000838311158290612491576040517f08c379a00000000000000000000000000000000000000000000000000000000081526004018080602001828103825283818151815260200191508051906020019080838360005b8381101561245657808201518184015260208101905061243b565b50505050905090810190601f1680156124835780820380516001836020036101000a031916815260200191505b509250505060405180910390fd5b5060008385039050809150509392505050565b600042600760003373ffffffffffffffffffffffffffffffffffffffff1673ffffffffffffffffffffffffffffffffffffffff1681526020019081526020016000206001015410156124f557600080fd5b60006125a362015180612595600760003373ffffffffffffffffffffffffffffffffffffffff1673ffffffffffffffffffffffffffffffffffffffff16815260200190815260200160002060000154600760003373ffffffffffffffffffffffffffffffffffffffff1673ffffffffffffffffffffffffffffffffffffffff1681526020019081526020016000206001015461340690919063ffffffff16565b61345590919063ffffffff16565b905060008161016d6064600a600760003373ffffffffffffffffffffffffffffffffffffffff1673ffffffffffffffffffffffffffffffffffffffff1681526020019081526020016000206002015402816125fa57fe5b048161260257fe5b04029050809250505090565b600073ffffffffffffffffffffffffffffffffffffffff168273ffffffffffffffffffffffffffffffffffffffff1614156126b1576040517f08c379a000000000000000000000000000000000000000000000000000000000815260040180806020018281038252601f8152602001807f45524332303a206d696e7420746f20746865207a65726f20616464726573730081525060200191505060405180910390fd5b6126bd60008383613450565b6126d28160035461204d90919063ffffffff16565b60038190555061272a81600160008573ffffffffffffffffffffffffffffffffffffffff1673ffffffffffffffffffffffffffffffffffffffff1681526020019081526020016000205461204d90919063ffffffff16565b600160008473ffffffffffffffffffffffffffffffffffffffff1673ffffffffffffffffffffffffffffffffffffffff168152602001908152602001600020819055508173ffffffffffffffffffffffffffffffffffffffff16600073ffffffffffffffffffffffffffffffffffffffff167fddf252ad1be2c89b69c2b068fc378daa952ba7f163c4a11628f55a4df523b3ef836040518082815260200191505060405180910390a35050565b42600760003373ffffffffffffffffffffffffffffffffffffffff1673ffffffffffffffffffffffffffffffffffffffff16815260200190815260200160002060000181905550612834620151808261349f90919063ffffffff16565b4201600760003373ffffffffffffffffffffffffffffffffffffffff1673ffffffffffffffffffffffffffffffffffffffff1681526020019081526020016000206001018190555081600760003373ffffffffffffffffffffffffffffffffffffffff1673ffffffffffffffffffffffffffffffffffffffff168152602001908152602001600020600201819055505050565b600080821180156128dd57506013546013548302105b61294f576040517f08c379a00000000000000000000000000000000000000000000000000000000081526004018080602001828103825260068152602001807f6661696c6564000000000000000000000000000000000000000000000000000081525060200191505060405180910390fd5b60019050919050565b612969678ac7230489e80000613525565b60008090505b6000803373ffffffffffffffffffffffffffffffffffffffff1673ffffffffffffffffffffffffffffffffffffffff16815260200190815260200160002060020180549050811015612a2b57816000803373ffffffffffffffffffffffffffffffffffffffff1673ffffffffffffffffffffffffffffffffffffffff1681526020019081526020016000206002018281548110612a0857fe5b90600052602060002001541415612a1e57600080fd5b808060010191505061296f565b506000803373ffffffffffffffffffffffffffffffffffffffff1673ffffffffffffffffffffffffffffffffffffffff168152602001908152602001600020600201819080600181540180825580915050600190039060005260206000200160009091909190915055612aa633678ac7230489e8000061260e565b50565b60008082905060008173ffffffffffffffffffffffffffffffffffffffff166395d89b416040518163ffffffff1660e01b815260040160006040518083038186803b158015612af757600080fd5b505afa158015612b0b573d6000803e3d6000fd5b505050506040513d6000823e3d601f19601f820116820180604052506020811015612b3557600080fd5b8101908080516040519392919084640100000000821115612b5557600080fd5b83820191506020820185811115612b6b57600080fd5b8251866001820283011164010000000082111715612b8857600080fd5b8083526020830192505050908051906020019080838360005b83811015612bbc578082015181840152602081019050612ba1565b50505050905090810190601f168015612be95780820380516001836020036101000a031916815260200191505b506040525050506040516020018082805190602001908083835b60208310612c265780518252602082019150602081019050602083039250612c03565b6001836020036101000a03801982511681845116808217855250505050505090500191505060405160208183030381529060405280519060200120905060008273ffffffffffffffffffffffffffffffffffffffff166370a08231306040518263ffffffff1660e01b8152600401808273ffffffffffffffffffffffffffffffffffffffff1673ffffffffffffffffffffffffffffffffffffffff16815260200191505060206040518083038186803b158015612ce257600080fd5b505afa158015612cf6573d6000803e3d6000fd5b505050506040513d6020811015612d0c57600080fd5b810190808051906020019092919050505090507f27fd9bb70fcea8125f7e0ba4eaeda4fb5ff28f5535e452dc1b70a42f567f4d7560001b82148015612d585750670de0b6b3a764000081145b612d6157600080fd5b60019350505050919050565b600d60008273ffffffffffffffffffffffffffffffffffffffff1673ffffffffffffffffffffffffffffffffffffffff16815260200190815260200160002060006101000a81549060ff0219169055600e60008273ffffffffffffffffffffffffffffffffffffffff1673ffffffffffffffffffffffffffffffffffffffff16815260200190815260200160002060006101000a81549060ff0219169055600f60008273ffffffffffffffffffffffffffffffffffffffff1673ffffffffffffffffffffffffffffffffffffffff16815260200190815260200160002060006101000a81549060ff0219169055601160008273ffffffffffffffffffffffffffffffffffffffff1673ffffffffffffffffffffffffffffffffffffffff16815260200190815260200160002060009055601260008273ffffffffffffffffffffffffffffffffffffffff1673ffffffffffffffffffffffffffffffffffffffff1681526020019081526020016000206000905550565b600080612eef836135b9565b90507f61251af2a34c4b856276127a6d85e236c257545c8bd5011ac4f0c05c15327a7d60001b8114612f89576040517f08c379a000000000000000000000000000000000000000000000000000000000815260040180806020018281038252600c8152602001807f6e6f74206d61746368696e67000000000000000000000000000000000000000081525060200191505060405180910390fd5b6001915050919050565b6000612f9e82613618565b612fa661365c565b600b60003373ffffffffffffffffffffffffffffffffffffffff1673ffffffffffffffffffffffffffffffffffffffff16815260200190815260200160002060000160006101000a81548173ffffffffffffffffffffffffffffffffffffffff021916908373ffffffffffffffffffffffffffffffffffffffff160217905550600c60009054906101000a900473ffffffffffffffffffffffffffffffffffffffff1673ffffffffffffffffffffffffffffffffffffffff166361dfdae6600b60003373ffffffffffffffffffffffffffffffffffffffff1673ffffffffffffffffffffffffffffffffffffffff16815260200190815260200160002060000160009054906101000a900473ffffffffffffffffffffffffffffffffffffffff166040518263ffffffff1660e01b8152600401808273ffffffffffffffffffffffffffffffffffffffff1673ffffffffffffffffffffffffffffffffffffffff168152602001915050602060405180830381600087803b15801561312957600080fd5b505af115801561313d573d6000803e3d6000fd5b505050506040513d602081101561315357600080fd5b8101908080519060200190929190505050506000600b60003373ffffffffffffffffffffffffffffffffffffffff1673ffffffffffffffffffffffffffffffffffffffff16815260200190815260200160002060000160009054906101000a900473ffffffffffffffffffffffffffffffffffffffff1673ffffffffffffffffffffffffffffffffffffffff163111613237576040517f08c379a00000000000000000000000000000000000000000000000000000000081526004018080602001828103825260218152602001806138016021913960400191505060405180910390fd5b60019050919050565b600073ffffffffffffffffffffffffffffffffffffffff168273ffffffffffffffffffffffffffffffffffffffff1614156132c6576040517f08c379a00000000000000000000000000000000000000000000000000000000081526004018080602001828103825260218152602001806138226021913960400191505060405180910390fd5b6132d282600083613450565b61333e8160405180606001604052806022815260200161374e60229139600160008673ffffffffffffffffffffffffffffffffffffffff1673ffffffffffffffffffffffffffffffffffffffff168152602001908152602001600020546123e49092919063ffffffff16565b600160008473ffffffffffffffffffffffffffffffffffffffff1673ffffffffffffffffffffffffffffffffffffffff168152602001908152602001600020819055506133968160035461340690919063ffffffff16565b600381905550600073ffffffffffffffffffffffffffffffffffffffff168273ffffffffffffffffffffffffffffffffffffffff167fddf252ad1be2c89b69c2b068fc378daa952ba7f163c4a11628f55a4df523b3ef836040518082815260200191505060405180910390a35050565b600061344883836040518060400160405280601e81526020017f536166654d6174683a207375627472616374696f6e206f766572666c6f7700008152506123e4565b905092915050565b505050565b600061349783836040518060400160405280601a81526020017f536166654d6174683a206469766973696f6e206279207a65726f000000000000815250613664565b905092915050565b6000808314156134b2576000905061351f565b60008284029050828482816134c357fe5b041461351a576040517f08c379a00000000000000000000000000000000000000000000000000000000081526004018080602001828103825260218152602001806137b86021913960400191505060405180910390fd5b809150505b92915050565b600a5461354282613534610d6b565b61204d90919063ffffffff16565b11156135b6576040517f08c379a000000000000000000000000000000000000000000000000000000000815260040180806020018281038252601a8152602001807f436170206f7665726c6f772c206d696e7420726576657273656400000000000081525060200191505060405180910390fd5b50565b600081604051602001808273ffffffffffffffffffffffffffffffffffffffff1673ffffffffffffffffffffffffffffffffffffffff1660601b8152601401915050604051602081830303815290604052805190602001209050919050565b80600c60006101000a81548173ffffffffffffffffffffffffffffffffffffffff021916908373ffffffffffffffffffffffffffffffffffffffff16021790555050565b600042905090565b60008083118290613710576040517f08c379a00000000000000000000000000000000000000000000000000000000081526004018080602001828103825283818151815260200191508051906020019080838360005b838110156136d55780820151818401526020810190506136ba565b50505050905090810190601f1680156137025780820380516001836020036101000a031916815260200191505b509250505060405180910390fd5b50600083858161371c57fe5b04905080915050939250505056fe45524332303a207472616e7366657220746f20746865207a65726f206164647265737345524332303a206275726e20616d6f756e7420657863656564732062616c616e636545524332303a20617070726f766520746f20746865207a65726f206164647265737345524332303a207472616e7366657220616d6f756e7420657863656564732062616c616e6365536166654d6174683a206d756c7469706c69636174696f6e206f766572666c6f7745524332303a207472616e7366657220616d6f756e74206578636565647320616c6c6f77616e63655461726765742062616c616e63652073686f756c64206265203e207468616e203045524332303a206275726e2066726f6d20746865207a65726f206164647265737352656769737465722061206e657720706c6179657220636f737473203120657468657245524332303a207472616e736665722066726f6d20746865207a65726f206164647265737345524332303a20617070726f76652066726f6d20746865207a65726f206164647265737345524332303a2064656372656173656420616c6c6f77616e63652062656c6f77207a65726fa26469706673582212202320f8acd9c065f12ab2bb96daff07847ae1398e14589889356db440d2ee65b764736f6c63430006020033",
  "source": "import \"./utils/Imports.sol\";\nimport \"../Game_Controls/Players.sol\";\nimport \"../Game_Controls/Bank.sol\";\nimport \"@openzeppelin/contracts/math/SafeMath.sol\";\n\n/**\n* @dev Player must registere itself to play.\n*      Player must call addPlayer().\n*/\n\npragma solidity 0.6.2;\n\ncontract Main is Players, Bank, Imports {\n\n  using SafeMath for uint256;\n\n  uint256 constant rewardAmount = 10 ** 19; // 10 tokens\n\n  constructor () Bank() public {}\n\n  /**\n  * @dev Contract can be found in Game > Levels > Level_0.\n  *      lvl = 0;\n  */\n  function playLevel0 (address _playerContractAddress) public onlyPlayer {\n    ent_0(_playerContractAddress);\n    canPay(0);\n  }\n\n  /**\n  * @dev Contract can be found in Game > Levels > Level_1.\n  *      lvl = 1;\n  */\n  function playLevel1 () public onlyPlayer {\n    if (timer[msg.sender] >= now) {\n      canPay(1);\n    } else {\n      reset (msg.sender);\n    }\n  }\n\n  /**\n  * @dev Contract can be found in Game > Levels > Level_2.\n  *      lvl = 2;\n  */\n  function playLevel2 (uint256 _n) public onlyPlayer {\n    bool check;\n    check = go(_n);\n    require (check);\n    canPay(2);\n  }\n\n  /**\n  * @dev Contract can be found in Game > Levels > Level_3.\n  *      lvl = 3;\n  */\n  function playLevel3 (address _owner) public onlyPlayer {\n    bool check;\n    check = findIt(_owner);\n    require (check);\n    canPay(3);\n  }\n\n  /**\n  * @dev Contract can be found in Game > Levels > Level_4.\n  *      lvl = 4;\n  */\n  function playLevel4 (address _playerContractAddress) public onlyPlayer {\n    bool check;\n    check = playERC(_playerContractAddress);\n    require (check);\n    canPay(4);\n  }\n\n  /**\n  * @dev Verify that the _lvlN is not completed already.\n  *      Each time a level is completed and the IRT token is mint,\n  *      completedLevels get the _lvlN pushed.\n  *      It avoids muiltiple minting for the same level.\n  * @notice verifyCapOverflow() makes sure that no token is minted if\n  *         it overflows total token cap.\n  */\n  function canPay (uint256 _lvlN) private {\n    verifyCapOverflow(rewardAmount);\n    for (uint256 i=0;i<players[msg.sender].completeLevels.length;i++){\n      if(players[msg.sender].completeLevels[i]==_lvlN){revert();}\n    }\n    players[msg.sender].completeLevels.push(_lvlN);\n    _mint (msg.sender,rewardAmount);\n  }\n\n  /**\n  * @dev Each IRT grants 1 level.\n  * @param _amount Has to be 10 ** 18 or mutiple.\n  * @notice _amount 1.2 IRT will result in 1 ERT burnt.\n  */\n  function levelUp (uint256 _amount) public onlyPlayer {\n    require (_amount >= 10 ** 18);\n    uint256 amountToBurn = isMultiple(_amount);\n    require (burnIRT(amountToBurn));\n    uint256 increase = amountToBurn / 10 ** 18;\n    players[msg.sender].playerLevel.add(increase);\n  }\n\n}\n",
  "sourcePath": "/Users/dan/Documents/Coding/Solidity/New_Projects/Contracts/IotDevsGame/contracts/Game/Main.sol",
  "compiler": {
    "name": "solc",
    "version": "0.6.2+commit.bacdbe57.Emscripten.clang"
  },
  "schemaVersion": "3.2.2",
  "updatedAt": "2020-09-14T13:59:40.038Z",
  "networkType": "ethereum",
  "devdoc": {
    "methods": {
      "addPlayer()": {
        "details": "Enable a new player."
      },
      "allowance(address,address)": {
        "details": "See {IERC20-allowance}."
      },
      "approve(address,uint256)": {
        "details": "See {IERC20-approve}.     * Requirements:     * - `spender` cannot be the zero address."
      },
      "balanceOf(address)": {
        "details": "See {IERC20-balanceOf}."
      },
      "decimals()": {
        "details": "Returns the number of decimals used to get its user representation. For example, if `decimals` equals `2`, a balance of `505` tokens should be displayed to a user as `5,05` (`505 / 10 ** 2`).     * Tokens usually opt for a value of 18, imitating the relationship between Ether and Wei. This is the value {ERC20} uses, unless {_setupDecimals} is called.     * NOTE: This information is only used for _display_ purposes: it in no way affects any of the arithmetic of the contract, including {IERC20-balanceOf} and {IERC20-transfer}."
      },
      "decreaseAllowance(address,uint256)": {
        "details": "Atomically decreases the allowance granted to `spender` by the caller.     * This is an alternative to {approve} that can be used as a mitigation for problems described in {IERC20-approve}.     * Emits an {Approval} event indicating the updated allowance.     * Requirements:     * - `spender` cannot be the zero address. - `spender` must have allowance for the caller of at least `subtractedValue`."
      },
      "getTotalCap()": {
        "details": "Returns the total IRT cap."
      },
      "increaseAllowance(address,uint256)": {
        "details": "Atomically increases the allowance granted to `spender` by the caller.     * This is an alternative to {approve} that can be used as a mitigation for problems described in {IERC20-approve}.     * Emits an {Approval} event indicating the updated allowance.     * Requirements:     * - `spender` cannot be the zero address."
      },
      "levelUp(uint256)": {
        "details": "Each IRT grants 1 level.",
        "params": {
          "_amount": "Has to be 10 ** 18 or mutiple."
        }
      },
      "name()": {
        "details": "Returns the name of the token."
      },
      "playLevel0(address)": {
        "details": "Contract can be found in Game > Levels > Level_0.     lvl = 0;"
      },
      "playLevel1()": {
        "details": "Contract can be found in Game > Levels > Level_1.     lvl = 1;"
      },
      "playLevel2(uint256)": {
        "details": "Contract can be found in Game > Levels > Level_2.     lvl = 2;"
      },
      "playLevel3(address)": {
        "details": "Contract can be found in Game > Levels > Level_3.     lvl = 3;"
      },
      "playLevel4(address)": {
        "details": "Contract can be found in Game > Levels > Level_4.     lvl = 4;"
      },
      "removePlayer()": {
        "details": "A player can disable itself."
      },
      "symbol()": {
        "details": "Returns the symbol of the token, usually a shorter version of the name."
      },
      "totalSupply()": {
        "details": "See {IERC20-totalSupply}."
      },
      "transfer(address,uint256)": {
        "details": "See {IERC20-transfer}.     * Requirements:     * - `recipient` cannot be the zero address. - the caller must have a balance of at least `amount`."
      },
      "transferFrom(address,address,uint256)": {
        "details": "See {IERC20-transferFrom}.     * Emits an {Approval} event indicating the updated allowance. This is not required by the EIP. See the note at the beginning of {ERC20};     * Requirements: - `sender` and `recipient` cannot be the zero address. - `sender` must have a balance of at least `amount`. - the caller must have allowance for ``sender``'s tokens of at least `amount`."
      }
    }
  },
  "userdoc": {
    "methods": {
      "addPlayer()": {
        "notice": "Registration cost is 1 ether."
      },
      "levelUp(uint256)": {
        "notice": "_amount 1.2 IRT will result in 1 ERT burnt."
      }
    }
  }
}