{
  "contractName": "Main",
  "abi": [
    {
      "inputs": [
        {
          "internalType": "address[]",
          "name": "_levels",
          "type": "address[]"
        }
      ],
      "stateMutability": "nonpayable",
      "type": "constructor"
    },
    {
      "anonymous": false,
      "inputs": [
        {
          "indexed": true,
          "internalType": "address",
          "name": "owner",
          "type": "address"
        },
        {
          "indexed": true,
          "internalType": "address",
          "name": "spender",
          "type": "address"
        },
        {
          "indexed": false,
          "internalType": "uint256",
          "name": "value",
          "type": "uint256"
        }
      ],
      "name": "Approval",
      "type": "event"
    },
    {
      "anonymous": false,
      "inputs": [
        {
          "indexed": true,
          "internalType": "address",
          "name": "previousOwner",
          "type": "address"
        },
        {
          "indexed": true,
          "internalType": "address",
          "name": "newOwner",
          "type": "address"
        }
      ],
      "name": "OwnershipTransferred",
      "type": "event"
    },
    {
      "anonymous": false,
      "inputs": [
        {
          "indexed": true,
          "internalType": "address",
          "name": "from",
          "type": "address"
        },
        {
          "indexed": true,
          "internalType": "address",
          "name": "to",
          "type": "address"
        },
        {
          "indexed": false,
          "internalType": "uint256",
          "name": "value",
          "type": "uint256"
        }
      ],
      "name": "Transfer",
      "type": "event"
    },
    {
      "inputs": [
        {
          "internalType": "address",
          "name": "",
          "type": "address"
        }
      ],
      "name": "activeLevel",
      "outputs": [
        {
          "internalType": "bool",
          "name": "",
          "type": "bool"
        }
      ],
      "stateMutability": "view",
      "type": "function",
      "constant": true
    },
    {
      "inputs": [],
      "name": "addPlayer",
      "outputs": [],
      "stateMutability": "payable",
      "type": "function",
      "payable": true
    },
    {
      "inputs": [
        {
          "internalType": "address",
          "name": "owner",
          "type": "address"
        },
        {
          "internalType": "address",
          "name": "spender",
          "type": "address"
        }
      ],
      "name": "allowance",
      "outputs": [
        {
          "internalType": "uint256",
          "name": "",
          "type": "uint256"
        }
      ],
      "stateMutability": "view",
      "type": "function",
      "constant": true
    },
    {
      "inputs": [
        {
          "internalType": "address",
          "name": "spender",
          "type": "address"
        },
        {
          "internalType": "uint256",
          "name": "amount",
          "type": "uint256"
        }
      ],
      "name": "approve",
      "outputs": [
        {
          "internalType": "bool",
          "name": "",
          "type": "bool"
        }
      ],
      "stateMutability": "nonpayable",
      "type": "function"
    },
    {
      "inputs": [
        {
          "internalType": "address",
          "name": "account",
          "type": "address"
        }
      ],
      "name": "balanceOf",
      "outputs": [
        {
          "internalType": "uint256",
          "name": "",
          "type": "uint256"
        }
      ],
      "stateMutability": "view",
      "type": "function",
      "constant": true
    },
    {
      "inputs": [],
      "name": "decimals",
      "outputs": [
        {
          "internalType": "uint8",
          "name": "",
          "type": "uint8"
        }
      ],
      "stateMutability": "view",
      "type": "function",
      "constant": true
    },
    {
      "inputs": [
        {
          "internalType": "address",
          "name": "spender",
          "type": "address"
        },
        {
          "internalType": "uint256",
          "name": "subtractedValue",
          "type": "uint256"
        }
      ],
      "name": "decreaseAllowance",
      "outputs": [
        {
          "internalType": "bool",
          "name": "",
          "type": "bool"
        }
      ],
      "stateMutability": "nonpayable",
      "type": "function"
    },
    {
      "inputs": [],
      "name": "endStaking",
      "outputs": [],
      "stateMutability": "nonpayable",
      "type": "function"
    },
    {
      "inputs": [],
      "name": "getTotalCap",
      "outputs": [
        {
          "internalType": "uint256",
          "name": "",
          "type": "uint256"
        }
      ],
      "stateMutability": "view",
      "type": "function",
      "constant": true
    },
    {
      "inputs": [
        {
          "internalType": "address",
          "name": "spender",
          "type": "address"
        },
        {
          "internalType": "uint256",
          "name": "addedValue",
          "type": "uint256"
        }
      ],
      "name": "increaseAllowance",
      "outputs": [
        {
          "internalType": "bool",
          "name": "",
          "type": "bool"
        }
      ],
      "stateMutability": "nonpayable",
      "type": "function"
    },
    {
      "inputs": [],
      "name": "mintLotsOfTokens",
      "outputs": [],
      "stateMutability": "nonpayable",
      "type": "function"
    },
    {
      "inputs": [],
      "name": "name",
      "outputs": [
        {
          "internalType": "string",
          "name": "",
          "type": "string"
        }
      ],
      "stateMutability": "view",
      "type": "function",
      "constant": true
    },
    {
      "inputs": [],
      "name": "owner",
      "outputs": [
        {
          "internalType": "address",
          "name": "",
          "type": "address"
        }
      ],
      "stateMutability": "view",
      "type": "function",
      "constant": true
    },
    {
      "inputs": [
        {
          "internalType": "address",
          "name": "",
          "type": "address"
        }
      ],
      "name": "players",
      "outputs": [
        {
          "internalType": "uint256",
          "name": "playerLevel",
          "type": "uint256"
        },
        {
          "internalType": "bool",
          "name": "isPlayer",
          "type": "bool"
        }
      ],
      "stateMutability": "view",
      "type": "function",
      "constant": true
    },
    {
      "inputs": [],
      "name": "removePlayer",
      "outputs": [],
      "stateMutability": "nonpayable",
      "type": "function"
    },
    {
      "inputs": [],
      "name": "renounceOwnership",
      "outputs": [],
      "stateMutability": "nonpayable",
      "type": "function"
    },
    {
      "inputs": [
        {
          "internalType": "address",
          "name": "",
          "type": "address"
        }
      ],
      "name": "staking",
      "outputs": [
        {
          "internalType": "uint256",
          "name": "startTime",
          "type": "uint256"
        },
        {
          "internalType": "uint256",
          "name": "endTime",
          "type": "uint256"
        },
        {
          "internalType": "uint256",
          "name": "amountStaked",
          "type": "uint256"
        }
      ],
      "stateMutability": "view",
      "type": "function",
      "constant": true
    },
    {
      "inputs": [
        {
          "internalType": "uint256",
          "name": "_amount",
          "type": "uint256"
        },
        {
          "internalType": "uint256",
          "name": "_nOfDays",
          "type": "uint256"
        }
      ],
      "name": "startStaking",
      "outputs": [],
      "stateMutability": "nonpayable",
      "type": "function"
    },
    {
      "inputs": [],
      "name": "symbol",
      "outputs": [
        {
          "internalType": "string",
          "name": "",
          "type": "string"
        }
      ],
      "stateMutability": "view",
      "type": "function",
      "constant": true
    },
    {
      "inputs": [
        {
          "internalType": "uint256",
          "name": "_days",
          "type": "uint256"
        }
      ],
      "name": "testEndStaking",
      "outputs": [],
      "stateMutability": "nonpayable",
      "type": "function"
    },
    {
      "inputs": [],
      "name": "totalSupply",
      "outputs": [
        {
          "internalType": "uint256",
          "name": "",
          "type": "uint256"
        }
      ],
      "stateMutability": "view",
      "type": "function",
      "constant": true
    },
    {
      "inputs": [
        {
          "internalType": "address",
          "name": "recipient",
          "type": "address"
        },
        {
          "internalType": "uint256",
          "name": "amount",
          "type": "uint256"
        }
      ],
      "name": "transfer",
      "outputs": [
        {
          "internalType": "bool",
          "name": "",
          "type": "bool"
        }
      ],
      "stateMutability": "nonpayable",
      "type": "function"
    },
    {
      "inputs": [
        {
          "internalType": "address",
          "name": "sender",
          "type": "address"
        },
        {
          "internalType": "address",
          "name": "recipient",
          "type": "address"
        },
        {
          "internalType": "uint256",
          "name": "amount",
          "type": "uint256"
        }
      ],
      "name": "transferFrom",
      "outputs": [
        {
          "internalType": "bool",
          "name": "",
          "type": "bool"
        }
      ],
      "stateMutability": "nonpayable",
      "type": "function"
    },
    {
      "inputs": [
        {
          "internalType": "address",
          "name": "newOwner",
          "type": "address"
        }
      ],
      "name": "transferOwnership",
      "outputs": [],
      "stateMutability": "nonpayable",
      "type": "function"
    },
    {
      "inputs": [
        {
          "internalType": "address[]",
          "name": "_levels",
          "type": "address[]"
        }
      ],
      "name": "addLevel",
      "outputs": [],
      "stateMutability": "nonpayable",
      "type": "function"
    },
    {
      "inputs": [
        {
          "internalType": "address",
          "name": "_level",
          "type": "address"
        }
      ],
      "name": "createNewInstance",
      "outputs": [
        {
          "internalType": "address",
          "name": "",
          "type": "address"
        }
      ],
      "stateMutability": "nonpayable",
      "type": "function"
    },
    {
      "inputs": [
        {
          "internalType": "address",
          "name": "_level",
          "type": "address"
        },
        {
          "internalType": "address",
          "name": "_instance",
          "type": "address"
        }
      ],
      "name": "checkResult",
      "outputs": [
        {
          "internalType": "bool",
          "name": "",
          "type": "bool"
        }
      ],
      "stateMutability": "nonpayable",
      "type": "function"
    },
    {
      "inputs": [
        {
          "internalType": "uint256",
          "name": "_amount",
          "type": "uint256"
        }
      ],
      "name": "levelUp",
      "outputs": [],
      "stateMutability": "nonpayable",
      "type": "function"
    }
  ],
  "bytecode": "0x60806040526040518060400160405280600f81526020017f4976616e526577617264546f6b656e00000000000000000000000000000000008152506009908051906020019062000051929190620007c6565b506040518060400160405280600381526020017f4952540000000000000000000000000000000000000000000000000000000000815250600a90805190602001906200009f929190620007c6565b506a52b7d2dcc80cd2e4000000600b55348015620000bc57600080fd5b5060405162003ab038038062003ab083398181016040526020811015620000e257600080fd5b81019080805160405193929190846401000000008211156200010357600080fd5b838201915060208201858111156200011a57600080fd5b82518660208202830111640100000000821117156200013857600080fd5b8083526020830192505050908051906020019060200280838360005b838110156200017157808201518184015260208101905062000154565b5050505090500160405250505060098054600181600116156101000203166002900480601f016020809104026020016040519081016040528092919081815260200182805460018160011615610100020316600290048015620002185780601f10620001ec5761010080835404028352916020019162000218565b820191906000526020600020905b815481529060010190602001808311620001fa57829003601f168201915b5050505050600a8054600181600116156101000203166002900480601f016020809104026020016040519081016040528092919081815260200182805460018160011615610100020316600290048015620002b75780601f106200028b57610100808354040283529160200191620002b7565b820191906000526020600020905b8154815290600101906020018083116200029957829003601f168201915b50505050506000620002ce620003ef60201b60201c565b905080600160006101000a81548173ffffffffffffffffffffffffffffffffffffffff021916908373ffffffffffffffffffffffffffffffffffffffff1602179055508073ffffffffffffffffffffffffffffffffffffffff16600073ffffffffffffffffffffffffffffffffffffffff167f8be0079c531659141344cd1fd0a4f28419497f9722a3daafe3b4186f6b6457e060405160405180910390a350816005908051906020019062000385929190620007c6565b5080600690805190602001906200039e929190620007c6565b506012600760006101000a81548160ff021916908360ff1602179055505050620003d733670de0b6b3a7640000620003f760201b60201c565b620003e881620005d760201b60201c565b5062000875565b600033905090565b600073ffffffffffffffffffffffffffffffffffffffff168273ffffffffffffffffffffffffffffffffffffffff1614156200049b576040517f08c379a000000000000000000000000000000000000000000000000000000000815260040180806020018281038252601f8152602001807f45524332303a206d696e7420746f20746865207a65726f20616464726573730081525060200191505060405180910390fd5b620004af600083836200073860201b60201c565b620004cb816004546200073d60201b6200232c1790919060201c565b6004819055506200052a81600260008573ffffffffffffffffffffffffffffffffffffffff1673ffffffffffffffffffffffffffffffffffffffff168152602001908152602001600020546200073d60201b6200232c1790919060201c565b600260008473ffffffffffffffffffffffffffffffffffffffff1673ffffffffffffffffffffffffffffffffffffffff168152602001908152602001600020819055508173ffffffffffffffffffffffffffffffffffffffff16600073ffffffffffffffffffffffffffffffffffffffff167fddf252ad1be2c89b69c2b068fc378daa952ba7f163c4a11628f55a4df523b3ef836040518082815260200191505060405180910390a35050565b620005e7620003ef60201b60201c565b73ffffffffffffffffffffffffffffffffffffffff16600160009054906101000a900473ffffffffffffffffffffffffffffffffffffffff1673ffffffffffffffffffffffffffffffffffffffff1614620006aa576040517f08c379a00000000000000000000000000000000000000000000000000000000081526004018080602001828103825260208152602001807f4f776e61626c653a2063616c6c6572206973206e6f7420746865206f776e657281525060200191505060405180910390fd5b60008090505b815181101562000734576001600c6000848481518110620006cd57fe5b602002602001015173ffffffffffffffffffffffffffffffffffffffff1673ffffffffffffffffffffffffffffffffffffffff16815260200190815260200160002060006101000a81548160ff0219169083151502179055508080600101915050620006b0565b5050565b505050565b600080828401905083811015620007bc576040517f08c379a000000000000000000000000000000000000000000000000000000000815260040180806020018281038252601b8152602001807f536166654d6174683a206164646974696f6e206f766572666c6f77000000000081525060200191505060405180910390fd5b8091505092915050565b828054600181600116156101000203166002900490600052602060002090601f016020900481019282601f106200080957805160ff19168380011785556200083a565b828001600101855582156200083a579182015b82811115620008395782518255916020019190600101906200081c565b5b5090506200084991906200084d565b5090565b6200087291905b808211156200086e57600081600090555060010162000854565b5090565b90565b61322b80620008856000396000f3fe6080604052600436106101b75760003560e01c80635713e2db116100ec578063a457c2d71161008a578063d764b78f11610064578063d764b78f146109e7578063dd62ed3e14610a5a578063e2eb41ff14610adf578063f2fde38b14610b4f576101b7565b8063a457c2d7146108d6578063a60b693d14610949578063a9059cbb14610974576101b7565b80638d52e1df116100c65780638d52e1df1461076f5780638da5cb5b1461078657806395d89b41146107dd578063a22cba3e1461086d576101b7565b80635713e2db1461062e57806370a08231146106f3578063715018a614610758576101b7565b806318160ddd1161015957806327b5db8a1161013357806327b5db8a1461053b578063313ce5671461054557806339509351146105765780634b77dd9e146105e9576101b7565b806318160ddd1461046657806323b872dd146104915780632507190a14610524576101b7565b80630cac7ac9116101955780630cac7ac9146102d65780630ce90ec214610367578063109e9d59146103a2578063111e0176146103dd576101b7565b806306fdde03146101bc57806309526b591461024c578063095ea7b314610263575b600080fd5b3480156101c857600080fd5b506101d1610ba0565b6040518080602001828103825283818151815260200191508051906020019080838360005b838110156102115780820151818401526020810190506101f6565b50505050905090810190601f16801561023e5780820380516001836020036101000a031916815260200191505b509250505060405180910390f35b34801561025857600080fd5b50610261610c42565b005b34801561026f57600080fd5b506102bc6004803603604081101561028657600080fd5b81019080803573ffffffffffffffffffffffffffffffffffffffff16906020019092919080359060200190929190505050610c58565b604051808215151515815260200191505060405180910390f35b3480156102e257600080fd5b50610325600480360360208110156102f957600080fd5b81019080803573ffffffffffffffffffffffffffffffffffffffff169060200190929190505050610c76565b604051808273ffffffffffffffffffffffffffffffffffffffff1673ffffffffffffffffffffffffffffffffffffffff16815260200191505060405180910390f35b34801561037357600080fd5b506103a06004803603602081101561038a57600080fd5b8101908080359060200190929190505050610edb565b005b3480156103ae57600080fd5b506103db600480360360208110156103c557600080fd5b8101908080359060200190929190505050610fc5565b005b3480156103e957600080fd5b5061044c6004803603604081101561040057600080fd5b81019080803573ffffffffffffffffffffffffffffffffffffffff169060200190929190803573ffffffffffffffffffffffffffffffffffffffff169060200190929190505050611157565b604051808215151515815260200191505060405180910390f35b34801561047257600080fd5b5061047b6113a3565b6040518082815260200191505060405180910390f35b34801561049d57600080fd5b5061050a600480360360608110156104b457600080fd5b81019080803573ffffffffffffffffffffffffffffffffffffffff169060200190929190803573ffffffffffffffffffffffffffffffffffffffff169060200190929190803590602001909291905050506113ad565b604051808215151515815260200191505060405180910390f35b34801561053057600080fd5b50610539611486565b005b610543611616565b005b34801561055157600080fd5b5061055a6116d2565b604051808260ff1660ff16815260200191505060405180910390f35b34801561058257600080fd5b506105cf6004803603604081101561059957600080fd5b81019080803573ffffffffffffffffffffffffffffffffffffffff169060200190929190803590602001909291905050506116e9565b604051808215151515815260200191505060405180910390f35b3480156105f557600080fd5b5061062c6004803603604081101561060c57600080fd5b81019080803590602001909291908035906020019092919050505061179c565b005b34801561063a57600080fd5b506106f16004803603602081101561065157600080fd5b810190808035906020019064010000000081111561066e57600080fd5b82018360208201111561068057600080fd5b803590602001918460208302840111640100000000831117156106a257600080fd5b919080806020026020016040519081016040528093929190818152602001838360200280828437600081840152601f19601f8201169050808301925050505050505091929192905050506117c1565b005b3480156106ff57600080fd5b506107426004803603602081101561071657600080fd5b81019080803573ffffffffffffffffffffffffffffffffffffffff169060200190929190505050611916565b6040518082815260200191505060405180910390f35b34801561076457600080fd5b5061076d61195f565b005b34801561077b57600080fd5b50610784611aea565b005b34801561079257600080fd5b5061079b611b49565b604051808273ffffffffffffffffffffffffffffffffffffffff1673ffffffffffffffffffffffffffffffffffffffff16815260200191505060405180910390f35b3480156107e957600080fd5b506107f2611b73565b6040518080602001828103825283818151815260200191508051906020019080838360005b83811015610832578082015181840152602081019050610817565b50505050905090810190601f16801561085f5780820380516001836020036101000a031916815260200191505b509250505060405180910390f35b34801561087957600080fd5b506108bc6004803603602081101561089057600080fd5b81019080803573ffffffffffffffffffffffffffffffffffffffff169060200190929190505050611c15565b604051808215151515815260200191505060405180910390f35b3480156108e257600080fd5b5061092f600480360360408110156108f957600080fd5b81019080803573ffffffffffffffffffffffffffffffffffffffff16906020019092919080359060200190929190505050611c35565b604051808215151515815260200191505060405180910390f35b34801561095557600080fd5b5061095e611d02565b6040518082815260200191505060405180910390f35b34801561098057600080fd5b506109cd6004803603604081101561099757600080fd5b81019080803573ffffffffffffffffffffffffffffffffffffffff16906020019092919080359060200190929190505050611d0c565b604051808215151515815260200191505060405180910390f35b3480156109f357600080fd5b50610a3660048036036020811015610a0a57600080fd5b81019080803573ffffffffffffffffffffffffffffffffffffffff169060200190929190505050611d2a565b60405180848152602001838152602001828152602001935050505060405180910390f35b348015610a6657600080fd5b50610ac960048036036040811015610a7d57600080fd5b81019080803573ffffffffffffffffffffffffffffffffffffffff169060200190929190803573ffffffffffffffffffffffffffffffffffffffff169060200190929190505050611d54565b6040518082815260200191505060405180910390f35b348015610aeb57600080fd5b50610b2e60048036036020811015610b0257600080fd5b81019080803573ffffffffffffffffffffffffffffffffffffffff169060200190929190505050611ddb565b60405180838152602001821515151581526020019250505060405180910390f35b348015610b5b57600080fd5b50610b9e60048036036020811015610b7257600080fd5b81019080803573ffffffffffffffffffffffffffffffffffffffff169060200190929190505050611e0c565b005b606060058054600181600116156101000203166002900480601f016020809104026020016040519081016040528092919081815260200182805460018160011615610100020316600290048015610c385780601f10610c0d57610100808354040283529160200191610c38565b820191906000526020600020905b815481529060010190602001808311610c1b57829003601f168201915b5050505050905090565b610c566a52b7d2dcc80cd2e400000161201c565b565b6000610c6c610c656120b0565b84846120b8565b6001905092915050565b6000600c60008373ffffffffffffffffffffffffffffffffffffffff1673ffffffffffffffffffffffffffffffffffffffff16815260200190815260200160002060009054906101000a900460ff16610cce57600080fd5b600073ffffffffffffffffffffffffffffffffffffffff166000803373ffffffffffffffffffffffffffffffffffffffff1673ffffffffffffffffffffffffffffffffffffffff16815260200190815260200160002060020160008473ffffffffffffffffffffffffffffffffffffffff1673ffffffffffffffffffffffffffffffffffffffff16815260200190815260200160002060009054906101000a900473ffffffffffffffffffffffffffffffffffffffff1673ffffffffffffffffffffffffffffffffffffffff1614610e46576000803373ffffffffffffffffffffffffffffffffffffffff1673ffffffffffffffffffffffffffffffffffffffff16815260200190815260200160002060020160008373ffffffffffffffffffffffffffffffffffffffff1673ffffffffffffffffffffffffffffffffffffffff16815260200190815260200160002060009054906101000a900473ffffffffffffffffffffffffffffffffffffffff169050610ed6565b600082905060008173ffffffffffffffffffffffffffffffffffffffff16635219cfa56040518163ffffffff1660e01b815260040160206040518083038186803b158015610e9357600080fd5b505afa158015610ea7573d6000803e3d6000fd5b505050506040513d6020811015610ebd57600080fd5b8101908080519060200190929190505050905080925050505b919050565b670de0b6b3a7640000811015610ef057600080fd5b6000610f0d670de0b6b3a7640000836122af90919063ffffffff16565b90506000670de0b6b3a764000082029050610f27816122f9565b610f7b826000803373ffffffffffffffffffffffffffffffffffffffff1673ffffffffffffffffffffffffffffffffffffffff1681526020019081526020016000206000015461232c90919063ffffffff16565b6000803373ffffffffffffffffffffffffffffffffffffffff1673ffffffffffffffffffffffffffffffffffffffff16815260200190815260200160002060000181905550505050565b6000610fd0826123b4565b9050610fdc3082612527565b600061103382600860003373ffffffffffffffffffffffffffffffffffffffff1673ffffffffffffffffffffffffffffffffffffffff1681526020019081526020016000206002015461232c90919063ffffffff16565b9050600860003373ffffffffffffffffffffffffffffffffffffffff1673ffffffffffffffffffffffffffffffffffffffff1681526020019081526020016000206000808201600090556001820160009055600282016000905550503073ffffffffffffffffffffffffffffffffffffffff1663a9059cbb33836040518363ffffffff1660e01b8152600401808373ffffffffffffffffffffffffffffffffffffffff1673ffffffffffffffffffffffffffffffffffffffff16815260200182815260200192505050602060405180830381600087803b15801561111657600080fd5b505af115801561112a573d6000803e3d6000fd5b505050506040513d602081101561114057600080fd5b810190808051906020019092919050505050505050565b60008015156000803373ffffffffffffffffffffffffffffffffffffffff1673ffffffffffffffffffffffffffffffffffffffff16815260200190815260200160002060030160008573ffffffffffffffffffffffffffffffffffffffff1673ffffffffffffffffffffffffffffffffffffffff16815260200190815260200160002060009054906101000a900460ff161515146111f457600080fd5b600082905060008173ffffffffffffffffffffffffffffffffffffffff1663b3154db085336040518363ffffffff1660e01b8152600401808373ffffffffffffffffffffffffffffffffffffffff1673ffffffffffffffffffffffffffffffffffffffff1681526020018273ffffffffffffffffffffffffffffffffffffffff1673ffffffffffffffffffffffffffffffffffffffff16815260200192505050602060405180830381600087803b1580156112ae57600080fd5b505af11580156112c2573d6000803e3d6000fd5b505050506040513d60208110156112d857600080fd5b81019080805190602001909291905050509050801561139b5760016000803373ffffffffffffffffffffffffffffffffffffffff1673ffffffffffffffffffffffffffffffffffffffff16815260200190815260200160002060030160008773ffffffffffffffffffffffffffffffffffffffff1673ffffffffffffffffffffffffffffffffffffffff16815260200190815260200160002060006101000a81548160ff02191690831515021790555061139a33678ac7230489e80000612527565b5b505092915050565b6000600454905090565b60006113ba84848461253e565b61147b846113c66120b0565b6114768560405180606001604052806028815260200161311c60289139600360008b73ffffffffffffffffffffffffffffffffffffffff1673ffffffffffffffffffffffffffffffffffffffff168152602001908152602001600020600061142c6120b0565b73ffffffffffffffffffffffffffffffffffffffff1673ffffffffffffffffffffffffffffffffffffffff168152602001908152602001600020546128039092919063ffffffff16565b6120b8565b600190509392505050565b60006114906128c3565b905061149c3082612527565b60006114f382600860003373ffffffffffffffffffffffffffffffffffffffff1673ffffffffffffffffffffffffffffffffffffffff1681526020019081526020016000206002015461232c90919063ffffffff16565b9050600860003373ffffffffffffffffffffffffffffffffffffffff1673ffffffffffffffffffffffffffffffffffffffff1681526020019081526020016000206000808201600090556001820160009055600282016000905550503073ffffffffffffffffffffffffffffffffffffffff1663a9059cbb33836040518363ffffffff1660e01b8152600401808373ffffffffffffffffffffffffffffffffffffffff1673ffffffffffffffffffffffffffffffffffffffff16815260200182815260200192505050602060405180830381600087803b1580156115d657600080fd5b505af11580156115ea573d6000803e3d6000fd5b505050506040513d602081101561160057600080fd5b8101908080519060200190929190505050505050565b670de0b6b3a76400003414611676576040517f08c379a00000000000000000000000000000000000000000000000000000000081526004018080602001828103825260238152602001806131656023913960400191505060405180910390fd5b60016000803373ffffffffffffffffffffffffffffffffffffffff1673ffffffffffffffffffffffffffffffffffffffff16815260200190815260200160002060010160006101000a81548160ff021916908315150217905550565b6000600760009054906101000a900460ff16905090565b60006117926116f66120b0565b8461178d85600360006117076120b0565b73ffffffffffffffffffffffffffffffffffffffff1673ffffffffffffffffffffffffffffffffffffffff16815260200190815260200160002060008973ffffffffffffffffffffffffffffffffffffffff1673ffffffffffffffffffffffffffffffffffffffff1681526020019081526020016000205461232c90919063ffffffff16565b6120b8565b6001905092915050565b6117a633836116e9565b506117b23330846113ad565b506117bd8282612a2d565b5050565b6117c96120b0565b73ffffffffffffffffffffffffffffffffffffffff16600160009054906101000a900473ffffffffffffffffffffffffffffffffffffffff1673ffffffffffffffffffffffffffffffffffffffff161461188b576040517f08c379a00000000000000000000000000000000000000000000000000000000081526004018080602001828103825260208152602001807f4f776e61626c653a2063616c6c6572206973206e6f7420746865206f776e657281525060200191505060405180910390fd5b60008090505b8151811015611912576001600c60008484815181106118ac57fe5b602002602001015173ffffffffffffffffffffffffffffffffffffffff1673ffffffffffffffffffffffffffffffffffffffff16815260200190815260200160002060006101000a81548160ff0219169083151502179055508080600101915050611891565b5050565b6000600260008373ffffffffffffffffffffffffffffffffffffffff1673ffffffffffffffffffffffffffffffffffffffff168152602001908152602001600020549050919050565b6119676120b0565b73ffffffffffffffffffffffffffffffffffffffff16600160009054906101000a900473ffffffffffffffffffffffffffffffffffffffff1673ffffffffffffffffffffffffffffffffffffffff1614611a29576040517f08c379a00000000000000000000000000000000000000000000000000000000081526004018080602001828103825260208152602001807f4f776e61626c653a2063616c6c6572206973206e6f7420746865206f776e657281525060200191505060405180910390fd5b600073ffffffffffffffffffffffffffffffffffffffff16600160009054906101000a900473ffffffffffffffffffffffffffffffffffffffff1673ffffffffffffffffffffffffffffffffffffffff167f8be0079c531659141344cd1fd0a4f28419497f9722a3daafe3b4186f6b6457e060405160405180910390a36000600160006101000a81548173ffffffffffffffffffffffffffffffffffffffff021916908373ffffffffffffffffffffffffffffffffffffffff160217905550565b6000803373ffffffffffffffffffffffffffffffffffffffff1673ffffffffffffffffffffffffffffffffffffffff1681526020019081526020016000206000808201600090556001820160006101000a81549060ff02191690555050565b6000600160009054906101000a900473ffffffffffffffffffffffffffffffffffffffff16905090565b606060068054600181600116156101000203166002900480601f016020809104026020016040519081016040528092919081815260200182805460018160011615610100020316600290048015611c0b5780601f10611be057610100808354040283529160200191611c0b565b820191906000526020600020905b815481529060010190602001808311611bee57829003601f168201915b5050505050905090565b600c6020528060005260406000206000915054906101000a900460ff1681565b6000611cf8611c426120b0565b84611cf3856040518060600160405280602581526020016131d16025913960036000611c6c6120b0565b73ffffffffffffffffffffffffffffffffffffffff1673ffffffffffffffffffffffffffffffffffffffff16815260200190815260200160002060008a73ffffffffffffffffffffffffffffffffffffffff1673ffffffffffffffffffffffffffffffffffffffff168152602001908152602001600020546128039092919063ffffffff16565b6120b8565b6001905092915050565b6000600b54905090565b6000611d20611d196120b0565b848461253e565b6001905092915050565b60086020528060005260406000206000915090508060000154908060010154908060020154905083565b6000600360008473ffffffffffffffffffffffffffffffffffffffff1673ffffffffffffffffffffffffffffffffffffffff16815260200190815260200160002060008373ffffffffffffffffffffffffffffffffffffffff1673ffffffffffffffffffffffffffffffffffffffff16815260200190815260200160002054905092915050565b60006020528060005260406000206000915090508060000154908060010160009054906101000a900460ff16905082565b611e146120b0565b73ffffffffffffffffffffffffffffffffffffffff16600160009054906101000a900473ffffffffffffffffffffffffffffffffffffffff1673ffffffffffffffffffffffffffffffffffffffff1614611ed6576040517f08c379a00000000000000000000000000000000000000000000000000000000081526004018080602001828103825260208152602001807f4f776e61626c653a2063616c6c6572206973206e6f7420746865206f776e657281525060200191505060405180910390fd5b600073ffffffffffffffffffffffffffffffffffffffff168173ffffffffffffffffffffffffffffffffffffffff161415611f5c576040517f08c379a000000000000000000000000000000000000000000000000000000000815260040180806020018281038252602681526020018061308d6026913960400191505060405180910390fd5b8073ffffffffffffffffffffffffffffffffffffffff16600160009054906101000a900473ffffffffffffffffffffffffffffffffffffffff1673ffffffffffffffffffffffffffffffffffffffff167f8be0079c531659141344cd1fd0a4f28419497f9722a3daafe3b4186f6b6457e060405160405180910390a380600160006101000a81548173ffffffffffffffffffffffffffffffffffffffff021916908373ffffffffffffffffffffffffffffffffffffffff16021790555050565b600b546120398261202b6113a3565b61232c90919063ffffffff16565b11156120ad576040517f08c379a000000000000000000000000000000000000000000000000000000000815260040180806020018281038252601a8152602001807f436170206f7665726c6f772c206d696e7420726576657273656400000000000081525060200191505060405180910390fd5b50565b600033905090565b600073ffffffffffffffffffffffffffffffffffffffff168373ffffffffffffffffffffffffffffffffffffffff16141561213e576040517f08c379a00000000000000000000000000000000000000000000000000000000081526004018080602001828103825260248152602001806131ad6024913960400191505060405180910390fd5b600073ffffffffffffffffffffffffffffffffffffffff168273ffffffffffffffffffffffffffffffffffffffff1614156121c4576040517f08c379a00000000000000000000000000000000000000000000000000000000081526004018080602001828103825260228152602001806130b36022913960400191505060405180910390fd5b80600360008573ffffffffffffffffffffffffffffffffffffffff1673ffffffffffffffffffffffffffffffffffffffff16815260200190815260200160002060008473ffffffffffffffffffffffffffffffffffffffff1673ffffffffffffffffffffffffffffffffffffffff168152602001908152602001600020819055508173ffffffffffffffffffffffffffffffffffffffff168373ffffffffffffffffffffffffffffffffffffffff167f8c5be1e5ebec7d5bd14f71427d1e84f3dd0314c0f7b2291e5b200ac8c7c3b925836040518082815260200191505060405180910390a3505050565b60006122f183836040518060400160405280601a81526020017f536166654d6174683a206469766973696f6e206279207a65726f000000000000815250612b1d565b905092915050565b61230333826116e9565b5061230e3382612be3565b61232381600b54612da990919063ffffffff16565b600b8190555050565b6000808284019050838110156123aa576040517f08c379a000000000000000000000000000000000000000000000000000000000815260040180806020018281038252601b8152602001807f536166654d6174683a206164646974696f6e206f766572666c6f77000000000081525060200191505060405180910390fd5b8091505092915050565b600042620151808302600860003373ffffffffffffffffffffffffffffffffffffffff1673ffffffffffffffffffffffffffffffffffffffff1681526020019081526020016000206001015401101561240c57600080fd5b60006124ba620151806124ac600860003373ffffffffffffffffffffffffffffffffffffffff1673ffffffffffffffffffffffffffffffffffffffff16815260200190815260200160002060000154600860003373ffffffffffffffffffffffffffffffffffffffff1673ffffffffffffffffffffffffffffffffffffffff16815260200190815260200160002060010154612da990919063ffffffff16565b6122af90919063ffffffff16565b905060008161016d6064600a600860003373ffffffffffffffffffffffffffffffffffffffff1673ffffffffffffffffffffffffffffffffffffffff16815260200190815260200160002060020154028161251157fe5b048161251957fe5b040290508092505050919050565b6125308161201c565b61253a8282612df3565b5050565b600073ffffffffffffffffffffffffffffffffffffffff168373ffffffffffffffffffffffffffffffffffffffff1614156125c4576040517f08c379a00000000000000000000000000000000000000000000000000000000081526004018080602001828103825260258152602001806131886025913960400191505060405180910390fd5b600073ffffffffffffffffffffffffffffffffffffffff168273ffffffffffffffffffffffffffffffffffffffff16141561264a576040517f08c379a00000000000000000000000000000000000000000000000000000000081526004018080602001828103825260238152602001806130486023913960400191505060405180910390fd5b612655838383612fbc565b6126c1816040518060600160405280602681526020016130d560269139600260008773ffffffffffffffffffffffffffffffffffffffff1673ffffffffffffffffffffffffffffffffffffffff168152602001908152602001600020546128039092919063ffffffff16565b600260008573ffffffffffffffffffffffffffffffffffffffff1673ffffffffffffffffffffffffffffffffffffffff1681526020019081526020016000208190555061275681600260008573ffffffffffffffffffffffffffffffffffffffff1673ffffffffffffffffffffffffffffffffffffffff1681526020019081526020016000205461232c90919063ffffffff16565b600260008473ffffffffffffffffffffffffffffffffffffffff1673ffffffffffffffffffffffffffffffffffffffff168152602001908152602001600020819055508173ffffffffffffffffffffffffffffffffffffffff168373ffffffffffffffffffffffffffffffffffffffff167fddf252ad1be2c89b69c2b068fc378daa952ba7f163c4a11628f55a4df523b3ef836040518082815260200191505060405180910390a3505050565b60008383111582906128b0576040517f08c379a00000000000000000000000000000000000000000000000000000000081526004018080602001828103825283818151815260200191508051906020019080838360005b8381101561287557808201518184015260208101905061285a565b50505050905090810190601f1680156128a25780820380516001836020036101000a031916815260200191505b509250505060405180910390fd5b5060008385039050809150509392505050565b600042600860003373ffffffffffffffffffffffffffffffffffffffff1673ffffffffffffffffffffffffffffffffffffffff16815260200190815260200160002060010154101561291457600080fd5b60006129c2620151806129b4600860003373ffffffffffffffffffffffffffffffffffffffff1673ffffffffffffffffffffffffffffffffffffffff16815260200190815260200160002060000154600860003373ffffffffffffffffffffffffffffffffffffffff1673ffffffffffffffffffffffffffffffffffffffff16815260200190815260200160002060010154612da990919063ffffffff16565b6122af90919063ffffffff16565b905060008161016d6064600a600860003373ffffffffffffffffffffffffffffffffffffffff1673ffffffffffffffffffffffffffffffffffffffff168152602001908152602001600020600201540281612a1957fe5b0481612a2157fe5b04029050809250505090565b42600860003373ffffffffffffffffffffffffffffffffffffffff1673ffffffffffffffffffffffffffffffffffffffff16815260200190815260200160002060000181905550612a8a6201518082612fc190919063ffffffff16565b4201600860003373ffffffffffffffffffffffffffffffffffffffff1673ffffffffffffffffffffffffffffffffffffffff1681526020019081526020016000206001018190555081600860003373ffffffffffffffffffffffffffffffffffffffff1673ffffffffffffffffffffffffffffffffffffffff168152602001908152602001600020600201819055505050565b60008083118290612bc9576040517f08c379a00000000000000000000000000000000000000000000000000000000081526004018080602001828103825283818151815260200191508051906020019080838360005b83811015612b8e578082015181840152602081019050612b73565b50505050905090810190601f168015612bbb5780820380516001836020036101000a031916815260200191505b509250505060405180910390fd5b506000838581612bd557fe5b049050809150509392505050565b600073ffffffffffffffffffffffffffffffffffffffff168273ffffffffffffffffffffffffffffffffffffffff161415612c69576040517f08c379a00000000000000000000000000000000000000000000000000000000081526004018080602001828103825260218152602001806131446021913960400191505060405180910390fd5b612c7582600083612fbc565b612ce18160405180606001604052806022815260200161306b60229139600260008673ffffffffffffffffffffffffffffffffffffffff1673ffffffffffffffffffffffffffffffffffffffff168152602001908152602001600020546128039092919063ffffffff16565b600260008473ffffffffffffffffffffffffffffffffffffffff1673ffffffffffffffffffffffffffffffffffffffff16815260200190815260200160002081905550612d3981600454612da990919063ffffffff16565b600481905550600073ffffffffffffffffffffffffffffffffffffffff168273ffffffffffffffffffffffffffffffffffffffff167fddf252ad1be2c89b69c2b068fc378daa952ba7f163c4a11628f55a4df523b3ef836040518082815260200191505060405180910390a35050565b6000612deb83836040518060400160405280601e81526020017f536166654d6174683a207375627472616374696f6e206f766572666c6f770000815250612803565b905092915050565b600073ffffffffffffffffffffffffffffffffffffffff168273ffffffffffffffffffffffffffffffffffffffff161415612e96576040517f08c379a000000000000000000000000000000000000000000000000000000000815260040180806020018281038252601f8152602001807f45524332303a206d696e7420746f20746865207a65726f20616464726573730081525060200191505060405180910390fd5b612ea260008383612fbc565b612eb78160045461232c90919063ffffffff16565b600481905550612f0f81600260008573ffffffffffffffffffffffffffffffffffffffff1673ffffffffffffffffffffffffffffffffffffffff1681526020019081526020016000205461232c90919063ffffffff16565b600260008473ffffffffffffffffffffffffffffffffffffffff1673ffffffffffffffffffffffffffffffffffffffff168152602001908152602001600020819055508173ffffffffffffffffffffffffffffffffffffffff16600073ffffffffffffffffffffffffffffffffffffffff167fddf252ad1be2c89b69c2b068fc378daa952ba7f163c4a11628f55a4df523b3ef836040518082815260200191505060405180910390a35050565b505050565b600080831415612fd45760009050613041565b6000828402905082848281612fe557fe5b041461303c576040517f08c379a00000000000000000000000000000000000000000000000000000000081526004018080602001828103825260218152602001806130fb6021913960400191505060405180910390fd5b809150505b9291505056fe45524332303a207472616e7366657220746f20746865207a65726f206164647265737345524332303a206275726e20616d6f756e7420657863656564732062616c616e63654f776e61626c653a206e6577206f776e657220697320746865207a65726f206164647265737345524332303a20617070726f766520746f20746865207a65726f206164647265737345524332303a207472616e7366657220616d6f756e7420657863656564732062616c616e6365536166654d6174683a206d756c7469706c69636174696f6e206f766572666c6f7745524332303a207472616e7366657220616d6f756e74206578636565647320616c6c6f77616e636545524332303a206275726e2066726f6d20746865207a65726f206164647265737352656769737465722061206e657720706c6179657220636f737473203120657468657245524332303a207472616e736665722066726f6d20746865207a65726f206164647265737345524332303a20617070726f76652066726f6d20746865207a65726f206164647265737345524332303a2064656372656173656420616c6c6f77616e63652062656c6f77207a65726fa264697066735822122046151ffb6b7c2d865f86a9702f22414cf28c6354abd1b1ddbcc62c1835115d7c64736f6c63430006020033",
  "source": "import \"../Game_Controls/Bank.sol\";\nimport \"../Game_Controls/Players.sol\";\nimport \"@openzeppelin/contracts/math/SafeMath.sol\";\nimport \"@openzeppelin/contracts/access/Ownable.sol\";\n\n\ninterface DeploymentInterface {\n  function newInstance() external view returns (address);\n  function check (address _instance, address _player) external returns (bool);\n}\n\npragma solidity 0.6.2;\n\ncontract Main is Players, Ownable, Bank {\n\n  using SafeMath for uint256;\n\n  // Returns true if the game is registered.\n  // Only registered levels can deploy instances.\n  mapping (address => bool) public activeLevel;\n\n  // Owner can add levels.\n  function addLevel (address [] memory _levels) public onlyOwner {\n    for (uint i = 0; i < _levels.length; i++){\n      activeLevel[_levels[i]] = true;\n    }\n  }\n\n  uint256 constant rewardAmount = 10 ** 19; // 10 tokens\n\n  constructor (address [] memory _levels) Bank() public {\n    addLevel(_levels);\n  }\n\n\n  // Main function\n  // Creates a new instance for game _level\n  function createNewInstance (address _level) public returns (address){\n\n    // Require level is active\n    require(activeLevel[_level]);\n\n    // Check if player has already an instance for the _level\n    if(players[msg.sender].instanceByLvl[_level] != address(0)){\n      return players[msg.sender].instanceByLvl[_level];\n    }\n\n    // Deploy new instance of the _level\n    DeploymentInterface implementation = DeploymentInterface(_level);\n    address instance = implementation.newInstance();\n    return instance;\n  }\n\n  function checkResult (address _level,address _instance) public returns (bool) {\n\n    // Make sure lvl not already won\n    require(players[msg.sender].completeLevels[_level] == false);\n\n    DeploymentInterface implementation = DeploymentInterface(_instance);\n\n    bool result = implementation.check(_instance,msg.sender);\n\n    if(result) {\n      players[msg.sender].completeLevels[_level] = true;\n      mintIRT (msg.sender,rewardAmount);\n    }\n  }\n\n  /**\n  * @dev Each IRT grants 1 level.\n  * @param _amount Has to be 10 ** 18 or mutiple.\n  * @notice _amount 1.2 IRT will result in 1 IRT burnt.\n  */\n  function levelUp (uint256 _amount) public   {\n    require (_amount >= 10 ** 18);\n    uint256 base = _amount.div(1 ether);\n    uint256 toBurn = base * (10**18);\n    burnIRT(toBurn);\n    players[msg.sender].playerLevel = players[msg.sender].playerLevel.add(base);\n  }\n\n}\n",
  "sourcePath": "/Users/dan/Documents/Coding/Solidity/New_Projects/Contracts/IotDevsGame/contracts/Game/Main.sol",
  "compiler": {
    "name": "solc",
    "version": "0.6.2+commit.bacdbe57.Emscripten.clang"
  },
  "schemaVersion": "3.2.2",
  "updatedAt": "2020-09-24T15:39:06.204Z",
  "networkType": "ethereum",
  "devdoc": {
    "methods": {
      "addPlayer()": {
        "details": "Enable a new player."
      },
      "allowance(address,address)": {
        "details": "See {IERC20-allowance}."
      },
      "approve(address,uint256)": {
        "details": "See {IERC20-approve}.     * Requirements:     * - `spender` cannot be the zero address."
      },
      "balanceOf(address)": {
        "details": "See {IERC20-balanceOf}."
      },
      "decimals()": {
        "details": "Returns the number of decimals used to get its user representation. For example, if `decimals` equals `2`, a balance of `505` tokens should be displayed to a user as `5,05` (`505 / 10 ** 2`).     * Tokens usually opt for a value of 18, imitating the relationship between Ether and Wei. This is the value {ERC20} uses, unless {_setupDecimals} is called.     * NOTE: This information is only used for _display_ purposes: it in no way affects any of the arithmetic of the contract, including {IERC20-balanceOf} and {IERC20-transfer}."
      },
      "decreaseAllowance(address,uint256)": {
        "details": "Atomically decreases the allowance granted to `spender` by the caller.     * This is an alternative to {approve} that can be used as a mitigation for problems described in {IERC20-approve}.     * Emits an {Approval} event indicating the updated allowance.     * Requirements:     * - `spender` cannot be the zero address. - `spender` must have allowance for the caller of at least `subtractedValue`."
      },
      "getTotalCap()": {
        "details": "Returns the total IRT cap."
      },
      "increaseAllowance(address,uint256)": {
        "details": "Atomically increases the allowance granted to `spender` by the caller.     * This is an alternative to {approve} that can be used as a mitigation for problems described in {IERC20-approve}.     * Emits an {Approval} event indicating the updated allowance.     * Requirements:     * - `spender` cannot be the zero address."
      },
      "levelUp(uint256)": {
        "details": "Each IRT grants 1 level.",
        "params": {
          "_amount": "Has to be 10 ** 18 or mutiple."
        }
      },
      "name()": {
        "details": "Returns the name of the token."
      },
      "owner()": {
        "details": "Returns the address of the current owner."
      },
      "removePlayer()": {
        "details": "A player can disable itself."
      },
      "renounceOwnership()": {
        "details": "Leaves the contract without owner. It will not be possible to call `onlyOwner` functions anymore. Can only be called by the current owner.     * NOTE: Renouncing ownership will leave the contract without an owner, thereby removing any functionality that is only available to the owner."
      },
      "symbol()": {
        "details": "Returns the symbol of the token, usually a shorter version of the name."
      },
      "totalSupply()": {
        "details": "See {IERC20-totalSupply}."
      },
      "transfer(address,uint256)": {
        "details": "See {IERC20-transfer}.     * Requirements:     * - `recipient` cannot be the zero address. - the caller must have a balance of at least `amount`."
      },
      "transferFrom(address,address,uint256)": {
        "details": "See {IERC20-transferFrom}.     * Emits an {Approval} event indicating the updated allowance. This is not required by the EIP. See the note at the beginning of {ERC20};     * Requirements: - `sender` and `recipient` cannot be the zero address. - `sender` must have a balance of at least `amount`. - the caller must have allowance for ``sender``'s tokens of at least `amount`."
      },
      "transferOwnership(address)": {
        "details": "Transfers ownership of the contract to a new account (`newOwner`). Can only be called by the current owner."
      }
    }
  },
  "userdoc": {
    "methods": {
      "addPlayer()": {
        "notice": "Registration cost is 1 ether."
      },
      "levelUp(uint256)": {
        "notice": "_amount 1.2 IRT will result in 1 IRT burnt."
      }
    }
  }
}