{
  "contractName": "Main",
  "abi": [
    {
      "inputs": [],
      "stateMutability": "nonpayable",
      "type": "constructor"
    },
    {
      "anonymous": false,
      "inputs": [
        {
          "indexed": true,
          "internalType": "address",
          "name": "owner",
          "type": "address"
        },
        {
          "indexed": true,
          "internalType": "address",
          "name": "spender",
          "type": "address"
        },
        {
          "indexed": false,
          "internalType": "uint256",
          "name": "value",
          "type": "uint256"
        }
      ],
      "name": "Approval",
      "type": "event"
    },
    {
      "anonymous": false,
      "inputs": [
        {
          "indexed": true,
          "internalType": "address",
          "name": "from",
          "type": "address"
        },
        {
          "indexed": true,
          "internalType": "address",
          "name": "to",
          "type": "address"
        },
        {
          "indexed": false,
          "internalType": "uint256",
          "name": "value",
          "type": "uint256"
        }
      ],
      "name": "Transfer",
      "type": "event"
    },
    {
      "anonymous": false,
      "inputs": [
        {
          "indexed": false,
          "internalType": "uint256",
          "name": "",
          "type": "uint256"
        }
      ],
      "name": "random",
      "type": "event"
    },
    {
      "inputs": [],
      "name": "addPlayer",
      "outputs": [],
      "stateMutability": "payable",
      "type": "function",
      "payable": true
    },
    {
      "inputs": [
        {
          "internalType": "address",
          "name": "owner",
          "type": "address"
        },
        {
          "internalType": "address",
          "name": "spender",
          "type": "address"
        }
      ],
      "name": "allowance",
      "outputs": [
        {
          "internalType": "uint256",
          "name": "",
          "type": "uint256"
        }
      ],
      "stateMutability": "view",
      "type": "function",
      "constant": true
    },
    {
      "inputs": [
        {
          "internalType": "address",
          "name": "spender",
          "type": "address"
        },
        {
          "internalType": "uint256",
          "name": "amount",
          "type": "uint256"
        }
      ],
      "name": "approve",
      "outputs": [
        {
          "internalType": "bool",
          "name": "",
          "type": "bool"
        }
      ],
      "stateMutability": "nonpayable",
      "type": "function"
    },
    {
      "inputs": [
        {
          "internalType": "address",
          "name": "account",
          "type": "address"
        }
      ],
      "name": "balanceOf",
      "outputs": [
        {
          "internalType": "uint256",
          "name": "",
          "type": "uint256"
        }
      ],
      "stateMutability": "view",
      "type": "function",
      "constant": true
    },
    {
      "inputs": [],
      "name": "claimOwnership",
      "outputs": [],
      "stateMutability": "nonpayable",
      "type": "function"
    },
    {
      "inputs": [],
      "name": "decimals",
      "outputs": [
        {
          "internalType": "uint8",
          "name": "",
          "type": "uint8"
        }
      ],
      "stateMutability": "view",
      "type": "function",
      "constant": true
    },
    {
      "inputs": [
        {
          "internalType": "address",
          "name": "spender",
          "type": "address"
        },
        {
          "internalType": "uint256",
          "name": "subtractedValue",
          "type": "uint256"
        }
      ],
      "name": "decreaseAllowance",
      "outputs": [
        {
          "internalType": "bool",
          "name": "",
          "type": "bool"
        }
      ],
      "stateMutability": "nonpayable",
      "type": "function"
    },
    {
      "inputs": [],
      "name": "deposit",
      "outputs": [],
      "stateMutability": "payable",
      "type": "function",
      "payable": true
    },
    {
      "inputs": [],
      "name": "endStaking",
      "outputs": [],
      "stateMutability": "nonpayable",
      "type": "function"
    },
    {
      "inputs": [],
      "name": "getPassword",
      "outputs": [
        {
          "internalType": "uint256",
          "name": "",
          "type": "uint256"
        }
      ],
      "stateMutability": "view",
      "type": "function",
      "constant": true
    },
    {
      "inputs": [],
      "name": "getTotalCap",
      "outputs": [
        {
          "internalType": "uint256",
          "name": "",
          "type": "uint256"
        }
      ],
      "stateMutability": "view",
      "type": "function",
      "constant": true
    },
    {
      "inputs": [
        {
          "internalType": "address",
          "name": "spender",
          "type": "address"
        },
        {
          "internalType": "uint256",
          "name": "addedValue",
          "type": "uint256"
        }
      ],
      "name": "increaseAllowance",
      "outputs": [
        {
          "internalType": "bool",
          "name": "",
          "type": "bool"
        }
      ],
      "stateMutability": "nonpayable",
      "type": "function"
    },
    {
      "inputs": [],
      "name": "mintLotsOfTokens",
      "outputs": [],
      "stateMutability": "nonpayable",
      "type": "function"
    },
    {
      "inputs": [],
      "name": "name",
      "outputs": [
        {
          "internalType": "string",
          "name": "",
          "type": "string"
        }
      ],
      "stateMutability": "view",
      "type": "function",
      "constant": true
    },
    {
      "inputs": [
        {
          "internalType": "address",
          "name": "",
          "type": "address"
        }
      ],
      "name": "player",
      "outputs": [
        {
          "internalType": "address",
          "name": "targetAddress",
          "type": "address"
        }
      ],
      "stateMutability": "view",
      "type": "function",
      "constant": true
    },
    {
      "inputs": [
        {
          "internalType": "address",
          "name": "",
          "type": "address"
        }
      ],
      "name": "players",
      "outputs": [
        {
          "internalType": "uint256",
          "name": "playerLevel",
          "type": "uint256"
        },
        {
          "internalType": "bool",
          "name": "isPlayer",
          "type": "bool"
        }
      ],
      "stateMutability": "view",
      "type": "function",
      "constant": true
    },
    {
      "inputs": [],
      "name": "r",
      "outputs": [],
      "stateMutability": "nonpayable",
      "type": "function"
    },
    {
      "inputs": [],
      "name": "removePlayer",
      "outputs": [],
      "stateMutability": "nonpayable",
      "type": "function"
    },
    {
      "inputs": [],
      "name": "setPassword",
      "outputs": [],
      "stateMutability": "nonpayable",
      "type": "function"
    },
    {
      "inputs": [
        {
          "internalType": "address",
          "name": "",
          "type": "address"
        }
      ],
      "name": "staking",
      "outputs": [
        {
          "internalType": "uint256",
          "name": "startTime",
          "type": "uint256"
        },
        {
          "internalType": "uint256",
          "name": "endTime",
          "type": "uint256"
        },
        {
          "internalType": "uint256",
          "name": "amountStaked",
          "type": "uint256"
        }
      ],
      "stateMutability": "view",
      "type": "function",
      "constant": true
    },
    {
      "inputs": [
        {
          "internalType": "uint256",
          "name": "_amount",
          "type": "uint256"
        },
        {
          "internalType": "uint256",
          "name": "_nOfDays",
          "type": "uint256"
        }
      ],
      "name": "startStaking",
      "outputs": [],
      "stateMutability": "nonpayable",
      "type": "function"
    },
    {
      "inputs": [],
      "name": "symbol",
      "outputs": [
        {
          "internalType": "string",
          "name": "",
          "type": "string"
        }
      ],
      "stateMutability": "view",
      "type": "function",
      "constant": true
    },
    {
      "inputs": [
        {
          "internalType": "uint256",
          "name": "_days",
          "type": "uint256"
        }
      ],
      "name": "testEndStaking",
      "outputs": [],
      "stateMutability": "nonpayable",
      "type": "function"
    },
    {
      "inputs": [
        {
          "internalType": "address",
          "name": "",
          "type": "address"
        }
      ],
      "name": "timer",
      "outputs": [
        {
          "internalType": "uint256",
          "name": "",
          "type": "uint256"
        }
      ],
      "stateMutability": "view",
      "type": "function",
      "constant": true
    },
    {
      "inputs": [],
      "name": "totalSupply",
      "outputs": [
        {
          "internalType": "uint256",
          "name": "",
          "type": "uint256"
        }
      ],
      "stateMutability": "view",
      "type": "function",
      "constant": true
    },
    {
      "inputs": [
        {
          "internalType": "address",
          "name": "recipient",
          "type": "address"
        },
        {
          "internalType": "uint256",
          "name": "amount",
          "type": "uint256"
        }
      ],
      "name": "transfer",
      "outputs": [
        {
          "internalType": "bool",
          "name": "",
          "type": "bool"
        }
      ],
      "stateMutability": "nonpayable",
      "type": "function"
    },
    {
      "inputs": [
        {
          "internalType": "address",
          "name": "sender",
          "type": "address"
        },
        {
          "internalType": "address",
          "name": "recipient",
          "type": "address"
        },
        {
          "internalType": "uint256",
          "name": "amount",
          "type": "uint256"
        }
      ],
      "name": "transferFrom",
      "outputs": [
        {
          "internalType": "bool",
          "name": "",
          "type": "bool"
        }
      ],
      "stateMutability": "nonpayable",
      "type": "function"
    },
    {
      "inputs": [],
      "name": "unlockA",
      "outputs": [],
      "stateMutability": "nonpayable",
      "type": "function"
    },
    {
      "inputs": [
        {
          "internalType": "uint8",
          "name": "_n",
          "type": "uint8"
        }
      ],
      "name": "unlockB",
      "outputs": [],
      "stateMutability": "nonpayable",
      "type": "function"
    },
    {
      "inputs": [
        {
          "internalType": "uint256",
          "name": "_n",
          "type": "uint256"
        }
      ],
      "name": "unlockC",
      "outputs": [],
      "stateMutability": "nonpayable",
      "type": "function"
    },
    {
      "inputs": [
        {
          "internalType": "uint256",
          "name": "_password",
          "type": "uint256"
        }
      ],
      "name": "welcome",
      "outputs": [],
      "stateMutability": "nonpayable",
      "type": "function"
    },
    {
      "inputs": [
        {
          "internalType": "address",
          "name": "_playerContractAddress",
          "type": "address"
        }
      ],
      "name": "playLevel0",
      "outputs": [],
      "stateMutability": "nonpayable",
      "type": "function"
    },
    {
      "inputs": [],
      "name": "playLevel1",
      "outputs": [],
      "stateMutability": "nonpayable",
      "type": "function"
    },
    {
      "inputs": [
        {
          "internalType": "uint256",
          "name": "_n",
          "type": "uint256"
        }
      ],
      "name": "playLevel2",
      "outputs": [],
      "stateMutability": "nonpayable",
      "type": "function"
    },
    {
      "inputs": [
        {
          "internalType": "address",
          "name": "_owner",
          "type": "address"
        }
      ],
      "name": "playLevel3",
      "outputs": [],
      "stateMutability": "nonpayable",
      "type": "function"
    },
    {
      "inputs": [
        {
          "internalType": "address",
          "name": "_playerContractAddress",
          "type": "address"
        }
      ],
      "name": "playLevel4",
      "outputs": [],
      "stateMutability": "nonpayable",
      "type": "function"
    },
    {
      "inputs": [],
      "name": "playLevel5",
      "outputs": [],
      "stateMutability": "nonpayable",
      "type": "function"
    },
    {
      "inputs": [
        {
          "internalType": "uint256",
          "name": "_amount",
          "type": "uint256"
        }
      ],
      "name": "levelUp",
      "outputs": [],
      "stateMutability": "nonpayable",
      "type": "function"
    }
  ],
  "bytecode": "0x60806040526040518060400160405280600f81526020017f4976616e526577617264546f6b656e0000000000000000000000000000000000815250600890805190602001906200005192919062000520565b506040518060400160405280600381526020017f4952540000000000000000000000000000000000000000000000000000000000815250600990805190602001906200009f92919062000520565b506a52b7d2dcc80cd2e4000000600a556000600f60006101000a81548173ffffffffffffffffffffffffffffffffffffffff021916908373ffffffffffffffffffffffffffffffffffffffff16021790555060026016553480156200010357600080fd5b5060088054600181600116156101000203166002900480601f0160208091040260200160405190810160405280929190818152602001828054600181600116156101000203166002900480156200019e5780601f1062000172576101008083540402835291602001916200019e565b820191906000526020600020905b8154815290600101906020018083116200018057829003601f168201915b505050505060098054600181600116156101000203166002900480601f0160208091040260200160405190810160405280929190818152602001828054600181600116156101000203166002900480156200023d5780601f1062000211576101008083540402835291602001916200023d565b820191906000526020600020905b8154815290600101906020018083116200021f57829003601f168201915b505050505081600490805190602001906200025a92919062000520565b5080600590805190602001906200027392919062000520565b506012600660006101000a81548160ff021916908360ff1602179055505050620002ac33670de0b6b3a7640000620002b260201b60201c565b620005cf565b600073ffffffffffffffffffffffffffffffffffffffff168273ffffffffffffffffffffffffffffffffffffffff16141562000356576040517f08c379a000000000000000000000000000000000000000000000000000000000815260040180806020018281038252601f8152602001807f45524332303a206d696e7420746f20746865207a65726f20616464726573730081525060200191505060405180910390fd5b6200036a600083836200049260201b60201c565b62000386816003546200049760201b620027fd1790919060201c565b600381905550620003e581600160008573ffffffffffffffffffffffffffffffffffffffff1673ffffffffffffffffffffffffffffffffffffffff168152602001908152602001600020546200049760201b620027fd1790919060201c565b600160008473ffffffffffffffffffffffffffffffffffffffff1673ffffffffffffffffffffffffffffffffffffffff168152602001908152602001600020819055508173ffffffffffffffffffffffffffffffffffffffff16600073ffffffffffffffffffffffffffffffffffffffff167fddf252ad1be2c89b69c2b068fc378daa952ba7f163c4a11628f55a4df523b3ef836040518082815260200191505060405180910390a35050565b505050565b60008082840190508381101562000516576040517f08c379a000000000000000000000000000000000000000000000000000000000815260040180806020018281038252601b8152602001807f536166654d6174683a206164646974696f6e206f766572666c6f77000000000081525060200191505060405180910390fd5b8091505092915050565b828054600181600116156101000203166002900490600052602060002090601f016020900481019282601f106200056357805160ff191683800117855562000594565b8280016001018555821562000594579182015b828111156200059357825182559160200191906001019062000576565b5b509050620005a39190620005a7565b5090565b620005cc91905b80821115620005c8576000816000905550600101620005ae565b5090565b90565b61424980620005df6000396000f3fe6080604052600436106102255760003560e01c80637d15a33611610123578063c707def6116100ab578063d5822d2b1161006f578063d5822d2b14610a80578063d764b78f14610ad1578063dd62ed3e14610b44578063e2eb41ff14610bc9578063ec45787c14610c3957610225565b8063c707def614610981578063c8d469f0146109bf578063c98b384b146109fa578063cc8e239414610a4b578063d0e30db014610a7657610225565b8063a457c2d7116100f2578063a457c2d714610842578063a60b693d146108b5578063a9059cbb146108e0578063aea89bf414610953578063b147491e1461096a57610225565b80637d15a336146107335780638d52e1df146107845780639338f7a61461079b57806395d89b41146107b257610225565b806327b5db8a116101b15780634e71e0c8116101755780634e71e0c81461064e5780635245d73314610665578063534d4ec3146106a05780636c8ae38c146106b757806370a08231146106ce57610225565b806327b5db8a146104ca578063313ce567146104d457806339509351146105055780634b77dd9e146105785780634c54e1b5146105bd57610225565b8063109e9d59116101f8578063109e9d591461037f57806318160ddd146103ba5780632044ea5a146103e557806323b872dd146104205780632507190a146104b357610225565b806306fdde031461022a57806309526b59146102ba578063095ea7b3146102d15780630ce90ec214610344575b600080fd5b34801561023657600080fd5b5061023f610c9e565b6040518080602001828103825283818151815260200191508051906020019080838360005b8381101561027f578082015181840152602081019050610264565b50505050905090810190601f1680156102ac5780820380516001836020036101000a031916815260200191505b509250505060405180910390f35b3480156102c657600080fd5b506102cf610d40565b005b3480156102dd57600080fd5b5061032a600480360360408110156102f457600080fd5b81019080803573ffffffffffffffffffffffffffffffffffffffff16906020019092919080359060200190929190505050610d56565b604051808215151515815260200191505060405180910390f35b34801561035057600080fd5b5061037d6004803603602081101561036757600080fd5b8101908080359060200190929190505050610d74565b005b34801561038b57600080fd5b506103b8600480360360208110156103a257600080fd5b8101908080359060200190929190505050610f26565b005b3480156103c657600080fd5b506103cf6110b8565b6040518082815260200191505060405180910390f35b3480156103f157600080fd5b5061041e6004803603602081101561040857600080fd5b81019080803590602001909291905050506110c2565b005b34801561042c57600080fd5b506104996004803603606081101561044357600080fd5b81019080803573ffffffffffffffffffffffffffffffffffffffff169060200190929190803573ffffffffffffffffffffffffffffffffffffffff169060200190929190803590602001909291905050506111d6565b604051808215151515815260200191505060405180910390f35b3480156104bf57600080fd5b506104c86112af565b005b6104d261143f565b005b3480156104e057600080fd5b506104e96114fb565b604051808260ff1660ff16815260200191505060405180910390f35b34801561051157600080fd5b5061055e6004803603604081101561052857600080fd5b81019080803573ffffffffffffffffffffffffffffffffffffffff16906020019092919080359060200190929190505050611512565b604051808215151515815260200191505060405180910390f35b34801561058457600080fd5b506105bb6004803603604081101561059b57600080fd5b8101908080359060200190929190803590602001909291905050506115c5565b005b3480156105c957600080fd5b5061060c600480360360208110156105e057600080fd5b81019080803573ffffffffffffffffffffffffffffffffffffffff1690602001909291905050506115ea565b604051808273ffffffffffffffffffffffffffffffffffffffff1673ffffffffffffffffffffffffffffffffffffffff16815260200191505060405180910390f35b34801561065a57600080fd5b50610663611628565b005b34801561067157600080fd5b5061069e6004803603602081101561068857600080fd5b81019080803590602001909291905050506116dd565b005b3480156106ac57600080fd5b506106b56117cb565b005b3480156106c357600080fd5b506106cc611879565b005b3480156106da57600080fd5b5061071d600480360360208110156106f157600080fd5b81019080803573ffffffffffffffffffffffffffffffffffffffff169060200190929190505050611906565b6040518082815260200191505060405180910390f35b34801561073f57600080fd5b506107826004803603602081101561075657600080fd5b81019080803573ffffffffffffffffffffffffffffffffffffffff16906020019092919050505061194f565b005b34801561079057600080fd5b50610799611a3d565b005b3480156107a757600080fd5b506107b0611b58565b005b3480156107be57600080fd5b506107c7611c22565b6040518080602001828103825283818151815260200191508051906020019080838360005b838110156108075780820151818401526020810190506107ec565b50505050905090810190601f1680156108345780820380516001836020036101000a031916815260200191505b509250505060405180910390f35b34801561084e57600080fd5b5061089b6004803603604081101561086557600080fd5b81019080803573ffffffffffffffffffffffffffffffffffffffff16906020019092919080359060200190929190505050611cc4565b604051808215151515815260200191505060405180910390f35b3480156108c157600080fd5b506108ca611d91565b6040518082815260200191505060405180910390f35b3480156108ec57600080fd5b506109396004803603604081101561090357600080fd5b81019080803573ffffffffffffffffffffffffffffffffffffffff16906020019092919080359060200190929190505050611d9b565b604051808215151515815260200191505060405180910390f35b34801561095f57600080fd5b50610968611db9565b005b34801561097657600080fd5b5061097f611e07565b005b34801561098d57600080fd5b506109bd600480360360208110156109a457600080fd5b81019080803560ff169060200190929190505050611f31565b005b3480156109cb57600080fd5b506109f8600480360360208110156109e257600080fd5b8101908080359060200190929190505050612055565b005b348015610a0657600080fd5b50610a4960048036036020811015610a1d57600080fd5b81019080803573ffffffffffffffffffffffffffffffffffffffff169060200190929190505050612147565b005b348015610a5757600080fd5b50610a60612235565b6040518082815260200191505060405180910390f35b610a7e61227c565b005b348015610a8c57600080fd5b50610acf60048036036020811015610aa357600080fd5b81019080803573ffffffffffffffffffffffffffffffffffffffff169060200190929190505050612313565b005b348015610add57600080fd5b50610b2060048036036020811015610af457600080fd5b81019080803573ffffffffffffffffffffffffffffffffffffffff1690602001909291905050506123f3565b60405180848152602001838152602001828152602001935050505060405180910390f35b348015610b5057600080fd5b50610bb360048036036040811015610b6757600080fd5b81019080803573ffffffffffffffffffffffffffffffffffffffff169060200190929190803573ffffffffffffffffffffffffffffffffffffffff16906020019092919050505061241d565b6040518082815260200191505060405180910390f35b348015610bd557600080fd5b50610c1860048036036020811015610bec57600080fd5b81019080803573ffffffffffffffffffffffffffffffffffffffff1690602001909291905050506124a4565b60405180838152602001821515151581526020019250505060405180910390f35b348015610c4557600080fd5b50610c8860048036036020811015610c5c57600080fd5b81019080803573ffffffffffffffffffffffffffffffffffffffff1690602001909291905050506124d5565b6040518082815260200191505060405180910390f35b606060048054600181600116156101000203166002900480601f016020809104026020016040519081016040528092919081815260200182805460018160011615610100020316600290048015610d365780601f10610d0b57610100808354040283529160200191610d36565b820191906000526020600020905b815481529060010190602001808311610d1957829003601f168201915b5050505050905090565b610d546a52b7d2dcc80cd2e40000016124ed565b565b6000610d6a610d63612581565b8484612589565b6001905092915050565b600115156000803373ffffffffffffffffffffffffffffffffffffffff1673ffffffffffffffffffffffffffffffffffffffff16815260200190815260200160002060020160009054906101000a900460ff16151514610e3c576040517f08c379a000000000000000000000000000000000000000000000000000000000815260040180806020018281038252600e8152602001807f4e6f207375636820706c6179657200000000000000000000000000000000000081525060200191505060405180910390fd5b670de0b6b3a7640000811015610e5157600080fd5b6000610e6e670de0b6b3a76400008361278090919063ffffffff16565b90506000670de0b6b3a764000082029050610e88816127ca565b610edc826000803373ffffffffffffffffffffffffffffffffffffffff1673ffffffffffffffffffffffffffffffffffffffff168152602001908152602001600020600001546127fd90919063ffffffff16565b6000803373ffffffffffffffffffffffffffffffffffffffff1673ffffffffffffffffffffffffffffffffffffffff16815260200190815260200160002060000181905550505050565b6000610f3182612885565b9050610f3d30826129f8565b6000610f9482600760003373ffffffffffffffffffffffffffffffffffffffff1673ffffffffffffffffffffffffffffffffffffffff168152602001908152602001600020600201546127fd90919063ffffffff16565b9050600760003373ffffffffffffffffffffffffffffffffffffffff1673ffffffffffffffffffffffffffffffffffffffff1681526020019081526020016000206000808201600090556001820160009055600282016000905550503073ffffffffffffffffffffffffffffffffffffffff1663a9059cbb33836040518363ffffffff1660e01b8152600401808373ffffffffffffffffffffffffffffffffffffffff1673ffffffffffffffffffffffffffffffffffffffff16815260200182815260200192505050602060405180830381600087803b15801561107757600080fd5b505af115801561108b573d6000803e3d6000fd5b505050506040513d60208110156110a157600080fd5b810190808051906020019092919050505050505050565b6000600354905090565b6000601160003373ffffffffffffffffffffffffffffffffffffffff1673ffffffffffffffffffffffffffffffffffffffff16815260200190815260200160002060009054906101000a900460ff1660ff16141561111f57600080fd5b601460003373ffffffffffffffffffffffffffffffffffffffff1673ffffffffffffffffffffffffffffffffffffffff1681526020019081526020016000205481146111725761116d611879565b6111d3565b61117a612a0f565b6001601260003373ffffffffffffffffffffffffffffffffffffffff1673ffffffffffffffffffffffffffffffffffffffff16815260200190815260200160002060006101000a81548160ff0219169083151502179055505b50565b60006111e3848484612a59565b6112a4846111ef612581565b61129f8560405180606001604052806028815260200161411960289139600260008b73ffffffffffffffffffffffffffffffffffffffff1673ffffffffffffffffffffffffffffffffffffffff1681526020019081526020016000206000611255612581565b73ffffffffffffffffffffffffffffffffffffffff1673ffffffffffffffffffffffffffffffffffffffff16815260200190815260200160002054612d1e9092919063ffffffff16565b612589565b600190509392505050565b60006112b9612dde565b90506112c530826129f8565b600061131c82600760003373ffffffffffffffffffffffffffffffffffffffff1673ffffffffffffffffffffffffffffffffffffffff168152602001908152602001600020600201546127fd90919063ffffffff16565b9050600760003373ffffffffffffffffffffffffffffffffffffffff1673ffffffffffffffffffffffffffffffffffffffff1681526020019081526020016000206000808201600090556001820160009055600282016000905550503073ffffffffffffffffffffffffffffffffffffffff1663a9059cbb33836040518363ffffffff1660e01b8152600401808373ffffffffffffffffffffffffffffffffffffffff1673ffffffffffffffffffffffffffffffffffffffff16815260200182815260200192505050602060405180830381600087803b1580156113ff57600080fd5b505af1158015611413573d6000803e3d6000fd5b505050506040513d602081101561142957600080fd5b8101908080519060200190929190505050505050565b670de0b6b3a7640000341461149f576040517f08c379a00000000000000000000000000000000000000000000000000000000081526004018080602001828103825260238152602001806141836023913960400191505060405180910390fd5b60016000803373ffffffffffffffffffffffffffffffffffffffff1673ffffffffffffffffffffffffffffffffffffffff16815260200190815260200160002060020160006101000a81548160ff021916908315150217905550565b6000600660009054906101000a900460ff16905090565b60006115bb61151f612581565b846115b68560026000611530612581565b73ffffffffffffffffffffffffffffffffffffffff1673ffffffffffffffffffffffffffffffffffffffff16815260200190815260200160002060008973ffffffffffffffffffffffffffffffffffffffff1673ffffffffffffffffffffffffffffffffffffffff168152602001908152602001600020546127fd90919063ffffffff16565b612589565b6001905092915050565b6115cf3383611512565b506115db3330846111d6565b506115e68282612f48565b5050565b600e6020528060005260406000206000915090508060000160009054906101000a900473ffffffffffffffffffffffffffffffffffffffff16905081565b67016345785d8a0000600d60003373ffffffffffffffffffffffffffffffffffffffff1673ffffffffffffffffffffffffffffffffffffffff168152602001908152602001600020541161167b57600080fd5b6001600c60003373ffffffffffffffffffffffffffffffffffffffff1673ffffffffffffffffffffffffffffffffffffffff16815260200190815260200160002060006101000a81548160ff0219169083151502179055506116db613038565b565b600115156000803373ffffffffffffffffffffffffffffffffffffffff1673ffffffffffffffffffffffffffffffffffffffff16815260200190815260200160002060020160009054906101000a900460ff161515146117a5576040517f08c379a000000000000000000000000000000000000000000000000000000000815260040180806020018281038252600e8152602001807f4e6f207375636820706c6179657200000000000000000000000000000000000081525060200191505060405180910390fd5b60006117b08261311d565b9050806117bc57600080fd5b6117c660026131ae565b505050565b67016345785d8a0000601360003373ffffffffffffffffffffffffffffffffffffffff1673ffffffffffffffffffffffffffffffffffffffff168152602001908152602001600020541161181e57600080fd5b6032601060003373ffffffffffffffffffffffffffffffffffffffff1673ffffffffffffffffffffffffffffffffffffffff16815260200190815260200160002060006101000a81548160ff021916908360ff160217905550565b600060ff428161188557fe5b06905080601460003373ffffffffffffffffffffffffffffffffffffffff1673ffffffffffffffffffffffffffffffffffffffff168152602001908152602001600020819055507fb863bd3729546d4186efd003c567348f9deb7087f4632b9046c39adb8008c19f816040518082815260200191505060405180910390a150565b6000600160008373ffffffffffffffffffffffffffffffffffffffff1673ffffffffffffffffffffffffffffffffffffffff168152602001908152602001600020549050919050565b600115156000803373ffffffffffffffffffffffffffffffffffffffff1673ffffffffffffffffffffffffffffffffffffffff16815260200190815260200160002060020160009054906101000a900460ff16151514611a17576040517f08c379a000000000000000000000000000000000000000000000000000000000815260040180806020018281038252600e8152602001807f4e6f207375636820706c6179657200000000000000000000000000000000000081525060200191505060405180910390fd5b6000611a22826132a8565b905080611a2e57600080fd5b611a3860046131ae565b505050565b600115156000803373ffffffffffffffffffffffffffffffffffffffff1673ffffffffffffffffffffffffffffffffffffffff16815260200190815260200160002060020160009054906101000a900460ff16151514611b05576040517f08c379a000000000000000000000000000000000000000000000000000000000815260040180806020018281038252600e8152602001807f4e6f207375636820706c6179657200000000000000000000000000000000000081525060200191505060405180910390fd5b6000803373ffffffffffffffffffffffffffffffffffffffff1673ffffffffffffffffffffffffffffffffffffffff16815260200190815260200160002060020160006101000a81549060ff0219169055565b600115156000803373ffffffffffffffffffffffffffffffffffffffff1673ffffffffffffffffffffffffffffffffffffffff16815260200190815260200160002060020160009054906101000a900460ff16151514611c20576040517f08c379a000000000000000000000000000000000000000000000000000000000815260040180806020018281038252600e8152602001807f4e6f207375636820706c6179657200000000000000000000000000000000000081525060200191505060405180910390fd5b565b606060058054600181600116156101000203166002900480601f016020809104026020016040519081016040528092919081815260200182805460018160011615610100020316600290048015611cba5780601f10611c8f57610100808354040283529160200191611cba565b820191906000526020600020905b815481529060010190602001808311611c9d57829003601f168201915b5050505050905090565b6000611d87611cd1612581565b84611d82856040518060600160405280602581526020016141ef6025913960026000611cfb612581565b73ffffffffffffffffffffffffffffffffffffffff1673ffffffffffffffffffffffffffffffffffffffff16815260200190815260200160002060008a73ffffffffffffffffffffffffffffffffffffffff1673ffffffffffffffffffffffffffffffffffffffff16815260200190815260200160002054612d1e9092919063ffffffff16565b612589565b6001905092915050565b6000600a54905090565b6000611daf611da8612581565b8484612a59565b6001905092915050565b6000424201905080600b60003373ffffffffffffffffffffffffffffffffffffffff1673ffffffffffffffffffffffffffffffffffffffff1681526020019081526020016000208190555050565b600115156000803373ffffffffffffffffffffffffffffffffffffffff1673ffffffffffffffffffffffffffffffffffffffff16815260200190815260200160002060020160009054906101000a900460ff16151514611ecf576040517f08c379a000000000000000000000000000000000000000000000000000000000815260040180806020018281038252600e8152602001807f4e6f207375636820706c6179657200000000000000000000000000000000000081525060200191505060405180910390fd5b42601560003373ffffffffffffffffffffffffffffffffffffffff1673ffffffffffffffffffffffffffffffffffffffff1681526020019081526020016000205410611f2557611f1f60016131ae565b50611f2f565b611f2e3361356c565b5b565b601060003373ffffffffffffffffffffffffffffffffffffffff1673ffffffffffffffffffffffffffffffffffffffff16815260200190815260200160002060009054906101000a900460ff1660ff168160ff1610611f8f57600080fd5b60008160ff16601060003373ffffffffffffffffffffffffffffffffffffffff1673ffffffffffffffffffffffffffffffffffffffff16815260200190815260200160002060009054906101000a900460ff1660ff1681611fec57fe5b0660ff1614611ffa57600080fd5b80601160003373ffffffffffffffffffffffffffffffffffffffff1673ffffffffffffffffffffffffffffffffffffffff16815260200190815260200160002060006101000a81548160ff021916908360ff16021790555050565b600115156000803373ffffffffffffffffffffffffffffffffffffffff1673ffffffffffffffffffffffffffffffffffffffff16815260200190815260200160002060020160009054906101000a900460ff1615151461211d576040517f08c379a000000000000000000000000000000000000000000000000000000000815260040180806020018281038252600e8152602001807f4e6f207375636820706c6179657200000000000000000000000000000000000081525060200191505060405180910390fd5b6000612128826136e2565b90506001151581151514156121435761214160006131ae565b505b5050565b600115156000803373ffffffffffffffffffffffffffffffffffffffff1673ffffffffffffffffffffffffffffffffffffffff16815260200190815260200160002060020160009054906101000a900460ff1615151461220f576040517f08c379a000000000000000000000000000000000000000000000000000000000815260040180806020018281038252600e8152602001807f4e6f207375636820706c6179657200000000000000000000000000000000000081525060200191505060405180910390fd5b600061221a82613738565b90508061222657600080fd5b61223060036131ae565b505050565b6000600b60003373ffffffffffffffffffffffffffffffffffffffff1673ffffffffffffffffffffffffffffffffffffffff16815260200190815260200160002054905090565b6122ce34600d60003373ffffffffffffffffffffffffffffffffffffffff1673ffffffffffffffffffffffffffffffffffffffff168152602001908152602001600020546127fd90919063ffffffff16565b600d60003373ffffffffffffffffffffffffffffffffffffffff1673ffffffffffffffffffffffffffffffffffffffff16815260200190815260200160002081905550565b600115156000803373ffffffffffffffffffffffffffffffffffffffff1673ffffffffffffffffffffffffffffffffffffffff16815260200190815260200160002060020160009054906101000a900460ff161515146123db576040517f08c379a000000000000000000000000000000000000000000000000000000000815260040180806020018281038252600e8152602001807f4e6f207375636820706c6179657200000000000000000000000000000000000081525060200191505060405180910390fd5b6123e4816137e8565b506123ef60006131ae565b5050565b60076020528060005260406000206000915090508060000154908060010154908060020154905083565b6000600260008473ffffffffffffffffffffffffffffffffffffffff1673ffffffffffffffffffffffffffffffffffffffff16815260200190815260200160002060008373ffffffffffffffffffffffffffffffffffffffff1673ffffffffffffffffffffffffffffffffffffffff16815260200190815260200160002054905092915050565b60006020528060005260406000206000915090508060000154908060020160009054906101000a900460ff16905082565b60156020528060005260406000206000915090505481565b600a5461250a826124fc6110b8565b6127fd90919063ffffffff16565b111561257e576040517f08c379a000000000000000000000000000000000000000000000000000000000815260040180806020018281038252601a8152602001807f436170206f7665726c6f772c206d696e7420726576657273656400000000000081525060200191505060405180910390fd5b50565b600033905090565b600073ffffffffffffffffffffffffffffffffffffffff168373ffffffffffffffffffffffffffffffffffffffff16141561260f576040517f08c379a00000000000000000000000000000000000000000000000000000000081526004018080602001828103825260248152602001806141cb6024913960400191505060405180910390fd5b600073ffffffffffffffffffffffffffffffffffffffff168273ffffffffffffffffffffffffffffffffffffffff161415612695576040517f08c379a00000000000000000000000000000000000000000000000000000000081526004018080602001828103825260228152602001806140b06022913960400191505060405180910390fd5b80600260008573ffffffffffffffffffffffffffffffffffffffff1673ffffffffffffffffffffffffffffffffffffffff16815260200190815260200160002060008473ffffffffffffffffffffffffffffffffffffffff1673ffffffffffffffffffffffffffffffffffffffff168152602001908152602001600020819055508173ffffffffffffffffffffffffffffffffffffffff168373ffffffffffffffffffffffffffffffffffffffff167f8c5be1e5ebec7d5bd14f71427d1e84f3dd0314c0f7b2291e5b200ac8c7c3b925836040518082815260200191505060405180910390a3505050565b60006127c283836040518060400160405280601a81526020017f536166654d6174683a206469766973696f6e206279207a65726f000000000000815250613a95565b905092915050565b6127d43382611512565b506127df3382613b5b565b6127f481600a54613d2190919063ffffffff16565b600a8190555050565b60008082840190508381101561287b576040517f08c379a000000000000000000000000000000000000000000000000000000000815260040180806020018281038252601b8152602001807f536166654d6174683a206164646974696f6e206f766572666c6f77000000000081525060200191505060405180910390fd5b8091505092915050565b600042620151808302600760003373ffffffffffffffffffffffffffffffffffffffff1673ffffffffffffffffffffffffffffffffffffffff168152602001908152602001600020600101540110156128dd57600080fd5b600061298b6201518061297d600760003373ffffffffffffffffffffffffffffffffffffffff1673ffffffffffffffffffffffffffffffffffffffff16815260200190815260200160002060000154600760003373ffffffffffffffffffffffffffffffffffffffff1673ffffffffffffffffffffffffffffffffffffffff16815260200190815260200160002060010154613d2190919063ffffffff16565b61278090919063ffffffff16565b905060008161016d6064600a600760003373ffffffffffffffffffffffffffffffffffffffff1673ffffffffffffffffffffffffffffffffffffffff1681526020019081526020016000206002015402816129e257fe5b04816129ea57fe5b040290508092505050919050565b612a01816124ed565b612a0b8282613d6b565b5050565b61012c4201601560003373ffffffffffffffffffffffffffffffffffffffff1673ffffffffffffffffffffffffffffffffffffffff16815260200190815260200160002081905550565b600073ffffffffffffffffffffffffffffffffffffffff168373ffffffffffffffffffffffffffffffffffffffff161415612adf576040517f08c379a00000000000000000000000000000000000000000000000000000000081526004018080602001828103825260258152602001806141a66025913960400191505060405180910390fd5b600073ffffffffffffffffffffffffffffffffffffffff168273ffffffffffffffffffffffffffffffffffffffff161415612b65576040517f08c379a000000000000000000000000000000000000000000000000000000000815260040180806020018281038252602381526020018061406b6023913960400191505060405180910390fd5b612b70838383613f34565b612bdc816040518060600160405280602681526020016140d260269139600160008773ffffffffffffffffffffffffffffffffffffffff1673ffffffffffffffffffffffffffffffffffffffff16815260200190815260200160002054612d1e9092919063ffffffff16565b600160008573ffffffffffffffffffffffffffffffffffffffff1673ffffffffffffffffffffffffffffffffffffffff16815260200190815260200160002081905550612c7181600160008573ffffffffffffffffffffffffffffffffffffffff1673ffffffffffffffffffffffffffffffffffffffff168152602001908152602001600020546127fd90919063ffffffff16565b600160008473ffffffffffffffffffffffffffffffffffffffff1673ffffffffffffffffffffffffffffffffffffffff168152602001908152602001600020819055508173ffffffffffffffffffffffffffffffffffffffff168373ffffffffffffffffffffffffffffffffffffffff167fddf252ad1be2c89b69c2b068fc378daa952ba7f163c4a11628f55a4df523b3ef836040518082815260200191505060405180910390a3505050565b6000838311158290612dcb576040517f08c379a00000000000000000000000000000000000000000000000000000000081526004018080602001828103825283818151815260200191508051906020019080838360005b83811015612d90578082015181840152602081019050612d75565b50505050905090810190601f168015612dbd5780820380516001836020036101000a031916815260200191505b509250505060405180910390fd5b5060008385039050809150509392505050565b600042600760003373ffffffffffffffffffffffffffffffffffffffff1673ffffffffffffffffffffffffffffffffffffffff168152602001908152602001600020600101541015612e2f57600080fd5b6000612edd62015180612ecf600760003373ffffffffffffffffffffffffffffffffffffffff1673ffffffffffffffffffffffffffffffffffffffff16815260200190815260200160002060000154600760003373ffffffffffffffffffffffffffffffffffffffff1673ffffffffffffffffffffffffffffffffffffffff16815260200190815260200160002060010154613d2190919063ffffffff16565b61278090919063ffffffff16565b905060008161016d6064600a600760003373ffffffffffffffffffffffffffffffffffffffff1673ffffffffffffffffffffffffffffffffffffffff168152602001908152602001600020600201540281612f3457fe5b0481612f3c57fe5b04029050809250505090565b42600760003373ffffffffffffffffffffffffffffffffffffffff1673ffffffffffffffffffffffffffffffffffffffff16815260200190815260200160002060000181905550612fa56201518082613f3990919063ffffffff16565b4201600760003373ffffffffffffffffffffffffffffffffffffffff1673ffffffffffffffffffffffffffffffffffffffff1681526020019081526020016000206001018190555081600760003373ffffffffffffffffffffffffffffffffffffffff1673ffffffffffffffffffffffffffffffffffffffff168152602001908152602001600020600201819055505050565b60011515600c60003373ffffffffffffffffffffffffffffffffffffffff1673ffffffffffffffffffffffffffffffffffffffff16815260200190815260200160002060009054906101000a900460ff1615151461309557600080fd5b3373ffffffffffffffffffffffffffffffffffffffff166108fc600d60003373ffffffffffffffffffffffffffffffffffffffff1673ffffffffffffffffffffffffffffffffffffffff168152602001908152602001600020549081150290604051600060405180830381858888f1935050505015801561311a573d6000803e3d6000fd5b50565b6000808211801561313357506016546016548302105b6131a5576040517f08c379a00000000000000000000000000000000000000000000000000000000081526004018080602001828103825260068152602001807f6661696c6564000000000000000000000000000000000000000000000000000081525060200191505060405180910390fd5b60019050919050565b6000600115156000803373ffffffffffffffffffffffffffffffffffffffff1673ffffffffffffffffffffffffffffffffffffffff168152602001908152602001600020600101600084815260200190815260200160002060009054906101000a900460ff161515141561322557600090506132a3565b60016000803373ffffffffffffffffffffffffffffffffffffffff1673ffffffffffffffffffffffffffffffffffffffff168152602001908152602001600020600101600084815260200190815260200160002060006101000a81548160ff0219169083151502179055506132a233678ac7230489e800006129f8565b5b919050565b60008082905060008173ffffffffffffffffffffffffffffffffffffffff166395d89b416040518163ffffffff1660e01b815260040160006040518083038186803b1580156132f657600080fd5b505afa15801561330a573d6000803e3d6000fd5b505050506040513d6000823e3d601f19601f82011682018060405250602081101561333457600080fd5b810190808051604051939291908464010000000082111561335457600080fd5b8382019150602082018581111561336a57600080fd5b825186600182028301116401000000008211171561338757600080fd5b8083526020830192505050908051906020019080838360005b838110156133bb5780820151818401526020810190506133a0565b50505050905090810190601f1680156133e85780820380516001836020036101000a031916815260200191505b506040525050506040516020018082805190602001908083835b602083106134255780518252602082019150602081019050602083039250613402565b6001836020036101000a03801982511681845116808217855250505050505090500191505060405160208183030381529060405280519060200120905060008273ffffffffffffffffffffffffffffffffffffffff166370a08231306040518263ffffffff1660e01b8152600401808273ffffffffffffffffffffffffffffffffffffffff1673ffffffffffffffffffffffffffffffffffffffff16815260200191505060206040518083038186803b1580156134e157600080fd5b505afa1580156134f5573d6000803e3d6000fd5b505050506040513d602081101561350b57600080fd5b810190808051906020019092919050505090507f27fd9bb70fcea8125f7e0ba4eaeda4fb5ff28f5535e452dc1b70a42f567f4d7560001b821480156135575750670de0b6b3a764000081145b61356057600080fd5b60019350505050919050565b601060008273ffffffffffffffffffffffffffffffffffffffff1673ffffffffffffffffffffffffffffffffffffffff16815260200190815260200160002060006101000a81549060ff0219169055601160008273ffffffffffffffffffffffffffffffffffffffff1673ffffffffffffffffffffffffffffffffffffffff16815260200190815260200160002060006101000a81549060ff0219169055601260008273ffffffffffffffffffffffffffffffffffffffff1673ffffffffffffffffffffffffffffffffffffffff16815260200190815260200160002060006101000a81549060ff0219169055601460008273ffffffffffffffffffffffffffffffffffffffff1673ffffffffffffffffffffffffffffffffffffffff16815260200190815260200160002060009055601560008273ffffffffffffffffffffffffffffffffffffffff1673ffffffffffffffffffffffffffffffffffffffff1681526020019081526020016000206000905550565b600081600b60003373ffffffffffffffffffffffffffffffffffffffff1673ffffffffffffffffffffffffffffffffffffffff168152602001908152602001600020541461372f57600080fd5b60019050919050565b60008061374483613fbf565b90507f61251af2a34c4b856276127a6d85e236c257545c8bd5011ac4f0c05c15327a7d60001b81146137de576040517f08c379a000000000000000000000000000000000000000000000000000000000815260040180806020018281038252600c8152602001807f6e6f74206d61746368696e67000000000000000000000000000000000000000081525060200191505060405180910390fd5b6001915050919050565b60006137f38261401e565b6137fb614062565b600e60003373ffffffffffffffffffffffffffffffffffffffff1673ffffffffffffffffffffffffffffffffffffffff16815260200190815260200160002060000160006101000a81548173ffffffffffffffffffffffffffffffffffffffff021916908373ffffffffffffffffffffffffffffffffffffffff160217905550600f60009054906101000a900473ffffffffffffffffffffffffffffffffffffffff1673ffffffffffffffffffffffffffffffffffffffff166361dfdae6600e60003373ffffffffffffffffffffffffffffffffffffffff1673ffffffffffffffffffffffffffffffffffffffff16815260200190815260200160002060000160009054906101000a900473ffffffffffffffffffffffffffffffffffffffff166040518263ffffffff1660e01b8152600401808273ffffffffffffffffffffffffffffffffffffffff1673ffffffffffffffffffffffffffffffffffffffff168152602001915050602060405180830381600087803b15801561397e57600080fd5b505af1158015613992573d6000803e3d6000fd5b505050506040513d60208110156139a857600080fd5b8101908080519060200190929190505050506000600e60003373ffffffffffffffffffffffffffffffffffffffff1673ffffffffffffffffffffffffffffffffffffffff16815260200190815260200160002060000160009054906101000a900473ffffffffffffffffffffffffffffffffffffffff1673ffffffffffffffffffffffffffffffffffffffff163111613a8c576040517f08c379a00000000000000000000000000000000000000000000000000000000081526004018080602001828103825260218152602001806141416021913960400191505060405180910390fd5b60019050919050565b60008083118290613b41576040517f08c379a00000000000000000000000000000000000000000000000000000000081526004018080602001828103825283818151815260200191508051906020019080838360005b83811015613b06578082015181840152602081019050613aeb565b50505050905090810190601f168015613b335780820380516001836020036101000a031916815260200191505b509250505060405180910390fd5b506000838581613b4d57fe5b049050809150509392505050565b600073ffffffffffffffffffffffffffffffffffffffff168273ffffffffffffffffffffffffffffffffffffffff161415613be1576040517f08c379a00000000000000000000000000000000000000000000000000000000081526004018080602001828103825260218152602001806141626021913960400191505060405180910390fd5b613bed82600083613f34565b613c598160405180606001604052806022815260200161408e60229139600160008673ffffffffffffffffffffffffffffffffffffffff1673ffffffffffffffffffffffffffffffffffffffff16815260200190815260200160002054612d1e9092919063ffffffff16565b600160008473ffffffffffffffffffffffffffffffffffffffff1673ffffffffffffffffffffffffffffffffffffffff16815260200190815260200160002081905550613cb181600354613d2190919063ffffffff16565b600381905550600073ffffffffffffffffffffffffffffffffffffffff168273ffffffffffffffffffffffffffffffffffffffff167fddf252ad1be2c89b69c2b068fc378daa952ba7f163c4a11628f55a4df523b3ef836040518082815260200191505060405180910390a35050565b6000613d6383836040518060400160405280601e81526020017f536166654d6174683a207375627472616374696f6e206f766572666c6f770000815250612d1e565b905092915050565b600073ffffffffffffffffffffffffffffffffffffffff168273ffffffffffffffffffffffffffffffffffffffff161415613e0e576040517f08c379a000000000000000000000000000000000000000000000000000000000815260040180806020018281038252601f8152602001807f45524332303a206d696e7420746f20746865207a65726f20616464726573730081525060200191505060405180910390fd5b613e1a60008383613f34565b613e2f816003546127fd90919063ffffffff16565b600381905550613e8781600160008573ffffffffffffffffffffffffffffffffffffffff1673ffffffffffffffffffffffffffffffffffffffff168152602001908152602001600020546127fd90919063ffffffff16565b600160008473ffffffffffffffffffffffffffffffffffffffff1673ffffffffffffffffffffffffffffffffffffffff168152602001908152602001600020819055508173ffffffffffffffffffffffffffffffffffffffff16600073ffffffffffffffffffffffffffffffffffffffff167fddf252ad1be2c89b69c2b068fc378daa952ba7f163c4a11628f55a4df523b3ef836040518082815260200191505060405180910390a35050565b505050565b600080831415613f4c5760009050613fb9565b6000828402905082848281613f5d57fe5b0414613fb4576040517f08c379a00000000000000000000000000000000000000000000000000000000081526004018080602001828103825260218152602001806140f86021913960400191505060405180910390fd5b809150505b92915050565b600081604051602001808273ffffffffffffffffffffffffffffffffffffffff1673ffffffffffffffffffffffffffffffffffffffff1660601b8152601401915050604051602081830303815290604052805190602001209050919050565b80600f60006101000a81548173ffffffffffffffffffffffffffffffffffffffff021916908373ffffffffffffffffffffffffffffffffffffffff16021790555050565b60004290509056fe45524332303a207472616e7366657220746f20746865207a65726f206164647265737345524332303a206275726e20616d6f756e7420657863656564732062616c616e636545524332303a20617070726f766520746f20746865207a65726f206164647265737345524332303a207472616e7366657220616d6f756e7420657863656564732062616c616e6365536166654d6174683a206d756c7469706c69636174696f6e206f766572666c6f7745524332303a207472616e7366657220616d6f756e74206578636565647320616c6c6f77616e63655461726765742062616c616e63652073686f756c64206265203e207468616e203045524332303a206275726e2066726f6d20746865207a65726f206164647265737352656769737465722061206e657720706c6179657220636f737473203120657468657245524332303a207472616e736665722066726f6d20746865207a65726f206164647265737345524332303a20617070726f76652066726f6d20746865207a65726f206164647265737345524332303a2064656372656173656420616c6c6f77616e63652062656c6f77207a65726fa264697066735822122091749ed00d9ab8360e5d7c4a4516572152570b1b5c6388727412f7f0a0da609664736f6c63430006020033",
  "source": "import \"./utils/Imports.sol\";\nimport \"../Game_Controls/Players.sol\";\nimport \"../Game_Controls/Bank.sol\";\nimport \"@openzeppelin/contracts/math/SafeMath.sol\";\n\n/**\n* @dev Player must registere itself to play.\n*      Player must call addPlayer().\n*/\n\npragma solidity 0.6.2;\n\ncontract Main is Players, Bank, Imports {\n\n  using SafeMath for uint256;\n\n  uint256 constant rewardAmount = 10 ** 19; // 10 tokens\n\n  constructor () Bank() public {}\n\n  function welcome (uint256 _password) public onlyPlayer {\n    bool result = _welcomePlayer(_password);\n    if (result == true) canPay(0);\n  }\n\n  /**\n  * @dev Contract can be found in Game > Levels > Level_0.\n  *      lvl = 0;\n  */\n  function playLevel0 (address _playerContractAddress) public onlyPlayer {\n    ent_0(_playerContractAddress);\n    canPay(0);\n  }\n\n  /**\n  * @dev Contract can be found in Game > Levels > Level_1.\n  *      lvl = 1;\n  */\n  function playLevel1 () public onlyPlayer {\n    if (timer[msg.sender] >= now) {\n      canPay(1);\n    } else {\n      reset (msg.sender);\n    }\n  }\n\n  /**\n  * @dev Contract can be found in Game > Levels > Level_2.\n  *      lvl = 2;\n  */\n  function playLevel2 (uint256 _n) public onlyPlayer {\n    bool check;\n    check = go(_n);\n    require (check);\n    canPay(2);\n  }\n\n  /**\n  * @dev Contract can be found in Game > Levels > Level_3.\n  *      lvl = 3;\n  */\n  function playLevel3 (address _owner) public onlyPlayer {\n    bool check;\n    check = findIt(_owner);\n    require (check);\n    canPay(3);\n  }\n\n  /**\n  * @dev Contract can be found in Game > Levels > Level_4.\n  *      lvl = 4;\n  */\n  function playLevel4 (address _playerContractAddress) public onlyPlayer {\n    bool check;\n    check = playERC(_playerContractAddress);\n    require (check);\n    canPay(4);\n  }\n\n  function playLevel5 () public onlyPlayer {\n\n  }\n\n  /**\n  * @dev Verify that the _lvlN is not completed already.\n  *      Each time a level is completed and the IRT token is mint,\n  *      completedLevels get the _lvlN pushed.\n  *      It avoids muiltiple minting for the same level.\n  * @notice verifyCapOverflow() makes sure that no token is minted if\n  *         it overflows total token cap.\n  */\n  function canPay (uint256 _lvlN) private returns (bool){\n    if(players[msg.sender].completeLevels[_lvlN] == true) {\n      return false;\n    }\n    players[msg.sender].completeLevels[_lvlN] = true;\n    mintIRT (msg.sender,rewardAmount);\n  }\n\n  /**\n  * @dev Each IRT grants 1 level.\n  * @param _amount Has to be 10 ** 18 or mutiple.\n  * @notice _amount 1.2 IRT will result in 1 IRT burnt.\n  */\n  function levelUp (uint256 _amount) public onlyPlayer {\n    require (_amount >= 10 ** 18);\n    uint256 base = _amount.div(1 ether);\n    uint256 toBurn = base * (10**18);\n    burnIRT(toBurn);\n    players[msg.sender].playerLevel = players[msg.sender].playerLevel.add(base);\n  }\n\n}\n",
  "sourcePath": "/Users/dan/Documents/Coding/Solidity/New_Projects/Contracts/IotDevsGame/contracts/Game/Main.sol",
  "compiler": {
    "name": "solc",
    "version": "0.6.2+commit.bacdbe57.Emscripten.clang"
  },
  "schemaVersion": "3.2.2",
  "updatedAt": "2020-09-22T18:20:04.330Z",
  "networkType": "ethereum",
  "devdoc": {
    "methods": {
      "addPlayer()": {
        "details": "Enable a new player."
      },
      "allowance(address,address)": {
        "details": "See {IERC20-allowance}."
      },
      "approve(address,uint256)": {
        "details": "See {IERC20-approve}.     * Requirements:     * - `spender` cannot be the zero address."
      },
      "balanceOf(address)": {
        "details": "See {IERC20-balanceOf}."
      },
      "decimals()": {
        "details": "Returns the number of decimals used to get its user representation. For example, if `decimals` equals `2`, a balance of `505` tokens should be displayed to a user as `5,05` (`505 / 10 ** 2`).     * Tokens usually opt for a value of 18, imitating the relationship between Ether and Wei. This is the value {ERC20} uses, unless {_setupDecimals} is called.     * NOTE: This information is only used for _display_ purposes: it in no way affects any of the arithmetic of the contract, including {IERC20-balanceOf} and {IERC20-transfer}."
      },
      "decreaseAllowance(address,uint256)": {
        "details": "Atomically decreases the allowance granted to `spender` by the caller.     * This is an alternative to {approve} that can be used as a mitigation for problems described in {IERC20-approve}.     * Emits an {Approval} event indicating the updated allowance.     * Requirements:     * - `spender` cannot be the zero address. - `spender` must have allowance for the caller of at least `subtractedValue`."
      },
      "getTotalCap()": {
        "details": "Returns the total IRT cap."
      },
      "increaseAllowance(address,uint256)": {
        "details": "Atomically increases the allowance granted to `spender` by the caller.     * This is an alternative to {approve} that can be used as a mitigation for problems described in {IERC20-approve}.     * Emits an {Approval} event indicating the updated allowance.     * Requirements:     * - `spender` cannot be the zero address."
      },
      "levelUp(uint256)": {
        "details": "Each IRT grants 1 level.",
        "params": {
          "_amount": "Has to be 10 ** 18 or mutiple."
        }
      },
      "name()": {
        "details": "Returns the name of the token."
      },
      "playLevel0(address)": {
        "details": "Contract can be found in Game > Levels > Level_0.     lvl = 0;"
      },
      "playLevel1()": {
        "details": "Contract can be found in Game > Levels > Level_1.     lvl = 1;"
      },
      "playLevel2(uint256)": {
        "details": "Contract can be found in Game > Levels > Level_2.     lvl = 2;"
      },
      "playLevel3(address)": {
        "details": "Contract can be found in Game > Levels > Level_3.     lvl = 3;"
      },
      "playLevel4(address)": {
        "details": "Contract can be found in Game > Levels > Level_4.     lvl = 4;"
      },
      "removePlayer()": {
        "details": "A player can disable itself."
      },
      "symbol()": {
        "details": "Returns the symbol of the token, usually a shorter version of the name."
      },
      "totalSupply()": {
        "details": "See {IERC20-totalSupply}."
      },
      "transfer(address,uint256)": {
        "details": "See {IERC20-transfer}.     * Requirements:     * - `recipient` cannot be the zero address. - the caller must have a balance of at least `amount`."
      },
      "transferFrom(address,address,uint256)": {
        "details": "See {IERC20-transferFrom}.     * Emits an {Approval} event indicating the updated allowance. This is not required by the EIP. See the note at the beginning of {ERC20};     * Requirements: - `sender` and `recipient` cannot be the zero address. - `sender` must have a balance of at least `amount`. - the caller must have allowance for ``sender``'s tokens of at least `amount`."
      }
    }
  },
  "userdoc": {
    "methods": {
      "addPlayer()": {
        "notice": "Registration cost is 1 ether."
      },
      "levelUp(uint256)": {
        "notice": "_amount 1.2 IRT will result in 1 IRT burnt."
      }
    }
  }
}