{
  "contractName": "Main",
  "abi": [
    {
      "inputs": [],
      "stateMutability": "nonpayable",
      "type": "constructor"
    },
    {
      "anonymous": false,
      "inputs": [
        {
          "indexed": true,
          "internalType": "address",
          "name": "owner",
          "type": "address"
        },
        {
          "indexed": true,
          "internalType": "address",
          "name": "spender",
          "type": "address"
        },
        {
          "indexed": false,
          "internalType": "uint256",
          "name": "value",
          "type": "uint256"
        }
      ],
      "name": "Approval",
      "type": "event"
    },
    {
      "anonymous": false,
      "inputs": [
        {
          "indexed": true,
          "internalType": "address",
          "name": "from",
          "type": "address"
        },
        {
          "indexed": true,
          "internalType": "address",
          "name": "to",
          "type": "address"
        },
        {
          "indexed": false,
          "internalType": "uint256",
          "name": "value",
          "type": "uint256"
        }
      ],
      "name": "Transfer",
      "type": "event"
    },
    {
      "anonymous": false,
      "inputs": [
        {
          "indexed": false,
          "internalType": "uint256",
          "name": "",
          "type": "uint256"
        }
      ],
      "name": "random",
      "type": "event"
    },
    {
      "inputs": [],
      "name": "addPlayer",
      "outputs": [],
      "stateMutability": "payable",
      "type": "function",
      "payable": true
    },
    {
      "inputs": [
        {
          "internalType": "address",
          "name": "owner",
          "type": "address"
        },
        {
          "internalType": "address",
          "name": "spender",
          "type": "address"
        }
      ],
      "name": "allowance",
      "outputs": [
        {
          "internalType": "uint256",
          "name": "",
          "type": "uint256"
        }
      ],
      "stateMutability": "view",
      "type": "function",
      "constant": true
    },
    {
      "inputs": [
        {
          "internalType": "address",
          "name": "spender",
          "type": "address"
        },
        {
          "internalType": "uint256",
          "name": "amount",
          "type": "uint256"
        }
      ],
      "name": "approve",
      "outputs": [
        {
          "internalType": "bool",
          "name": "",
          "type": "bool"
        }
      ],
      "stateMutability": "nonpayable",
      "type": "function"
    },
    {
      "inputs": [
        {
          "internalType": "address",
          "name": "account",
          "type": "address"
        }
      ],
      "name": "balanceOf",
      "outputs": [
        {
          "internalType": "uint256",
          "name": "",
          "type": "uint256"
        }
      ],
      "stateMutability": "view",
      "type": "function",
      "constant": true
    },
    {
      "inputs": [
        {
          "internalType": "address",
          "name": "",
          "type": "address"
        }
      ],
      "name": "completedLevels",
      "outputs": [
        {
          "internalType": "uint256",
          "name": "",
          "type": "uint256"
        }
      ],
      "stateMutability": "view",
      "type": "function",
      "constant": true
    },
    {
      "inputs": [],
      "name": "decimals",
      "outputs": [
        {
          "internalType": "uint8",
          "name": "",
          "type": "uint8"
        }
      ],
      "stateMutability": "view",
      "type": "function",
      "constant": true
    },
    {
      "inputs": [
        {
          "internalType": "address",
          "name": "spender",
          "type": "address"
        },
        {
          "internalType": "uint256",
          "name": "subtractedValue",
          "type": "uint256"
        }
      ],
      "name": "decreaseAllowance",
      "outputs": [
        {
          "internalType": "bool",
          "name": "",
          "type": "bool"
        }
      ],
      "stateMutability": "nonpayable",
      "type": "function"
    },
    {
      "inputs": [
        {
          "internalType": "address",
          "name": "_playerContractAddress",
          "type": "address"
        }
      ],
      "name": "ent_0",
      "outputs": [
        {
          "internalType": "bool",
          "name": "",
          "type": "bool"
        }
      ],
      "stateMutability": "nonpayable",
      "type": "function"
    },
    {
      "inputs": [
        {
          "internalType": "address",
          "name": "spender",
          "type": "address"
        },
        {
          "internalType": "uint256",
          "name": "addedValue",
          "type": "uint256"
        }
      ],
      "name": "increaseAllowance",
      "outputs": [
        {
          "internalType": "bool",
          "name": "",
          "type": "bool"
        }
      ],
      "stateMutability": "nonpayable",
      "type": "function"
    },
    {
      "inputs": [],
      "name": "name",
      "outputs": [
        {
          "internalType": "string",
          "name": "",
          "type": "string"
        }
      ],
      "stateMutability": "view",
      "type": "function",
      "constant": true
    },
    {
      "inputs": [
        {
          "internalType": "address",
          "name": "",
          "type": "address"
        }
      ],
      "name": "players",
      "outputs": [
        {
          "internalType": "bool",
          "name": "isPlayer",
          "type": "bool"
        },
        {
          "internalType": "uint256",
          "name": "playerLevel",
          "type": "uint256"
        }
      ],
      "stateMutability": "view",
      "type": "function",
      "constant": true
    },
    {
      "inputs": [],
      "name": "r",
      "outputs": [],
      "stateMutability": "nonpayable",
      "type": "function"
    },
    {
      "inputs": [],
      "name": "removePlayer",
      "outputs": [],
      "stateMutability": "nonpayable",
      "type": "function"
    },
    {
      "inputs": [],
      "name": "symbol",
      "outputs": [
        {
          "internalType": "string",
          "name": "",
          "type": "string"
        }
      ],
      "stateMutability": "view",
      "type": "function",
      "constant": true
    },
    {
      "inputs": [
        {
          "internalType": "address",
          "name": "",
          "type": "address"
        }
      ],
      "name": "timer",
      "outputs": [
        {
          "internalType": "uint256",
          "name": "",
          "type": "uint256"
        }
      ],
      "stateMutability": "view",
      "type": "function",
      "constant": true
    },
    {
      "inputs": [],
      "name": "totalSupply",
      "outputs": [
        {
          "internalType": "uint256",
          "name": "",
          "type": "uint256"
        }
      ],
      "stateMutability": "view",
      "type": "function",
      "constant": true
    },
    {
      "inputs": [
        {
          "internalType": "address",
          "name": "recipient",
          "type": "address"
        },
        {
          "internalType": "uint256",
          "name": "amount",
          "type": "uint256"
        }
      ],
      "name": "transfer",
      "outputs": [
        {
          "internalType": "bool",
          "name": "",
          "type": "bool"
        }
      ],
      "stateMutability": "nonpayable",
      "type": "function"
    },
    {
      "inputs": [
        {
          "internalType": "address",
          "name": "sender",
          "type": "address"
        },
        {
          "internalType": "address",
          "name": "recipient",
          "type": "address"
        },
        {
          "internalType": "uint256",
          "name": "amount",
          "type": "uint256"
        }
      ],
      "name": "transferFrom",
      "outputs": [
        {
          "internalType": "bool",
          "name": "",
          "type": "bool"
        }
      ],
      "stateMutability": "nonpayable",
      "type": "function"
    },
    {
      "inputs": [],
      "name": "unlockA",
      "outputs": [],
      "stateMutability": "nonpayable",
      "type": "function"
    },
    {
      "inputs": [
        {
          "internalType": "uint8",
          "name": "_n",
          "type": "uint8"
        }
      ],
      "name": "unlockB",
      "outputs": [],
      "stateMutability": "nonpayable",
      "type": "function"
    },
    {
      "inputs": [
        {
          "internalType": "uint256",
          "name": "_n",
          "type": "uint256"
        }
      ],
      "name": "unlockC",
      "outputs": [],
      "stateMutability": "nonpayable",
      "type": "function"
    },
    {
      "inputs": [
        {
          "internalType": "address",
          "name": "_playerContractAddress",
          "type": "address"
        }
      ],
      "name": "playLevel0",
      "outputs": [],
      "stateMutability": "nonpayable",
      "type": "function"
    },
    {
      "inputs": [],
      "name": "playLevel1",
      "outputs": [],
      "stateMutability": "nonpayable",
      "type": "function"
    },
    {
      "inputs": [
        {
          "internalType": "uint256",
          "name": "_n",
          "type": "uint256"
        }
      ],
      "name": "playLevel2",
      "outputs": [],
      "stateMutability": "payable",
      "type": "function",
      "payable": true
    },
    {
      "inputs": [
        {
          "internalType": "uint256",
          "name": "_amount",
          "type": "uint256"
        }
      ],
      "name": "levelUp",
      "outputs": [],
      "stateMutability": "nonpayable",
      "type": "function"
    }
  ],
  "bytecode": "0x60806040526000600160006101000a81548173ffffffffffffffffffffffffffffffffffffffff021916908373ffffffffffffffffffffffffffffffffffffffff1602179055506040518060400160405280600f81526020017f4976616e526577617264546f6b656e0000000000000000000000000000000000815250600e90805190602001906200009392919062000511565b506040518060400160405280600381526020017f4952540000000000000000000000000000000000000000000000000000000000815250600f9080519060200190620000e192919062000511565b506002601055348015620000f457600080fd5b50600e8054600181600116156101000203166002900480601f0160208091040260200160405190810160405280929190818152602001828054600181600116156101000203166002900480156200018f5780601f1062000163576101008083540402835291602001916200018f565b820191906000526020600020905b8154815290600101906020018083116200017157829003601f168201915b5050505050600f8054600181600116156101000203166002900480601f0160208091040260200160405190810160405280929190818152602001828054600181600116156101000203166002900480156200022e5780601f1062000202576101008083540402835291602001916200022e565b820191906000526020600020905b8154815290600101906020018083116200021057829003601f168201915b505050505081600b90805190602001906200024b92919062000511565b5080600c90805190602001906200026492919062000511565b506012600d60006101000a81548160ff021916908360ff16021790555050506200029d33670de0b6b3a7640000620002a360201b60201c565b620005c0565b600073ffffffffffffffffffffffffffffffffffffffff168273ffffffffffffffffffffffffffffffffffffffff16141562000347576040517f08c379a000000000000000000000000000000000000000000000000000000000815260040180806020018281038252601f8152602001807f45524332303a206d696e7420746f20746865207a65726f20616464726573730081525060200191505060405180910390fd5b6200035b600083836200048360201b60201c565b6200037781600a546200048860201b62001c201790919060201c565b600a81905550620003d681600860008573ffffffffffffffffffffffffffffffffffffffff1673ffffffffffffffffffffffffffffffffffffffff168152602001908152602001600020546200048860201b62001c201790919060201c565b600860008473ffffffffffffffffffffffffffffffffffffffff1673ffffffffffffffffffffffffffffffffffffffff168152602001908152602001600020819055508173ffffffffffffffffffffffffffffffffffffffff16600073ffffffffffffffffffffffffffffffffffffffff167fddf252ad1be2c89b69c2b068fc378daa952ba7f163c4a11628f55a4df523b3ef836040518082815260200191505060405180910390a35050565b505050565b60008082840190508381101562000507576040517f08c379a000000000000000000000000000000000000000000000000000000000815260040180806020018281038252601b8152602001807f536166654d6174683a206164646974696f6e206f766572666c6f77000000000081525060200191505060405180910390fd5b8091505092915050565b828054600181600116156101000203166002900490600052602060002090601f016020900481019282601f106200055457805160ff191683800117855562000585565b8280016001018555821562000585579182015b828111156200058457825182559160200191906001019062000567565b5b50905062000594919062000598565b5090565b620005bd91905b80821115620005b95760008160009055506001016200059f565b5090565b90565b6129a680620005d06000396000f3fe6080604052600436106101665760003560e01c80636c8ae38c116100d1578063a9059cbb1161008a578063d5822d2b11610064578063d5822d2b146107c1578063dd62ed3e14610812578063e2eb41ff14610897578063ec45787c1461090757610166565b8063a9059cbb146106f9578063b147491e1461076c578063c707def61461078357610166565b80636c8ae38c146104fe57806370a082311461051557806387acb7221461057a5780638d52e1df146105df57806395d89b41146105f6578063a457c2d71461068657610166565b806327b5db8a1161012357806327b5db8a146103a2578063313ce567146103ac57806339509351146103dd5780634c25ccd0146104505780635245d733146104b9578063534d4ec3146104e757610166565b806306fdde031461016b578063095ea7b3146101fb5780630ce90ec21461026e57806318160ddd146102a95780632044ea5a146102d457806323b872dd1461030f575b600080fd5b34801561017757600080fd5b5061018061096c565b6040518080602001828103825283818151815260200191508051906020019080838360005b838110156101c05780820151818401526020810190506101a5565b50505050905090810190601f1680156101ed5780820380516001836020036101000a031916815260200191505b509250505060405180910390f35b34801561020757600080fd5b506102546004803603604081101561021e57600080fd5b81019080803573ffffffffffffffffffffffffffffffffffffffff16906020019092919080359060200190929190505050610a0e565b604051808215151515815260200191505060405180910390f35b34801561027a57600080fd5b506102a76004803603602081101561029157600080fd5b8101908080359060200190929190505050610a2c565b005b3480156102b557600080fd5b506102be610b98565b6040518082815260200191505060405180910390f35b3480156102e057600080fd5b5061030d600480360360208110156102f757600080fd5b8101908080359060200190929190505050610ba2565b005b34801561031b57600080fd5b506103886004803603606081101561033257600080fd5b81019080803573ffffffffffffffffffffffffffffffffffffffff169060200190929190803573ffffffffffffffffffffffffffffffffffffffff16906020019092919080359060200190929190505050610cb6565b604051808215151515815260200191505060405180910390f35b6103aa610d8f565b005b3480156103b857600080fd5b506103c1610e4b565b604051808260ff1660ff16815260200191505060405180910390f35b3480156103e957600080fd5b506104366004803603604081101561040057600080fd5b81019080803573ffffffffffffffffffffffffffffffffffffffff16906020019092919080359060200190929190505050610e62565b604051808215151515815260200191505060405180910390f35b34801561045c57600080fd5b5061049f6004803603602081101561047357600080fd5b81019080803573ffffffffffffffffffffffffffffffffffffffff169060200190929190505050610f15565b604051808215151515815260200191505060405180910390f35b6104e5600480360360208110156104cf57600080fd5b810190808035906020019092919050505061108f565b005b3480156104f357600080fd5b506104fc61117c565b005b34801561050a57600080fd5b5061051361122a565b005b34801561052157600080fd5b506105646004803603602081101561053857600080fd5b81019080803573ffffffffffffffffffffffffffffffffffffffff1690602001909291905050506112b7565b6040518082815260200191505060405180910390f35b34801561058657600080fd5b506105c96004803603602081101561059d57600080fd5b81019080803573ffffffffffffffffffffffffffffffffffffffff169060200190929190505050611300565b6040518082815260200191505060405180910390f35b3480156105eb57600080fd5b506105f4611318565b005b34801561060257600080fd5b5061060b611433565b6040518080602001828103825283818151815260200191508051906020019080838360005b8381101561064b578082015181840152602081019050610630565b50505050905090810190601f1680156106785780820380516001836020036101000a031916815260200191505b509250505060405180910390f35b34801561069257600080fd5b506106df600480360360408110156106a957600080fd5b81019080803573ffffffffffffffffffffffffffffffffffffffff169060200190929190803590602001909291905050506114d5565b604051808215151515815260200191505060405180910390f35b34801561070557600080fd5b506107526004803603604081101561071c57600080fd5b81019080803573ffffffffffffffffffffffffffffffffffffffff169060200190929190803590602001909291905050506115a2565b604051808215151515815260200191505060405180910390f35b34801561077857600080fd5b506107816115c0565b005b34801561078f57600080fd5b506107bf600480360360208110156107a657600080fd5b81019080803560ff1690602001909291905050506116e9565b005b3480156107cd57600080fd5b50610810600480360360208110156107e457600080fd5b81019080803573ffffffffffffffffffffffffffffffffffffffff16906020019092919050505061180d565b005b34801561081e57600080fd5b506108816004803603604081101561083557600080fd5b81019080803573ffffffffffffffffffffffffffffffffffffffff169060200190929190803573ffffffffffffffffffffffffffffffffffffffff1690602001909291905050506118ec565b6040518082815260200191505060405180910390f35b3480156108a357600080fd5b506108e6600480360360208110156108ba57600080fd5b81019080803573ffffffffffffffffffffffffffffffffffffffff169060200190929190505050611973565b60405180831515151581526020018281526020019250505060405180910390f35b34801561091357600080fd5b506109566004803603602081101561092a57600080fd5b81019080803573ffffffffffffffffffffffffffffffffffffffff1690602001909291905050506119a4565b6040518082815260200191505060405180910390f35b6060600b8054600181600116156101000203166002900480601f016020809104026020016040519081016040528092919081815260200182805460018160011615610100020316600290048015610a045780601f106109d957610100808354040283529160200191610a04565b820191906000526020600020905b8154815290600101906020018083116109e757829003601f168201915b5050505050905090565b6000610a22610a1b6119bc565b84846119c4565b6001905092915050565b600115156000803373ffffffffffffffffffffffffffffffffffffffff1673ffffffffffffffffffffffffffffffffffffffff16815260200190815260200160002060000160009054906101000a900460ff16151514610af4576040517f08c379a000000000000000000000000000000000000000000000000000000000815260040180806020018281038252600e8152602001807f4e6f207375636820706c6179657200000000000000000000000000000000000081525060200191505060405180910390fd5b670de0b6b3a7640000811015610b0957600080fd5b6000610b1482611bbb565b9050610b1f81611c00565b610b2857600080fd5b6000670de0b6b3a76400008281610b3b57fe5b049050610b92816000803373ffffffffffffffffffffffffffffffffffffffff1673ffffffffffffffffffffffffffffffffffffffff16815260200190815260200160002060010154611c2090919063ffffffff16565b50505050565b6000600a54905090565b6000600360003373ffffffffffffffffffffffffffffffffffffffff1673ffffffffffffffffffffffffffffffffffffffff16815260200190815260200160002060009054906101000a900460ff1660ff161415610bff57600080fd5b600660003373ffffffffffffffffffffffffffffffffffffffff1673ffffffffffffffffffffffffffffffffffffffff168152602001908152602001600020548114610c5257610c4d61122a565b610cb3565b610c5a611ca8565b6001600460003373ffffffffffffffffffffffffffffffffffffffff1673ffffffffffffffffffffffffffffffffffffffff16815260200190815260200160002060006101000a81548160ff0219169083151502179055505b50565b6000610cc3848484611cf2565b610d8484610ccf6119bc565b610d7f8560405180606001604052806028815260200161287660289139600960008b73ffffffffffffffffffffffffffffffffffffffff1673ffffffffffffffffffffffffffffffffffffffff1681526020019081526020016000206000610d356119bc565b73ffffffffffffffffffffffffffffffffffffffff1673ffffffffffffffffffffffffffffffffffffffff16815260200190815260200160002054611fb79092919063ffffffff16565b6119c4565b600190509392505050565b670de0b6b3a76400003414610def576040517f08c379a00000000000000000000000000000000000000000000000000000000081526004018080602001828103825260238152602001806128e06023913960400191505060405180910390fd5b60016000803373ffffffffffffffffffffffffffffffffffffffff1673ffffffffffffffffffffffffffffffffffffffff16815260200190815260200160002060000160006101000a81548160ff021916908315150217905550565b6000600d60009054906101000a900460ff16905090565b6000610f0b610e6f6119bc565b84610f068560096000610e806119bc565b73ffffffffffffffffffffffffffffffffffffffff1673ffffffffffffffffffffffffffffffffffffffff16815260200190815260200160002060008973ffffffffffffffffffffffffffffffffffffffff1673ffffffffffffffffffffffffffffffffffffffff16815260200190815260200160002054611c2090919063ffffffff16565b6119c4565b6001905092915050565b6000806000610f2384612077565b610f2b6120bb565b9150600160009054906101000a900473ffffffffffffffffffffffffffffffffffffffff1673ffffffffffffffffffffffffffffffffffffffff166361dfdae6836040518263ffffffff1660e01b8152600401808273ffffffffffffffffffffffffffffffffffffffff1673ffffffffffffffffffffffffffffffffffffffff168152602001915050602060405180830381600087803b158015610fce57600080fd5b505af1158015610fe2573d6000803e3d6000fd5b505050506040513d6020811015610ff857600080fd5b8101908080519060200190929190505050905080801561102f575060008273ffffffffffffffffffffffffffffffffffffffff1631115b611084576040517f08c379a000000000000000000000000000000000000000000000000000000000815260040180806020018281038252602181526020018061289e6021913960400191505060405180910390fd5b600192505050919050565b600115156000803373ffffffffffffffffffffffffffffffffffffffff1673ffffffffffffffffffffffffffffffffffffffff16815260200190815260200160002060000160009054906101000a900460ff16151514611157576040517f08c379a000000000000000000000000000000000000000000000000000000000815260040180806020018281038252600e8152602001807f4e6f207375636820706c6179657200000000000000000000000000000000000081525060200191505060405180910390fd5b6000611162826120c3565b90508061116e57600080fd5b6111786002612154565b5050565b67016345785d8a0000600560003373ffffffffffffffffffffffffffffffffffffffff1673ffffffffffffffffffffffffffffffffffffffff16815260200190815260200160002054116111cf57600080fd5b6032600260003373ffffffffffffffffffffffffffffffffffffffff1673ffffffffffffffffffffffffffffffffffffffff16815260200190815260200160002060006101000a81548160ff021916908360ff160217905550565b600060ff428161123657fe5b06905080600660003373ffffffffffffffffffffffffffffffffffffffff1673ffffffffffffffffffffffffffffffffffffffff168152602001908152602001600020819055507fb863bd3729546d4186efd003c567348f9deb7087f4632b9046c39adb8008c19f816040518082815260200191505060405180910390a150565b6000600860008373ffffffffffffffffffffffffffffffffffffffff1673ffffffffffffffffffffffffffffffffffffffff168152602001908152602001600020549050919050565b60116020528060005260406000206000915090505481565b600115156000803373ffffffffffffffffffffffffffffffffffffffff1673ffffffffffffffffffffffffffffffffffffffff16815260200190815260200160002060000160009054906101000a900460ff161515146113e0576040517f08c379a000000000000000000000000000000000000000000000000000000000815260040180806020018281038252600e8152602001807f4e6f207375636820706c6179657200000000000000000000000000000000000081525060200191505060405180910390fd5b6000803373ffffffffffffffffffffffffffffffffffffffff1673ffffffffffffffffffffffffffffffffffffffff16815260200190815260200160002060000160006101000a81549060ff0219169055565b6060600c8054600181600116156101000203166002900480601f0160208091040260200160405190810160405280929190818152602001828054600181600116156101000203166002900480156114cb5780601f106114a0576101008083540402835291602001916114cb565b820191906000526020600020905b8154815290600101906020018083116114ae57829003601f168201915b5050505050905090565b60006115986114e26119bc565b846115938560405180606001604052806025815260200161294c602591396009600061150c6119bc565b73ffffffffffffffffffffffffffffffffffffffff1673ffffffffffffffffffffffffffffffffffffffff16815260200190815260200160002060008a73ffffffffffffffffffffffffffffffffffffffff1673ffffffffffffffffffffffffffffffffffffffff16815260200190815260200160002054611fb79092919063ffffffff16565b6119c4565b6001905092915050565b60006115b66115af6119bc565b8484611cf2565b6001905092915050565b600115156000803373ffffffffffffffffffffffffffffffffffffffff1673ffffffffffffffffffffffffffffffffffffffff16815260200190815260200160002060000160009054906101000a900460ff16151514611688576040517f08c379a000000000000000000000000000000000000000000000000000000000815260040180806020018281038252600e8152602001807f4e6f207375636820706c6179657200000000000000000000000000000000000081525060200191505060405180910390fd5b42600760003373ffffffffffffffffffffffffffffffffffffffff1673ffffffffffffffffffffffffffffffffffffffff16815260200190815260200160002054106116dd576116d86001612154565b6116e7565b6116e633612294565b5b565b600260003373ffffffffffffffffffffffffffffffffffffffff1673ffffffffffffffffffffffffffffffffffffffff16815260200190815260200160002060009054906101000a900460ff1660ff168160ff161061174757600080fd5b60008160ff16600260003373ffffffffffffffffffffffffffffffffffffffff1673ffffffffffffffffffffffffffffffffffffffff16815260200190815260200160002060009054906101000a900460ff1660ff16816117a457fe5b0660ff16146117b257600080fd5b80600360003373ffffffffffffffffffffffffffffffffffffffff1673ffffffffffffffffffffffffffffffffffffffff16815260200190815260200160002060006101000a81548160ff021916908360ff16021790555050565b600115156000803373ffffffffffffffffffffffffffffffffffffffff1673ffffffffffffffffffffffffffffffffffffffff16815260200190815260200160002060000160009054906101000a900460ff161515146118d5576040517f08c379a000000000000000000000000000000000000000000000000000000000815260040180806020018281038252600e8152602001807f4e6f207375636820706c6179657200000000000000000000000000000000000081525060200191505060405180910390fd5b6118de81610f15565b506118e96000612154565b50565b6000600960008473ffffffffffffffffffffffffffffffffffffffff1673ffffffffffffffffffffffffffffffffffffffff16815260200190815260200160002060008373ffffffffffffffffffffffffffffffffffffffff1673ffffffffffffffffffffffffffffffffffffffff16815260200190815260200160002054905092915050565b60006020528060005260406000206000915090508060000160009054906101000a900460ff16908060010154905082565b60076020528060005260406000206000915090505481565b600033905090565b600073ffffffffffffffffffffffffffffffffffffffff168373ffffffffffffffffffffffffffffffffffffffff161415611a4a576040517f08c379a00000000000000000000000000000000000000000000000000000000081526004018080602001828103825260248152602001806129286024913960400191505060405180910390fd5b600073ffffffffffffffffffffffffffffffffffffffff168273ffffffffffffffffffffffffffffffffffffffff161415611ad0576040517f08c379a000000000000000000000000000000000000000000000000000000000815260040180806020018281038252602281526020018061282e6022913960400191505060405180910390fd5b80600960008573ffffffffffffffffffffffffffffffffffffffff1673ffffffffffffffffffffffffffffffffffffffff16815260200190815260200160002060008473ffffffffffffffffffffffffffffffffffffffff1673ffffffffffffffffffffffffffffffffffffffff168152602001908152602001600020819055508173ffffffffffffffffffffffffffffffffffffffff168373ffffffffffffffffffffffffffffffffffffffff167f8c5be1e5ebec7d5bd14f71427d1e84f3dd0314c0f7b2291e5b200ac8c7c3b925836040518082815260200191505060405180910390a3505050565b600080670de0b6b3a7640000905060008190505b600115611bf8578181018410611be9578181019050611bf3565b8092505050611bfb565b611bcf565b50505b919050565b6000611c0c3083610e62565b50611c17338361240a565b60019050919050565b600080828401905083811015611c9e576040517f08c379a000000000000000000000000000000000000000000000000000000000815260040180806020018281038252601b8152602001807f536166654d6174683a206164646974696f6e206f766572666c6f77000000000081525060200191505060405180910390fd5b8091505092915050565b61012c4201600760003373ffffffffffffffffffffffffffffffffffffffff1673ffffffffffffffffffffffffffffffffffffffff16815260200190815260200160002081905550565b600073ffffffffffffffffffffffffffffffffffffffff168373ffffffffffffffffffffffffffffffffffffffff161415611d78576040517f08c379a00000000000000000000000000000000000000000000000000000000081526004018080602001828103825260258152602001806129036025913960400191505060405180910390fd5b600073ffffffffffffffffffffffffffffffffffffffff168273ffffffffffffffffffffffffffffffffffffffff161415611dfe576040517f08c379a00000000000000000000000000000000000000000000000000000000081526004018080602001828103825260238152602001806127e96023913960400191505060405180910390fd5b611e098383836125d0565b611e758160405180606001604052806026815260200161285060269139600860008773ffffffffffffffffffffffffffffffffffffffff1673ffffffffffffffffffffffffffffffffffffffff16815260200190815260200160002054611fb79092919063ffffffff16565b600860008573ffffffffffffffffffffffffffffffffffffffff1673ffffffffffffffffffffffffffffffffffffffff16815260200190815260200160002081905550611f0a81600860008573ffffffffffffffffffffffffffffffffffffffff1673ffffffffffffffffffffffffffffffffffffffff16815260200190815260200160002054611c2090919063ffffffff16565b600860008473ffffffffffffffffffffffffffffffffffffffff1673ffffffffffffffffffffffffffffffffffffffff168152602001908152602001600020819055508173ffffffffffffffffffffffffffffffffffffffff168373ffffffffffffffffffffffffffffffffffffffff167fddf252ad1be2c89b69c2b068fc378daa952ba7f163c4a11628f55a4df523b3ef836040518082815260200191505060405180910390a3505050565b6000838311158290612064576040517f08c379a00000000000000000000000000000000000000000000000000000000081526004018080602001828103825283818151815260200191508051906020019080838360005b8381101561202957808201518184015260208101905061200e565b50505050905090810190601f1680156120565780820380516001836020036101000a031916815260200191505b509250505060405180910390fd5b5060008385039050809150509392505050565b80600160006101000a81548173ffffffffffffffffffffffffffffffffffffffff021916908373ffffffffffffffffffffffffffffffffffffffff16021790555050565b600042905090565b600080821180156120d957506010546010548302105b61214b576040517f08c379a00000000000000000000000000000000000000000000000000000000081526004018080602001828103825260068152602001807f6661696c6564000000000000000000000000000000000000000000000000000081525060200191505060405180910390fd5b60019050919050565b60008090505b6000803373ffffffffffffffffffffffffffffffffffffffff1673ffffffffffffffffffffffffffffffffffffffff1681526020019081526020016000206002018054905081101561221657816000803373ffffffffffffffffffffffffffffffffffffffff1673ffffffffffffffffffffffffffffffffffffffff16815260200190815260200160002060020182815481106121f357fe5b9060005260206000200154141561220957600080fd5b808060010191505061215a565b506000803373ffffffffffffffffffffffffffffffffffffffff1673ffffffffffffffffffffffffffffffffffffffff16815260200190815260200160002060020181908060018154018082558091505060019003906000526020600020016000909190919091505561229133670de0b6b3a76400006125d5565b50565b600260008273ffffffffffffffffffffffffffffffffffffffff1673ffffffffffffffffffffffffffffffffffffffff16815260200190815260200160002060006101000a81549060ff0219169055600360008273ffffffffffffffffffffffffffffffffffffffff1673ffffffffffffffffffffffffffffffffffffffff16815260200190815260200160002060006101000a81549060ff0219169055600460008273ffffffffffffffffffffffffffffffffffffffff1673ffffffffffffffffffffffffffffffffffffffff16815260200190815260200160002060006101000a81549060ff0219169055600660008273ffffffffffffffffffffffffffffffffffffffff1673ffffffffffffffffffffffffffffffffffffffff16815260200190815260200160002060009055600760008273ffffffffffffffffffffffffffffffffffffffff1673ffffffffffffffffffffffffffffffffffffffff1681526020019081526020016000206000905550565b600073ffffffffffffffffffffffffffffffffffffffff168273ffffffffffffffffffffffffffffffffffffffff161415612490576040517f08c379a00000000000000000000000000000000000000000000000000000000081526004018080602001828103825260218152602001806128bf6021913960400191505060405180910390fd5b61249c826000836125d0565b6125088160405180606001604052806022815260200161280c60229139600860008673ffffffffffffffffffffffffffffffffffffffff1673ffffffffffffffffffffffffffffffffffffffff16815260200190815260200160002054611fb79092919063ffffffff16565b600860008473ffffffffffffffffffffffffffffffffffffffff1673ffffffffffffffffffffffffffffffffffffffff1681526020019081526020016000208190555061256081600a5461279e90919063ffffffff16565b600a81905550600073ffffffffffffffffffffffffffffffffffffffff168273ffffffffffffffffffffffffffffffffffffffff167fddf252ad1be2c89b69c2b068fc378daa952ba7f163c4a11628f55a4df523b3ef836040518082815260200191505060405180910390a35050565b505050565b600073ffffffffffffffffffffffffffffffffffffffff168273ffffffffffffffffffffffffffffffffffffffff161415612678576040517f08c379a000000000000000000000000000000000000000000000000000000000815260040180806020018281038252601f8152602001807f45524332303a206d696e7420746f20746865207a65726f20616464726573730081525060200191505060405180910390fd5b612684600083836125d0565b61269981600a54611c2090919063ffffffff16565b600a819055506126f181600860008573ffffffffffffffffffffffffffffffffffffffff1673ffffffffffffffffffffffffffffffffffffffff16815260200190815260200160002054611c2090919063ffffffff16565b600860008473ffffffffffffffffffffffffffffffffffffffff1673ffffffffffffffffffffffffffffffffffffffff168152602001908152602001600020819055508173ffffffffffffffffffffffffffffffffffffffff16600073ffffffffffffffffffffffffffffffffffffffff167fddf252ad1be2c89b69c2b068fc378daa952ba7f163c4a11628f55a4df523b3ef836040518082815260200191505060405180910390a35050565b60006127e083836040518060400160405280601e81526020017f536166654d6174683a207375627472616374696f6e206f766572666c6f770000815250611fb7565b90509291505056fe45524332303a207472616e7366657220746f20746865207a65726f206164647265737345524332303a206275726e20616d6f756e7420657863656564732062616c616e636545524332303a20617070726f766520746f20746865207a65726f206164647265737345524332303a207472616e7366657220616d6f756e7420657863656564732062616c616e636545524332303a207472616e7366657220616d6f756e74206578636565647320616c6c6f77616e63655461726765742062616c616e63652073686f756c64206265203e207468616e203045524332303a206275726e2066726f6d20746865207a65726f206164647265737352656769737465722061206e657720706c6179657220636f737473203120657468657245524332303a207472616e736665722066726f6d20746865207a65726f206164647265737345524332303a20617070726f76652066726f6d20746865207a65726f206164647265737345524332303a2064656372656173656420616c6c6f77616e63652062656c6f77207a65726fa26469706673582212205624484b926dffef1b93f29d40d808e7d3b9cc4f8017db28a9d94fa688ee0e5664736f6c63430006020033",
  "source": "import \"./Easy/Level_0.sol\";\nimport \"./Easy/Level_1.sol\";\nimport \"./Easy/Level_2.sol\";\nimport \"../Game_Controls/Players.sol\";\nimport \"../Game_Controls/Bank.sol\";\nimport \"@openzeppelin/contracts/math/SafeMath.sol\";\nimport \"@openzeppelin/contracts/utils/Counters.sol\";\n\n/**\n* @dev Player must registere itself to play.\n*      Player must call addPlayer().\n*/\n\n\npragma solidity 0.6.2;\n\ncontract Main is Players, Entrance, TheGreatHall, Bank, ThinkBig{\n\n  using SafeMath for uint256;\n\n  /**\n  * @dev A mapping for completed lvl => address _player.\n  *      Avoid multiple payements for each level.\n  */\n  mapping (address => uint256) public completedLevels;\n\n  uint256 constant rewardAmount = 10 ** 18;\n\n  constructor () Bank() public {}\n\n  /**\n  * @dev Contract can be found in Game > Easy > Level_0.\n  * @dev lvl = 0;\n  */\n  function playLevel0 (address _playerContractAddress) public onlyPlayer {\n    ent_0(_playerContractAddress);\n    canPay(0);\n  }\n\n  /**\n  * @dev Contract can be found in Game > Easy > Level_1.\n  * @dev lvl = 1;\n  */\n  function playLevel1 () public onlyPlayer {\n    if (timer[msg.sender] >= now) {\n      canPay(1);\n    } else {\n      reset (msg.sender);\n    }\n  }\n\n  /**\n  * @dev Contract can be found in Game > Easy > Level_2.\n  * @dev lvl = 2;\n  */\n  function playLevel2 (uint256 _n) public payable onlyPlayer {\n    bool check;\n    check = go(_n);\n    require (check);\n    canPay(2);\n  }\n\n  /**\n  * @dev Verify that the _lvlN is not completed already.\n  *      Each time a level is completed and the IRT token is mint,\n  *      completedLevels get the _lvlN pushed.\n  *      It avoids muiltiple minting for the same level.\n  */\n  function canPay (uint256 _lvlN) private {\n    for (uint256 i=0;i<players[msg.sender].completeLevels.length;i++){\n      if(players[msg.sender].completeLevels[i]==_lvlN){revert();}\n    }\n    players[msg.sender].completeLevels.push(_lvlN);\n    _mint (msg.sender,rewardAmount);\n  }\n\n  /**\n  * @dev Each IRT grants 1 level.\n  * @param _amount Has to be 10 ** 18 or mutiple.\n  * @notice _amount 1.2 IRT will result in 1 ERT burnt.\n  */\n  function levelUp (uint256 _amount) public onlyPlayer {\n    require (_amount >= 10 ** 18);\n    uint256 amountToBurn = isMultiple(_amount);\n    require (burnIRT(amountToBurn));\n    uint256 increase = amountToBurn / 10 ** 18;\n    players[msg.sender].playerLevel.add(increase);\n  }\n\n}\n",
  "sourcePath": "/Users/dan/Documents/Coding/Solidity/New_Projects/Contracts/IotDevsGame/contracts/Game/Main.sol",
  "compiler": {
    "name": "solc",
    "version": "0.6.2+commit.bacdbe57.Emscripten.clang"
  },
  "schemaVersion": "3.0.23",
  "updatedAt": "2020-07-28T12:26:49.293Z",
  "networkType": "ethereum",
  "devdoc": {
    "methods": {
      "addPlayer()": {
        "details": "Enable a new player."
      },
      "allowance(address,address)": {
        "details": "See {IERC20-allowance}."
      },
      "approve(address,uint256)": {
        "details": "See {IERC20-approve}.     * Requirements:     * - `spender` cannot be the zero address."
      },
      "balanceOf(address)": {
        "details": "See {IERC20-balanceOf}."
      },
      "decimals()": {
        "details": "Returns the number of decimals used to get its user representation. For example, if `decimals` equals `2`, a balance of `505` tokens should be displayed to a user as `5,05` (`505 / 10 ** 2`).     * Tokens usually opt for a value of 18, imitating the relationship between Ether and Wei. This is the value {ERC20} uses, unless {_setupDecimals} is called.     * NOTE: This information is only used for _display_ purposes: it in no way affects any of the arithmetic of the contract, including {IERC20-balanceOf} and {IERC20-transfer}."
      },
      "decreaseAllowance(address,uint256)": {
        "details": "Atomically decreases the allowance granted to `spender` by the caller.     * This is an alternative to {approve} that can be used as a mitigation for problems described in {IERC20-approve}.     * Emits an {Approval} event indicating the updated allowance.     * Requirements:     * - `spender` cannot be the zero address. - `spender` must have allowance for the caller of at least `subtractedValue`."
      },
      "increaseAllowance(address,uint256)": {
        "details": "Atomically increases the allowance granted to `spender` by the caller.     * This is an alternative to {approve} that can be used as a mitigation for problems described in {IERC20-approve}.     * Emits an {Approval} event indicating the updated allowance.     * Requirements:     * - `spender` cannot be the zero address."
      },
      "levelUp(uint256)": {
        "details": "Each IRT grants 1 level.",
        "params": {
          "_amount": "Has to be 10 ** 18 or mutiple."
        }
      },
      "name()": {
        "details": "Returns the name of the token."
      },
      "playLevel0(address)": {
        "details": "Contract can be found in Game > Easy > Level_0.lvl = 0;"
      },
      "playLevel1()": {
        "details": "Contract can be found in Game > Easy > Level_1.lvl = 1;"
      },
      "playLevel2(uint256)": {
        "details": "Contract can be found in Game > Easy > Level_2.lvl = 2;"
      },
      "removePlayer()": {
        "details": "A player can disable itself."
      },
      "symbol()": {
        "details": "Returns the symbol of the token, usually a shorter version of the name."
      },
      "totalSupply()": {
        "details": "See {IERC20-totalSupply}."
      },
      "transfer(address,uint256)": {
        "details": "See {IERC20-transfer}.     * Requirements:     * - `recipient` cannot be the zero address. - the caller must have a balance of at least `amount`."
      },
      "transferFrom(address,address,uint256)": {
        "details": "See {IERC20-transferFrom}.     * Emits an {Approval} event indicating the updated allowance. This is not required by the EIP. See the note at the beginning of {ERC20};     * Requirements: - `sender` and `recipient` cannot be the zero address. - `sender` must have a balance of at least `amount`. - the caller must have allowance for ``sender``'s tokens of at least `amount`."
      }
    }
  },
  "userdoc": {
    "methods": {
      "addPlayer()": {
        "notice": "Registration cost is 1 ether."
      },
      "levelUp(uint256)": {
        "notice": "_amount 1.2 IRT will result in 1 ERT burnt."
      }
    }
  }
}