{
  "contractName": "Players",
  "abi": [
    {
      "inputs": [
        {
          "internalType": "address",
          "name": "",
          "type": "address"
        }
      ],
      "name": "players",
      "outputs": [
        {
          "internalType": "uint256",
          "name": "playerIRTamount",
          "type": "uint256"
        },
        {
          "internalType": "uint16",
          "name": "playerLevel",
          "type": "uint16"
        },
        {
          "internalType": "bool",
          "name": "isPlayer",
          "type": "bool"
        }
      ],
      "stateMutability": "view",
      "type": "function"
    },
    {
      "inputs": [],
      "name": "addPlayer",
      "outputs": [],
      "stateMutability": "payable",
      "type": "function"
    },
    {
      "inputs": [],
      "name": "removePlayer",
      "outputs": [],
      "stateMutability": "nonpayable",
      "type": "function"
    }
  ],
  "bytecode": "0x608060405234801561001057600080fd5b5061034e806100206000396000f3fe6080604052600436106100345760003560e01c806327b5db8a146100395780638d52e1df14610043578063e2eb41ff1461005a575b600080fd5b6100416100d9565b005b34801561004f57600080fd5b50610058610195565b005b34801561006657600080fd5b506100a96004803603602081101561007d57600080fd5b81019080803573ffffffffffffffffffffffffffffffffffffffff1690602001909291905050506102b0565b604051808481526020018361ffff1661ffff16815260200182151515158152602001935050505060405180910390f35b670de0b6b3a76400003414610139576040517f08c379a00000000000000000000000000000000000000000000000000000000081526004018080602001828103825260238152602001806102f66023913960400191505060405180910390fd5b60016000803373ffffffffffffffffffffffffffffffffffffffff1673ffffffffffffffffffffffffffffffffffffffff16815260200190815260200160002060010160026101000a81548160ff021916908315150217905550565b600115156000803373ffffffffffffffffffffffffffffffffffffffff1673ffffffffffffffffffffffffffffffffffffffff16815260200190815260200160002060010160029054906101000a900460ff1615151461025d576040517f08c379a000000000000000000000000000000000000000000000000000000000815260040180806020018281038252600e8152602001807f4e6f207375636820706c6179657200000000000000000000000000000000000081525060200191505060405180910390fd5b6000803373ffffffffffffffffffffffffffffffffffffffff1673ffffffffffffffffffffffffffffffffffffffff16815260200190815260200160002060010160026101000a81549060ff0219169055565b60006020528060005260406000206000915090508060000154908060010160009054906101000a900461ffff16908060010160029054906101000a900460ff1690508356fe52656769737465722061206e657720706c6179657220636f7374732031206574686572a2646970667358221220ce6326eb9507234acedf8d8a2010b12a7e76c843d78b1613e8e0abc60fd9b71e64736f6c63430006020033",
  "source": "import \"@openzeppelin/contracts/math/SafeMath.sol\";\nimport \"./Bank.sol\";\n\npragma solidity 0.6.2;\n\ncontract Players {\n\n  using SafeMath for uint256;\n  using SafeMath for uint16;\n\n  struct Player {\n    uint256 playerIRTamount;\n    uint16 playerLevel;\n    bool isPlayer;\n    mapping(uint => bool) completeLevels;\n  }\n\n  mapping (address => Player) public players;\n\n  /**\n  * @dev Require player is registered.\n  */\n  modifier onlyPlayer () {\n    require (players[msg.sender].isPlayer == true,\"No such player\");\n    _;\n  }\n\n  /**\n  * @dev Enable a new player.\n  * @notice Registration cost is 1 ether.\n  */\n  function addPlayer () public payable {\n    require (msg.value == 1 ether,\"Register a new player costs 1 ether\");\n    players[msg.sender].isPlayer = true;\n  }\n\n  /**\n  * @dev A player can disable itself.\n  */\n  function removePlayer () public onlyPlayer {\n    delete(players[msg.sender].isPlayer);\n  }\n\n\n}\n",
  "sourcePath": "/Users/dan/Documents/Coding/Solidity/New_Projects/Contracts/IotDevsGame/contracts/Game_Controls/Players.sol",
  "compiler": {
    "name": "solc",
    "version": "0.6.2+commit.bacdbe57.Emscripten.clang"
  },
  "schemaVersion": "3.2.2",
  "updatedAt": "2020-09-21T15:59:37.319Z",
  "devdoc": {
    "methods": {
      "addPlayer()": {
        "details": "Enable a new player."
      },
      "removePlayer()": {
        "details": "A player can disable itself."
      }
    }
  },
  "userdoc": {
    "methods": {
      "addPlayer()": {
        "notice": "Registration cost is 1 ether."
      }
    }
  }
}