{
  "contractName": "RollTheDice",
  "abi": [
    {
      "inputs": [],
      "stateMutability": "nonpayable",
      "type": "constructor"
    },
    {
      "inputs": [
        {
          "internalType": "address",
          "name": "",
          "type": "address"
        }
      ],
      "name": "victories",
      "outputs": [
        {
          "internalType": "uint256",
          "name": "",
          "type": "uint256"
        }
      ],
      "stateMutability": "view",
      "type": "function"
    },
    {
      "inputs": [
        {
          "internalType": "uint8",
          "name": "_n",
          "type": "uint8"
        }
      ],
      "name": "roll",
      "outputs": [],
      "stateMutability": "nonpayable",
      "type": "function"
    },
    {
      "inputs": [
        {
          "internalType": "uint8",
          "name": "_n",
          "type": "uint8"
        }
      ],
      "name": "help",
      "outputs": [],
      "stateMutability": "payable",
      "type": "function"
    },
    {
      "inputs": [
        {
          "internalType": "address",
          "name": "_player",
          "type": "address"
        }
      ],
      "name": "done",
      "outputs": [
        {
          "internalType": "bool",
          "name": "",
          "type": "bool"
        }
      ],
      "stateMutability": "view",
      "type": "function"
    }
  ],
  "bytecode": "0x608060405234801561001057600080fd5b50336000806101000a81548173ffffffffffffffffffffffffffffffffffffffff021916908373ffffffffffffffffffffffffffffffffffffffff16021790555061054d806100606000396000f3fe60806040526004361061003f5760003560e01c80636bf0f4a1146100445780637be8f86b14610082578063a7ed8a52146100eb578063bef9b15414610150575b600080fd5b34801561005057600080fd5b506100806004803603602081101561006757600080fd5b81019080803560ff169060200190929190505050610181565b005b34801561008e57600080fd5b506100d1600480360360208110156100a557600080fd5b81019080803573ffffffffffffffffffffffffffffffffffffffff169060200190929190505050610248565b604051808215151515815260200191505060405180910390f35b3480156100f757600080fd5b5061013a6004803603602081101561010e57600080fd5b81019080803573ffffffffffffffffffffffffffffffffffffffff169060200190929190505050610295565b6040518082815260200191505060405180910390f35b61017f6004803603602081101561016657600080fd5b81019080803560ff1690602001909291905050506102ad565b005b60006101a160016006428161019257fe5b066102da90919063ffffffff16565b9050808260ff1614156102445761020060018060003373ffffffffffffffffffffffffffffffffffffffff1673ffffffffffffffffffffffffffffffffffffffff168152602001908152602001600020546102da90919063ffffffff16565b600160003373ffffffffffffffffffffffffffffffffffffffff1673ffffffffffffffffffffffffffffffffffffffff168152602001908152602001600020819055505b5050565b60006003600160008473ffffffffffffffffffffffffffffffffffffffff1673ffffffffffffffffffffffffffffffffffffffff1681526020019081526020016000205410159050919050565b60016020528060005260406000206000915090505481565b60006102ca670de0b6b3a76400003461036290919063ffffffff16565b90506102d681836103ac565b5050565b600080828401905083811015610358576040517f08c379a000000000000000000000000000000000000000000000000000000000815260040180806020018281038252601b8152602001807f536166654d6174683a206164646974696f6e206f766572666c6f77000000000081525060200191505060405180910390fd5b8091505092915050565b60006103a483836040518060400160405280601a81526020017f536166654d6174683a206469766973696f6e206279207a65726f000000000000815250610451565b905092915050565b818160ff16141561044d5761040960018060003373ffffffffffffffffffffffffffffffffffffffff1673ffffffffffffffffffffffffffffffffffffffff168152602001908152602001600020546102da90919063ffffffff16565b600160003373ffffffffffffffffffffffffffffffffffffffff1673ffffffffffffffffffffffffffffffffffffffff168152602001908152602001600020819055505b5050565b600080831182906104fd576040517f08c379a00000000000000000000000000000000000000000000000000000000081526004018080602001828103825283818151815260200191508051906020019080838360005b838110156104c25780820151818401526020810190506104a7565b50505050905090810190601f1680156104ef5780820380516001836020036101000a031916815260200191505b509250505060405180910390fd5b50600083858161050957fe5b04905080915050939250505056fea2646970667358221220d64d5b9a69e1001d932a4eba04de4ac9a2404114b8c4ae502b5e75af3bbbf17964736f6c63430006020033",
  "source": "pragma solidity 0.6.2;\n\nimport \"@openzeppelin/contracts/math/SafeMath.sol\";\n\ncontract RollTheDice {\n\n  using SafeMath for uint256;\n\n  address owner;\n  mapping (address => uint256) public victories;\n\n  constructor () public {\n      owner = msg.sender;\n  }\n\n  function roll (uint8 _n) public {\n    uint256 randomFace = (now % 6).add(1);\n    if(_n == randomFace) {\n      victories[msg.sender] = victories[msg.sender].add(1);\n    }\n  }\n\n  function roll (uint256 _randomFace, uint8 _n) private {\n    if(_n == _randomFace) {\n     victories[msg.sender] = victories[msg.sender].add(1);\n    }\n  }\n\n  function help (uint8 _n) public payable {\n      uint256 randomFace = msg.value.div(1 ether);\n      roll (randomFace, _n);\n  }\n\n  function done (address _player) public view returns (bool) {\n      return (victories[_player] >= 3);\n  }\n\n}\n",
  "sourcePath": "/Users/dan/Documents/Coding/Solidity/New_Projects/Contracts/IotDevsGame/contracts/Game/Levels/Level_6.sol",
  "compiler": {
    "name": "solc",
    "version": "0.6.2+commit.bacdbe57.Emscripten.clang"
  },
  "schemaVersion": "3.2.2",
  "updatedAt": "2020-09-23T13:29:57.136Z",
  "devdoc": {
    "methods": {}
  },
  "userdoc": {
    "methods": {}
  }
}