{
  "contractName": "Stake",
  "abi": [
    {
      "inputs": [
        {
          "internalType": "address",
          "name": "",
          "type": "address"
        }
      ],
      "name": "staking",
      "outputs": [
        {
          "internalType": "uint256",
          "name": "startTime",
          "type": "uint256"
        },
        {
          "internalType": "uint256",
          "name": "endTime",
          "type": "uint256"
        },
        {
          "internalType": "uint256",
          "name": "amountStaked",
          "type": "uint256"
        }
      ],
      "stateMutability": "view",
      "type": "function"
    }
  ],
  "bytecode": "0x608060405234801561001057600080fd5b5060f08061001f6000396000f3fe6080604052348015600f57600080fd5b506004361060285760003560e01c8063d764b78f14602d575b600080fd5b606c60048036036020811015604157600080fd5b81019080803573ffffffffffffffffffffffffffffffffffffffff1690602001909291905050506090565b60405180848152602001838152602001828152602001935050505060405180910390f35b6000602052806000526040600020600091509050806000015490806001015490806002015490508356fea2646970667358221220c9a3cbaca85da8d156f0505df9f3675f5d51fd129f21082e80183e0339484b8564736f6c63430006020033",
  "source": "pragma solidity 0.6.2;\nimport \"@openzeppelin/contracts/math/SafeMath.sol\";\n\ncontract Stake {\n\n  using SafeMath for uint256;\n\n  uint256 constant YearlyStakeInterest = 10;\n\n  struct StakeIt {\n    uint256 startTime;\n    uint256 endTime;\n    uint256 amountStaked;\n  }\n\n  mapping (address => StakeIt) public staking;\n\n  function _startStaking (uint256 _amount, uint256 _nOfDays) internal {\n    staking[msg.sender].startTime = now;\n    staking[msg.sender].endTime = now + (_nOfDays.mul(1 days));\n    staking[msg.sender].amountStaked = _amount;\n  }\n\n  function _endStaking () internal returns (uint256) {\n    require (staking[msg.sender].endTime >= now);\n    uint256 timeStakedDays = (staking[msg.sender].endTime.sub(staking[msg.sender].startTime)).div(1 days);\n    uint256 toMint = ((staking[msg.sender].amountStaked*YearlyStakeInterest/100)/365)*timeStakedDays;\n    return toMint;\n  }\n\n  // Mock function for testing purpose //\n  \n  function _endStakingTest (uint _days) internal returns (uint256) {\n    require (staking[msg.sender].endTime + _days * 1 days >= now);\n    uint256 timeStakedDays = (staking[msg.sender].endTime.sub(staking[msg.sender].startTime)).div(1 days);\n    uint256 toMint = ((staking[msg.sender].amountStaked*YearlyStakeInterest/100)/365)*timeStakedDays;\n    return toMint;\n  }\n}\n",
  "sourcePath": "/Users/dan/Documents/Coding/Solidity/New_Projects/Contracts/IotDevsGame/contracts/Game_Controls/Stake.sol",
  "compiler": {
    "name": "solc",
    "version": "0.6.2+commit.bacdbe57.Emscripten.clang"
  },
  "schemaVersion": "3.2.2",
  "updatedAt": "2020-09-24T13:34:40.423Z",
  "devdoc": {
    "methods": {}
  },
  "userdoc": {
    "methods": {}
  }
}