{
  "contractName": "TestERC20",
  "abi": [
    {
      "inputs": [],
      "name": "completed",
      "outputs": [
        {
          "internalType": "bool",
          "name": "",
          "type": "bool"
        }
      ],
      "stateMutability": "view",
      "type": "function"
    }
  ],
  "bytecode": "0x6080604052348015600f57600080fd5b5060958061001e6000396000f3fe6080604052348015600f57600080fd5b506004361060285760003560e01c80639d9a7fe914602d575b600080fd5b6033604d565b604051808215151515815260200191505060405180910390f35b6000809054906101000a900460ff168156fea2646970667358221220d21220f8fec8f6ee08cb8ac840d70024477999311907089110e813186d2ffb2c64736f6c63430006020033",
  "source": "pragma solidity 0.6.2;\n\ninterface ERC20Game {\n  function symbol() external view returns (string memory);\n  function balanceOf(address tokenOwner) external view returns (uint balance);\n}\n\n/**\n* @dev Create a contract that mints 1 ERC20 token to the address of this contract.\n* @dev Once your contract has been created and the erc minted, call the function in main.\n* @notice your ERC20 token symbol must be 'XYZ'.\n*\n*/\n\ncontract TestERC20  {\n\n  bool public completed;\n  bytes32 constant symbolResult = 0x27fd9bb70fcea8125f7e0ba4eaeda4fb5ff28f5535e452dc1b70a42f567f4d75;\n\n  function playERC (address _ercImplementation) internal {\n    ERC20Game impl = ERC20Game(_ercImplementation);\n    bytes32 sym = keccak256(abi.encodePacked(impl.symbol()));\n    uint balance = impl.balanceOf(address(this));\n    require (sym == symbolResult && balance == 10**18 );\n    completed = true;\n  }\n}\n",
  "sourcePath": "/Users/dan/Documents/Coding/Solidity/New_Projects/Contracts/IotDevsGame/contracts/Game/Levels/Level_5.sol",
  "compiler": {
    "name": "solc",
    "version": "0.6.2+commit.bacdbe57.Emscripten.clang"
  },
  "schemaVersion": "3.2.2",
  "updatedAt": "2020-09-25T15:55:20.840Z",
  "devdoc": {
    "details": "Create a contract that mints 1 ERC20 token to the address of this contract.Once your contract has been created and the erc minted, call the function in main.",
    "methods": {}
  },
  "userdoc": {
    "methods": {},
    "notice": "your ERC20 token symbol must be 'XYZ'."
  }
}