{
  "contractName": "TheGreatHall",
  "abi": [
    {
      "anonymous": false,
      "inputs": [
        {
          "indexed": false,
          "internalType": "uint256",
          "name": "",
          "type": "uint256"
        }
      ],
      "name": "random",
      "type": "event"
    },
    {
      "inputs": [
        {
          "internalType": "address",
          "name": "",
          "type": "address"
        }
      ],
      "name": "timer",
      "outputs": [
        {
          "internalType": "uint256",
          "name": "",
          "type": "uint256"
        }
      ],
      "stateMutability": "view",
      "type": "function"
    },
    {
      "inputs": [],
      "name": "unlockA",
      "outputs": [],
      "stateMutability": "nonpayable",
      "type": "function"
    },
    {
      "inputs": [
        {
          "internalType": "uint8",
          "name": "_n",
          "type": "uint8"
        }
      ],
      "name": "unlockB",
      "outputs": [],
      "stateMutability": "nonpayable",
      "type": "function"
    },
    {
      "inputs": [],
      "name": "r",
      "outputs": [],
      "stateMutability": "nonpayable",
      "type": "function"
    },
    {
      "inputs": [
        {
          "internalType": "uint256",
          "name": "_n",
          "type": "uint256"
        }
      ],
      "name": "unlockC",
      "outputs": [],
      "stateMutability": "nonpayable",
      "type": "function"
    }
  ],
  "bytecode": "0x608060405234801561001057600080fd5b5061052f806100206000396000f3fe608060405234801561001057600080fd5b50600436106100575760003560e01c80632044ea5a1461005c578063534d4ec31461008a5780636c8ae38c14610094578063c707def61461009e578063ec45787c146100cf575b600080fd5b6100886004803603602081101561007257600080fd5b8101908080359060200190929190505050610127565b005b61009261023b565b005b61009c6102e8565b005b6100cd600480360360208110156100b457600080fd5b81019080803560ff169060200190929190505050610375565b005b610111600480360360208110156100e557600080fd5b81019080803573ffffffffffffffffffffffffffffffffffffffff169060200190929190505050610497565b6040518082815260200191505060405180910390f35b6000600160003373ffffffffffffffffffffffffffffffffffffffff1673ffffffffffffffffffffffffffffffffffffffff16815260200190815260200160002060009054906101000a900460ff1660ff16141561018457600080fd5b600460003373ffffffffffffffffffffffffffffffffffffffff1673ffffffffffffffffffffffffffffffffffffffff1681526020019081526020016000205481146101d7576101d26102e8565b610238565b6101df6104af565b6001600260003373ffffffffffffffffffffffffffffffffffffffff1673ffffffffffffffffffffffffffffffffffffffff16815260200190815260200160002060006101000a81548160ff0219169083151502179055505b50565b67016345785d8a0000600360003373ffffffffffffffffffffffffffffffffffffffff1673ffffffffffffffffffffffffffffffffffffffff168152602001908152602001600020541161028e57600080fd5b60326000803373ffffffffffffffffffffffffffffffffffffffff1673ffffffffffffffffffffffffffffffffffffffff16815260200190815260200160002060006101000a81548160ff021916908360ff160217905550565b600060ff42816102f457fe5b06905080600460003373ffffffffffffffffffffffffffffffffffffffff1673ffffffffffffffffffffffffffffffffffffffff168152602001908152602001600020819055507fb863bd3729546d4186efd003c567348f9deb7087f4632b9046c39adb8008c19f816040518082815260200191505060405180910390a150565b6000803373ffffffffffffffffffffffffffffffffffffffff1673ffffffffffffffffffffffffffffffffffffffff16815260200190815260200160002060009054906101000a900460ff1660ff168160ff16106103d257600080fd5b60008160ff166000803373ffffffffffffffffffffffffffffffffffffffff1673ffffffffffffffffffffffffffffffffffffffff16815260200190815260200160002060009054906101000a900460ff1660ff168161042e57fe5b0660ff161461043c57600080fd5b80600160003373ffffffffffffffffffffffffffffffffffffffff1673ffffffffffffffffffffffffffffffffffffffff16815260200190815260200160002060006101000a81548160ff021916908360ff16021790555050565b60056020528060005260406000206000915090505481565b61012c4201600560003373ffffffffffffffffffffffffffffffffffffffff1673ffffffffffffffffffffffffffffffffffffffff1681526020019081526020016000208190555056fea264697066735822122089767a25370aceefe2239c7db80252d6b343eb43304b5a2bdb2c0072316b9c5664736f6c63430006020033",
  "source": "pragma solidity 0.6.2;\n\n/**\n* @dev Read the contract and unlock the next level;\n*/\n\ncontract TheGreatHall {\n\n  mapping (address => uint8) private doorLockA;\n  mapping (address => uint8) private doorLockB;\n  mapping (address => bool) private unlocked;\n  mapping (address => uint256) private receiver;\n  mapping (address => uint256) private randomN;\n  mapping (address => uint256) public timer;\n\n  event random (uint256);\n\n  function unlockA () public {\n    require (receiver[msg.sender] > 0.1 ether);\n    doorLockA[msg.sender] = 50;\n  }\n\n  function unlockB (uint8 _n) public {\n    require (_n < doorLockA[msg.sender]);\n\n    if (doorLockA[msg.sender] % _n != 0) {revert();}\n    doorLockB[msg.sender] = _n;\n  }\n\n  function r () public {\n    uint256 randomNumber = now%255;\n    randomN[msg.sender] = randomNumber;\n    emit random (randomNumber);\n  }\n\n  function unlockC (uint256 _n) public {\n    require (doorLockB[msg.sender] != 0);\n    if(_n != randomN[msg.sender]) {r();} else {\n      setTimer ();\n      unlocked[msg.sender] = true;\n    }\n  }\n\n  function setTimer () private {\n    timer[msg.sender] = now + 5 minutes;\n  }\n\n  function reset (address _player) internal {\n    delete(doorLockA[_player]);\n    delete(doorLockB[_player]);\n    delete(unlocked[_player]);\n    delete(randomN[_player]);\n    delete(timer[_player]);\n  }\n\n}\n",
  "sourcePath": "/Users/dan/Documents/Coding/Solidity/New_Projects/Contracts/IotDevsGame/contracts/Game/Easy/Level_1.sol",
  "compiler": {
    "name": "solc",
    "version": "0.6.2+commit.bacdbe57.Emscripten.clang"
  },
  "schemaVersion": "3.0.23",
  "updatedAt": "2020-07-28T10:32:20.788Z",
  "devdoc": {
    "details": "Read the contract and unlock the next level;",
    "methods": {}
  },
  "userdoc": {
    "methods": {}
  }
}