{
  "contractName": "Victim",
  "abi": [
    {
      "inputs": [],
      "stateMutability": "nonpayable",
      "type": "constructor"
    },
    {
      "anonymous": false,
      "inputs": [
        {
          "indexed": true,
          "internalType": "address",
          "name": "owner",
          "type": "address"
        },
        {
          "indexed": true,
          "internalType": "address",
          "name": "spender",
          "type": "address"
        },
        {
          "indexed": false,
          "internalType": "uint256",
          "name": "value",
          "type": "uint256"
        }
      ],
      "name": "Approval",
      "type": "event"
    },
    {
      "anonymous": false,
      "inputs": [
        {
          "indexed": true,
          "internalType": "address",
          "name": "from",
          "type": "address"
        },
        {
          "indexed": true,
          "internalType": "address",
          "name": "to",
          "type": "address"
        },
        {
          "indexed": false,
          "internalType": "uint256",
          "name": "value",
          "type": "uint256"
        }
      ],
      "name": "Transfer",
      "type": "event"
    },
    {
      "inputs": [
        {
          "internalType": "address",
          "name": "owner",
          "type": "address"
        },
        {
          "internalType": "address",
          "name": "spender",
          "type": "address"
        }
      ],
      "name": "allowance",
      "outputs": [
        {
          "internalType": "uint256",
          "name": "",
          "type": "uint256"
        }
      ],
      "stateMutability": "view",
      "type": "function"
    },
    {
      "inputs": [
        {
          "internalType": "address",
          "name": "spender",
          "type": "address"
        },
        {
          "internalType": "uint256",
          "name": "amount",
          "type": "uint256"
        }
      ],
      "name": "approve",
      "outputs": [
        {
          "internalType": "bool",
          "name": "",
          "type": "bool"
        }
      ],
      "stateMutability": "nonpayable",
      "type": "function"
    },
    {
      "inputs": [
        {
          "internalType": "address",
          "name": "account",
          "type": "address"
        }
      ],
      "name": "balanceOf",
      "outputs": [
        {
          "internalType": "uint256",
          "name": "",
          "type": "uint256"
        }
      ],
      "stateMutability": "view",
      "type": "function"
    },
    {
      "inputs": [],
      "name": "claimed",
      "outputs": [
        {
          "internalType": "bool",
          "name": "",
          "type": "bool"
        }
      ],
      "stateMutability": "view",
      "type": "function"
    },
    {
      "inputs": [],
      "name": "decimals",
      "outputs": [
        {
          "internalType": "uint8",
          "name": "",
          "type": "uint8"
        }
      ],
      "stateMutability": "view",
      "type": "function"
    },
    {
      "inputs": [
        {
          "internalType": "address",
          "name": "spender",
          "type": "address"
        },
        {
          "internalType": "uint256",
          "name": "subtractedValue",
          "type": "uint256"
        }
      ],
      "name": "decreaseAllowance",
      "outputs": [
        {
          "internalType": "bool",
          "name": "",
          "type": "bool"
        }
      ],
      "stateMutability": "nonpayable",
      "type": "function"
    },
    {
      "inputs": [],
      "name": "i",
      "outputs": [
        {
          "internalType": "uint256",
          "name": "",
          "type": "uint256"
        }
      ],
      "stateMutability": "view",
      "type": "function"
    },
    {
      "inputs": [
        {
          "internalType": "address",
          "name": "spender",
          "type": "address"
        },
        {
          "internalType": "uint256",
          "name": "addedValue",
          "type": "uint256"
        }
      ],
      "name": "increaseAllowance",
      "outputs": [
        {
          "internalType": "bool",
          "name": "",
          "type": "bool"
        }
      ],
      "stateMutability": "nonpayable",
      "type": "function"
    },
    {
      "inputs": [],
      "name": "name",
      "outputs": [
        {
          "internalType": "string",
          "name": "",
          "type": "string"
        }
      ],
      "stateMutability": "view",
      "type": "function"
    },
    {
      "inputs": [],
      "name": "owner",
      "outputs": [
        {
          "internalType": "address",
          "name": "",
          "type": "address"
        }
      ],
      "stateMutability": "view",
      "type": "function"
    },
    {
      "inputs": [],
      "name": "symbol",
      "outputs": [
        {
          "internalType": "string",
          "name": "",
          "type": "string"
        }
      ],
      "stateMutability": "view",
      "type": "function"
    },
    {
      "inputs": [],
      "name": "totalSupply",
      "outputs": [
        {
          "internalType": "uint256",
          "name": "",
          "type": "uint256"
        }
      ],
      "stateMutability": "view",
      "type": "function"
    },
    {
      "inputs": [
        {
          "internalType": "address",
          "name": "recipient",
          "type": "address"
        },
        {
          "internalType": "uint256",
          "name": "amount",
          "type": "uint256"
        }
      ],
      "name": "transfer",
      "outputs": [
        {
          "internalType": "bool",
          "name": "",
          "type": "bool"
        }
      ],
      "stateMutability": "nonpayable",
      "type": "function"
    },
    {
      "inputs": [
        {
          "internalType": "address",
          "name": "sender",
          "type": "address"
        },
        {
          "internalType": "address",
          "name": "recipient",
          "type": "address"
        },
        {
          "internalType": "uint256",
          "name": "amount",
          "type": "uint256"
        }
      ],
      "name": "transferFrom",
      "outputs": [
        {
          "internalType": "bool",
          "name": "",
          "type": "bool"
        }
      ],
      "stateMutability": "nonpayable",
      "type": "function"
    },
    {
      "inputs": [],
      "name": "victories",
      "outputs": [
        {
          "internalType": "uint256",
          "name": "",
          "type": "uint256"
        }
      ],
      "stateMutability": "view",
      "type": "function"
    },
    {
      "inputs": [],
      "name": "claim",
      "outputs": [],
      "stateMutability": "nonpayable",
      "type": "function"
    },
    {
      "inputs": [],
      "name": "play",
      "outputs": [
        {
          "internalType": "bool",
          "name": "",
          "type": "bool"
        }
      ],
      "stateMutability": "nonpayable",
      "type": "function"
    },
    {
      "inputs": [],
      "name": "unlock",
      "outputs": [],
      "stateMutability": "nonpayable",
      "type": "function"
    }
  ],
  "bytecode": "0x60806040523480156200001157600080fd5b506040518060400160405280600a81526020017f47616d6520546f6b656e000000000000000000000000000000000000000000008152506040518060400160405280600381526020017f474d54000000000000000000000000000000000000000000000000000000000081525081600390805190602001906200009692919062000140565b508060049080519060200190620000af92919062000140565b506012600560006101000a81548160ff021916908360ff160217905550505033600860006101000a81548173ffffffffffffffffffffffffffffffffffffffff021916908373ffffffffffffffffffffffffffffffffffffffff1602179055506000600860146101000a81548160ff02191690831515021790555060006007819055506000600681905550620001ef565b828054600181600116156101000203166002900490600052602060002090601f016020900481019282601f106200018357805160ff1916838001178555620001b4565b82800160010185558215620001b4579182015b82811115620001b357825182559160200191906001019062000196565b5b509050620001c39190620001c7565b5090565b620001ec91905b80821115620001e8576000816000905550600101620001ce565b5090565b90565b61169580620001ff6000396000f3fe608060405234801561001057600080fd5b50600436106101165760003560e01c806393e84cd9116100a2578063a9059cbb11610071578063a9059cbb146104f3578063c60b3aa914610559578063dd62ed3e14610577578063e5aa3d58146105ef578063e834a8341461060d57610116565b806393e84cd9146103de57806395d89b4114610400578063a457c2d714610483578063a69df4b5146104e957610116565b8063313ce567116100e9578063313ce567146102a857806339509351146102cc5780634e71d92d1461033257806370a082311461033c5780638da5cb5b1461039457610116565b806306fdde031461011b578063095ea7b31461019e57806318160ddd1461020457806323b872dd14610222575b600080fd5b61012361062f565b6040518080602001828103825283818151815260200191508051906020019080838360005b83811015610163578082015181840152602081019050610148565b50505050905090810190601f1680156101905780820380516001836020036101000a031916815260200191505b509250505060405180910390f35b6101ea600480360360408110156101b457600080fd5b81019080803573ffffffffffffffffffffffffffffffffffffffff169060200190929190803590602001909291905050506106d1565b604051808215151515815260200191505060405180910390f35b61020c6106ef565b6040518082815260200191505060405180910390f35b61028e6004803603606081101561023857600080fd5b81019080803573ffffffffffffffffffffffffffffffffffffffff169060200190929190803573ffffffffffffffffffffffffffffffffffffffff169060200190929190803590602001909291905050506106f9565b604051808215151515815260200191505060405180910390f35b6102b06107d2565b604051808260ff1660ff16815260200191505060405180910390f35b610318600480360360408110156102e257600080fd5b81019080803573ffffffffffffffffffffffffffffffffffffffff169060200190929190803590602001909291905050506107e9565b604051808215151515815260200191505060405180910390f35b61033a61089c565b005b61037e6004803603602081101561035257600080fd5b81019080803573ffffffffffffffffffffffffffffffffffffffff1690602001909291905050506108e5565b6040518082815260200191505060405180910390f35b61039c61092d565b604051808273ffffffffffffffffffffffffffffffffffffffff1673ffffffffffffffffffffffffffffffffffffffff16815260200191505060405180910390f35b6103e6610953565b604051808215151515815260200191505060405180910390f35b610408610a2f565b6040518080602001828103825283818151815260200191508051906020019080838360005b8381101561044857808201518184015260208101905061042d565b50505050905090810190601f1680156104755780820380516001836020036101000a031916815260200191505b509250505060405180910390f35b6104cf6004803603604081101561049957600080fd5b81019080803573ffffffffffffffffffffffffffffffffffffffff16906020019092919080359060200190929190505050610ad1565b604051808215151515815260200191505060405180910390f35b6104f1610b9e565b005b61053f6004803603604081101561050957600080fd5b81019080803573ffffffffffffffffffffffffffffffffffffffff16906020019092919080359060200190929190505050610bd5565b604051808215151515815260200191505060405180910390f35b610561610bf3565b6040518082815260200191505060405180910390f35b6105d96004803603604081101561058d57600080fd5b81019080803573ffffffffffffffffffffffffffffffffffffffff169060200190929190803573ffffffffffffffffffffffffffffffffffffffff169060200190929190505050610bf9565b6040518082815260200191505060405180910390f35b6105f7610c80565b6040518082815260200191505060405180910390f35b610615610c86565b604051808215151515815260200191505060405180910390f35b606060038054600181600116156101000203166002900480601f0160208091040260200160405190810160405280929190818152602001828054600181600116156101000203166002900480156106c75780601f1061069c576101008083540402835291602001916106c7565b820191906000526020600020905b8154815290600101906020018083116106aa57829003601f168201915b5050505050905090565b60006106e56106de610c99565b8484610ca1565b6001905092915050565b6000600254905090565b6000610706848484610e98565b6107c784610712610c99565b6107c2856040518060600160405280602881526020016115ca60289139600160008b73ffffffffffffffffffffffffffffffffffffffff1673ffffffffffffffffffffffffffffffffffffffff1681526020019081526020016000206000610778610c99565b73ffffffffffffffffffffffffffffffffffffffff1673ffffffffffffffffffffffffffffffffffffffff168152602001908152602001600020546111599092919063ffffffff16565b610ca1565b600190509392505050565b6000600560009054906101000a900460ff16905090565b60006108926107f6610c99565b8461088d8560016000610807610c99565b73ffffffffffffffffffffffffffffffffffffffff1673ffffffffffffffffffffffffffffffffffffffff16815260200190815260200160002060008973ffffffffffffffffffffffffffffffffffffffff1673ffffffffffffffffffffffffffffffffffffffff1681526020019081526020016000205461121990919063ffffffff16565b610ca1565b6001905092915050565b600860149054906101000a900460ff16156108b657600080fd5b6108c833674563918244f400006112a1565b6001600860146101000a81548160ff021916908315150217905550565b60008060008373ffffffffffffffffffffffffffffffffffffffff1673ffffffffffffffffffffffffffffffffffffffff168152602001908152602001600020549050919050565b600860009054906101000a900473ffffffffffffffffffffffffffffffffffffffff1681565b600061096733670de0b6b3a76400006107e9565b5061097b3330670de0b6b3a76400006106f9565b50600060075414156109aa5761099b601e4261121990919063ffffffff16565b60078190555060019050610a2c565b6109c0601e60075461121990919063ffffffff16565b6007541015610a0a576109df600160065461121990919063ffffffff16565b6006819055506109fb601e60065461146890919063ffffffff16565b60075401600781905550610a27565b610a2060016006546114ee90919063ffffffff16565b6006819055505b600190505b90565b606060048054600181600116156101000203166002900480601f016020809104026020016040519081016040528092919081815260200182805460018160011615610100020316600290048015610ac75780601f10610a9c57610100808354040283529160200191610ac7565b820191906000526020600020905b815481529060010190602001808311610aaa57829003601f168201915b5050505050905090565b6000610b94610ade610c99565b84610b8f8560405180606001604052806025815260200161163b6025913960016000610b08610c99565b73ffffffffffffffffffffffffffffffffffffffff1673ffffffffffffffffffffffffffffffffffffffff16815260200190815260200160002060008a73ffffffffffffffffffffffffffffffffffffffff1673ffffffffffffffffffffffffffffffffffffffff168152602001908152602001600020546111599092919063ffffffff16565b610ca1565b6001905092915050565b6000610ba9336108e5565b1415610bd3576000600860146101000a81548160ff02191690831515021790555060006006819055505b565b6000610be9610be2610c99565b8484610e98565b6001905092915050565b60065481565b6000600160008473ffffffffffffffffffffffffffffffffffffffff1673ffffffffffffffffffffffffffffffffffffffff16815260200190815260200160002060008373ffffffffffffffffffffffffffffffffffffffff1673ffffffffffffffffffffffffffffffffffffffff16815260200190815260200160002054905092915050565b60075481565b600860149054906101000a900460ff1681565b600033905090565b600073ffffffffffffffffffffffffffffffffffffffff168373ffffffffffffffffffffffffffffffffffffffff161415610d27576040517f08c379a00000000000000000000000000000000000000000000000000000000081526004018080602001828103825260248152602001806116176024913960400191505060405180910390fd5b600073ffffffffffffffffffffffffffffffffffffffff168273ffffffffffffffffffffffffffffffffffffffff161415610dad576040517f08c379a00000000000000000000000000000000000000000000000000000000081526004018080602001828103825260228152602001806115616022913960400191505060405180910390fd5b80600160008573ffffffffffffffffffffffffffffffffffffffff1673ffffffffffffffffffffffffffffffffffffffff16815260200190815260200160002060008473ffffffffffffffffffffffffffffffffffffffff1673ffffffffffffffffffffffffffffffffffffffff168152602001908152602001600020819055508173ffffffffffffffffffffffffffffffffffffffff168373ffffffffffffffffffffffffffffffffffffffff167f8c5be1e5ebec7d5bd14f71427d1e84f3dd0314c0f7b2291e5b200ac8c7c3b925836040518082815260200191505060405180910390a3505050565b600073ffffffffffffffffffffffffffffffffffffffff168373ffffffffffffffffffffffffffffffffffffffff161415610f1e576040517f08c379a00000000000000000000000000000000000000000000000000000000081526004018080602001828103825260258152602001806115f26025913960400191505060405180910390fd5b600073ffffffffffffffffffffffffffffffffffffffff168273ffffffffffffffffffffffffffffffffffffffff161415610fa4576040517f08c379a000000000000000000000000000000000000000000000000000000000815260040180806020018281038252602381526020018061153e6023913960400191505060405180910390fd5b610faf838383611538565b61101a81604051806060016040528060268152602001611583602691396000808773ffffffffffffffffffffffffffffffffffffffff1673ffffffffffffffffffffffffffffffffffffffff168152602001908152602001600020546111599092919063ffffffff16565b6000808573ffffffffffffffffffffffffffffffffffffffff1673ffffffffffffffffffffffffffffffffffffffff168152602001908152602001600020819055506110ad816000808573ffffffffffffffffffffffffffffffffffffffff1673ffffffffffffffffffffffffffffffffffffffff1681526020019081526020016000205461121990919063ffffffff16565b6000808473ffffffffffffffffffffffffffffffffffffffff1673ffffffffffffffffffffffffffffffffffffffff168152602001908152602001600020819055508173ffffffffffffffffffffffffffffffffffffffff168373ffffffffffffffffffffffffffffffffffffffff167fddf252ad1be2c89b69c2b068fc378daa952ba7f163c4a11628f55a4df523b3ef836040518082815260200191505060405180910390a3505050565b6000838311158290611206576040517f08c379a00000000000000000000000000000000000000000000000000000000081526004018080602001828103825283818151815260200191508051906020019080838360005b838110156111cb5780820151818401526020810190506111b0565b50505050905090810190601f1680156111f85780820380516001836020036101000a031916815260200191505b509250505060405180910390fd5b5060008385039050809150509392505050565b600080828401905083811015611297576040517f08c379a000000000000000000000000000000000000000000000000000000000815260040180806020018281038252601b8152602001807f536166654d6174683a206164646974696f6e206f766572666c6f77000000000081525060200191505060405180910390fd5b8091505092915050565b600073ffffffffffffffffffffffffffffffffffffffff168273ffffffffffffffffffffffffffffffffffffffff161415611344576040517f08c379a000000000000000000000000000000000000000000000000000000000815260040180806020018281038252601f8152602001807f45524332303a206d696e7420746f20746865207a65726f20616464726573730081525060200191505060405180910390fd5b61135060008383611538565b6113658160025461121990919063ffffffff16565b6002819055506113bc816000808573ffffffffffffffffffffffffffffffffffffffff1673ffffffffffffffffffffffffffffffffffffffff1681526020019081526020016000205461121990919063ffffffff16565b6000808473ffffffffffffffffffffffffffffffffffffffff1673ffffffffffffffffffffffffffffffffffffffff168152602001908152602001600020819055508173ffffffffffffffffffffffffffffffffffffffff16600073ffffffffffffffffffffffffffffffffffffffff167fddf252ad1be2c89b69c2b068fc378daa952ba7f163c4a11628f55a4df523b3ef836040518082815260200191505060405180910390a35050565b60008083141561147b57600090506114e8565b600082840290508284828161148c57fe5b04146114e3576040517f08c379a00000000000000000000000000000000000000000000000000000000081526004018080602001828103825260218152602001806115a96021913960400191505060405180910390fd5b809150505b92915050565b600061153083836040518060400160405280601e81526020017f536166654d6174683a207375627472616374696f6e206f766572666c6f770000815250611159565b905092915050565b50505056fe45524332303a207472616e7366657220746f20746865207a65726f206164647265737345524332303a20617070726f766520746f20746865207a65726f206164647265737345524332303a207472616e7366657220616d6f756e7420657863656564732062616c616e6365536166654d6174683a206d756c7469706c69636174696f6e206f766572666c6f7745524332303a207472616e7366657220616d6f756e74206578636565647320616c6c6f77616e636545524332303a207472616e736665722066726f6d20746865207a65726f206164647265737345524332303a20617070726f76652066726f6d20746865207a65726f206164647265737345524332303a2064656372656173656420616c6c6f77616e63652062656c6f77207a65726fa2646970667358221220047e1cddb7fb288ee4bdf0708e34a4327fef9deb0b14324ff8995f3c004dee0064736f6c63430006020033",
  "source": "pragma solidity 0.6.2;\n\nimport \"@openzeppelin/contracts/token/ERC20/ERC20.sol\";\nimport \"@openzeppelin/contracts/math/SafeMath.sol\";\n\ncontract Victim is ERC20 {\n\n  using SafeMath for uint256;\n\n  uint256 public victories;\n  uint256 public i;\n  address public owner;\n  bool public claimed;\n\n  constructor ()\n  ERC20('Game Token','GMT')\n  public\n  {\n    owner = msg.sender;\n    claimed = false;\n    i = 0;\n    victories = 0;\n  }\n\n  function claim () public {\n    require (!claimed);\n    _mint(msg.sender,5 ether);\n    claimed = true;\n  }\n\n  function play () public returns (bool) {\n\n    increaseAllowance(msg.sender,1 ether);\n    transferFrom(msg.sender,address(this), 1 ether);\n\n    if(i == 0){\n      i = now.add(30 seconds);\n      return true;\n    }\n\n    if(i < i.add(30 seconds)) {\n      victories = victories.add(1);\n      i = i + victories.mul(30 seconds);\n\n    } else {\n      victories = victories.sub(1);\n    }\n    return true;\n  }\n\n  function unlock () public {\n    if(balanceOf(msg.sender) == 0) {\n      claimed = false;\n      victories = 0;\n    }\n  }\n\n}\n",
  "sourcePath": "/Users/dan/Documents/Coding/Solidity/New_Projects/Contracts/IotDevsGame/contracts/Game/Levels/Level_6.sol",
  "compiler": {
    "name": "solc",
    "version": "0.6.2+commit.bacdbe57.Emscripten.clang"
  },
  "schemaVersion": "3.2.2",
  "updatedAt": "2020-09-28T14:02:30.040Z",
  "devdoc": {
    "methods": {
      "allowance(address,address)": {
        "details": "See {IERC20-allowance}."
      },
      "approve(address,uint256)": {
        "details": "See {IERC20-approve}.     * Requirements:     * - `spender` cannot be the zero address."
      },
      "balanceOf(address)": {
        "details": "See {IERC20-balanceOf}."
      },
      "decimals()": {
        "details": "Returns the number of decimals used to get its user representation. For example, if `decimals` equals `2`, a balance of `505` tokens should be displayed to a user as `5,05` (`505 / 10 ** 2`).     * Tokens usually opt for a value of 18, imitating the relationship between Ether and Wei. This is the value {ERC20} uses, unless {_setupDecimals} is called.     * NOTE: This information is only used for _display_ purposes: it in no way affects any of the arithmetic of the contract, including {IERC20-balanceOf} and {IERC20-transfer}."
      },
      "decreaseAllowance(address,uint256)": {
        "details": "Atomically decreases the allowance granted to `spender` by the caller.     * This is an alternative to {approve} that can be used as a mitigation for problems described in {IERC20-approve}.     * Emits an {Approval} event indicating the updated allowance.     * Requirements:     * - `spender` cannot be the zero address. - `spender` must have allowance for the caller of at least `subtractedValue`."
      },
      "increaseAllowance(address,uint256)": {
        "details": "Atomically increases the allowance granted to `spender` by the caller.     * This is an alternative to {approve} that can be used as a mitigation for problems described in {IERC20-approve}.     * Emits an {Approval} event indicating the updated allowance.     * Requirements:     * - `spender` cannot be the zero address."
      },
      "name()": {
        "details": "Returns the name of the token."
      },
      "symbol()": {
        "details": "Returns the symbol of the token, usually a shorter version of the name."
      },
      "totalSupply()": {
        "details": "See {IERC20-totalSupply}."
      },
      "transfer(address,uint256)": {
        "details": "See {IERC20-transfer}.     * Requirements:     * - `recipient` cannot be the zero address. - the caller must have a balance of at least `amount`."
      },
      "transferFrom(address,address,uint256)": {
        "details": "See {IERC20-transferFrom}.     * Emits an {Approval} event indicating the updated allowance. This is not required by the EIP. See the note at the beginning of {ERC20};     * Requirements: - `sender` and `recipient` cannot be the zero address. - `sender` must have a balance of at least `amount`. - the caller must have allowance for ``sender``'s tokens of at least `amount`."
      }
    }
  },
  "userdoc": {
    "methods": {}
  }
}