{
  "contractName": "Welcome",
  "abi": [
    {
      "inputs": [],
      "stateMutability": "nonpayable",
      "type": "constructor"
    },
    {
      "inputs": [],
      "name": "owner",
      "outputs": [
        {
          "internalType": "address",
          "name": "",
          "type": "address"
        }
      ],
      "stateMutability": "view",
      "type": "function"
    },
    {
      "inputs": [],
      "name": "setPassword",
      "outputs": [],
      "stateMutability": "nonpayable",
      "type": "function"
    },
    {
      "inputs": [],
      "name": "getPassword",
      "outputs": [
        {
          "internalType": "uint256",
          "name": "",
          "type": "uint256"
        }
      ],
      "stateMutability": "view",
      "type": "function"
    },
    {
      "inputs": [
        {
          "internalType": "uint256",
          "name": "_password",
          "type": "uint256"
        }
      ],
      "name": "setOwnership",
      "outputs": [],
      "stateMutability": "nonpayable",
      "type": "function"
    }
  ],
  "bytecode": "0x608060405234801561001057600080fd5b50336000806101000a81548173ffffffffffffffffffffffffffffffffffffffff021916908373ffffffffffffffffffffffffffffffffffffffff16021790555061026f806100606000396000f3fe608060405234801561001057600080fd5b506004361061004c5760003560e01c80633e1af783146100515780638da5cb5b1461007f578063aea89bf4146100c9578063cc8e2394146100d3575b600080fd5b61007d6004803603602081101561006757600080fd5b81019080803590602001909291905050506100f1565b005b61008761017f565b604051808273ffffffffffffffffffffffffffffffffffffffff1673ffffffffffffffffffffffffffffffffffffffff16815260200191505060405180910390f35b6100d16101a4565b005b6100db6101f2565b6040518082815260200191505060405180910390f35b80600160003373ffffffffffffffffffffffffffffffffffffffff1673ffffffffffffffffffffffffffffffffffffffff168152602001908152602001600020541461013c57600080fd5b336000806101000a81548173ffffffffffffffffffffffffffffffffffffffff021916908373ffffffffffffffffffffffffffffffffffffffff16021790555050565b6000809054906101000a900473ffffffffffffffffffffffffffffffffffffffff1681565b6000424201905080600160003373ffffffffffffffffffffffffffffffffffffffff1673ffffffffffffffffffffffffffffffffffffffff1681526020019081526020016000208190555050565b6000600160003373ffffffffffffffffffffffffffffffffffffffff1673ffffffffffffffffffffffffffffffffffffffff1681526020019081526020016000205490509056fea26469706673582212202b62f963e3af91d4e43ed0c991502f2cb24e6bad373076860aa8b3ab378a14df64736f6c63430006020033",
  "source": "pragma solidity 0.6.2;\n\ncontract Welcome {\n\n  address public owner;\n  mapping (address => uint256) private passwords;\n\n  constructor () public {\n    owner = msg.sender;\n  }\n\n  function setPassword () public {\n    uint256 password = block.timestamp + now;\n    passwords[msg.sender] = password;\n  }\n\n  function getPassword () public view returns (uint256) {\n    return passwords[msg.sender];\n  }\n\n  function setOwnership (uint256 _password) public {\n    require (passwords[msg.sender] == _password);\n    owner = msg.sender;\n  }\n\n}\n",
  "sourcePath": "/Users/dan/Documents/Coding/Solidity/New_Projects/Contracts/IotDevsGame/contracts/Game/Levels/0_Welcome.sol",
  "compiler": {
    "name": "solc",
    "version": "0.6.2+commit.bacdbe57.Emscripten.clang"
  },
  "schemaVersion": "3.2.2",
  "updatedAt": "2020-09-24T13:34:40.358Z",
  "devdoc": {
    "methods": {}
  },
  "userdoc": {
    "methods": {}
  }
}